:020000021000EC
:10E0000086C1000031C400002FC400002DC40000F0
:10E010002BC4000029C4000027C4000025C4000050
:10E0200023C4000021C400001FC400001DC4000060
:10E030001BC4000019C4000017C4000015C4000070
:10E0400013C4000011C400000FC400000DC4000080
:10E050000BC4000009C4000007C4000005C4000090
:10E0600003C4000001C40000FFC30000FDC30000A2
:10E07000FBC30000F9C30000F7C30000F5C30000B4
:10E08000F3C30000F1C30000EFC300000D0A00302D
:10E0900078004E6574776F726B20696E69742064C6
:10E0A0006F6E650009202020204D41433A20000971
:10E0B000476174657761793A200009205375626E73
:10E0C00065743A200009416464726573733A2000F4
:10E0D0004275696C742D696E2073657474696E671E
:10E0E0007300454550524F4D2073657474696E67D7
:10E0F0007300204E65743A2000496E697420736F76
:10E10000636B657420746F20706F72742000094413
:10E11000617461506F72743A2000544654502073F9
:10E12000657276657220696E697420646F6E650031
:10E1300056616C696420696D6167650020696E7362
:10E1400074656164206F6620307839340020696E10
:10E150007374656164206F662030783043002077E7
:10E1600069746820004661696C65642061742000F0
:10E1700056616C643A2000496E76616C6964206F68
:10E1800070636F646520004572726F720041636B4B
:10E190006E6F776C6564676500466C617368696E65
:10E1A0006720636F6D706C657465005061636B65AB
:10E1B00074206C656E6774682061646A7573746539
:10E1C0006420746F200057726974696E67206461FF
:10E1D00074612066726F6D20616464726573732070
:10E1E00000466C6173682069732066756C6C00442E
:10E1F00061746120626C6F636B004368616E676578
:10E200006420746F20706F72742000577269746597
:10E210002072657175657374005265616420726562
:10E2200071756573740020616E642064617461208F
:10E230006C656E67746820002077697468206F7061
:10E24000636F646520005468697320697320626C91
:10E250006F636B2000536574207570207265747550
:10E26000726E2061646472657373004F76657266C6
:10E270006C6F770050726F63657373696E6720709F
:10E2800061636B6574206F662073697A6520005244
:10E290006573706F6E73652073656E740053656E81
:10E2A000742046696E616C2041434B0053656E7467
:10E2B0002041434B00546674703A2000000500036F
:10E2C00046756C6C00000500044F70636F64653F19
:10E2D00000000500004572726F720041726961644E
:10E2E0006E6520666F722041726475696E6F204D95
:10E2F00065676131323834502C2056657273696F0E
:10E300006E20302E35004D61696E3A2000001124D8
:10E310001FBECFEFD0E4DEBFCDBF11E0A0E0B1E083
:10E32000EEE5F1EF01E00BBF02C007900D92AC31BA
:10E33000B107D9F711E0ACE1B1E001C01D92AB32F9
:10E34000B107E1F701D009C7CDB7DEB7C850D1405A
:10E35000DEBFCDBF112484B714BE8D7031F082E0D2
:10E3600090E0E5D68E3E09F4BED329E288E190E044
:10E370000FB6F894A895809360000FBE20936000BC
:10E380002FEF33EC49E0215030404040E1F700C02E
:10E39000000084E08093810080E090E0C8D688236C
:10E3A00021F060E080E090E0CAD681E090E0BFD646
:10E3B000843021F064E081E090E0C1D682E0809377
:10E3C000C00088E18093C10086E08093C20080E1B4
:10E3D0008093C4006BED72EE86E093EEC7D280EFBF
:10E3E00085B980EB84B9479A3F9A81E08DBDBAD355
:10E3F00085D310922A0110922901CE0101961C01A9
:10E4000081ED92EE9C0140E050E04F5F5F4FCE5FA8
:10E41000DE4F288339834A835B83C250D1408CEB23
:10E4200092EE6C01E12CF12C3FEFE31AF30A85EC3C
:10E4300092EE2C01612C712C4FEF641A740A80E06B
:10E4400090E0DC01ABBFFC01A791B691CA5FDE4F43
:10E45000B983A883C650D14080912A018111C4C0DC
:10E4600068E686E293E4B1D2892B09F4BDC081E06D
:10E470008093290168E682E093E489D282FF0FC08D
:10E4800044E06CE682E093E4B8D2BFEFE7E8F3E162
:10E49000B150E040F040E1F700C00000EBCF68E68B
:10E4A00086E293E492D2FBD3CF5FDE4F8883C150E4
:10E4B000D14060E084E293E488D28C011856CF5FAB
:10E4C000DE4F2881C150D140223079F118F421303B
:10E4D000E1F00AC0CF5FDE4F3881C150D140333008
:10E4E000E1F0343009F4B5C12AE030E0CE5FDE4F10
:10E4F000488159816A817B81C250D140C1010ED6C9
:10E500008AE05101282F220D4BC02CE030E0B301EE
:10E51000A201C10103D68CE0F4CF29E030E0B701BD
:10E52000A601C101FBD589E0ECCF8091200190913B
:10E53000210120911E0130911F012817390720F475
:10E5400090931F0180931E016CEA72EE85EB92EEB0
:10E550000DD2198284E08A8380912001909121015B
:10E560009B838C8384E0CDCFD5014D915D01480123
:10E57000BFEF8B1A9B0A64E7C801C85FDE4F288390
:10E58000C850D1403AD2C85FDE4F2881C850D14030
:10E590008114E0EA9E0619F4812CF8E99F2E84018B
:10E5A0002A11E2CFB801785984E293E444D240E2E0
:10E5B0006CE681E093E421D268E681E093E4E7D160
:10E5C0008111FACF6FE872EE85EB92EECFD1CF5F7B
:10E5D000DE4FF881C150D140F43031F440E16CE6B7
:10E5E00081E093E40AD238C1809129018111E6C00B
:10E5F0008091C00087FFE2C038D181E080932A017A
:10E600003ED18134B9F43BD1C85FDE4F8883C85016
:10E61000D14048D1C85FDE4F8881C850D140823890
:10E6200011F484E003C0813819F480E034D1C4C00F
:10E6300083E0FCCF823411F484E103C0853419F403
:10E6400084E03CD1B9C0853591F419D1182F17D188
:10E65000212F30E0382B832F881F8827881F8BBFFE
:10E66000220F331F3093240120932301A4C0863549
:10E6700019F484E023D1D9CF843609F06AC0FFD0E1
:10E68000FED080932201FBD0A0902301B090240102
:10E69000A11420EEB20610F081010BC0C501A0E06C
:10E6A000B0E023E0FC01A0935B0020935700E895C5
:10E6B000F3CFE5D0D8018D938D0180912201815057
:10E6C000809322018111F5CFA114B0EEBB0650F06A
:10E6D000C501A0E0B0E023E0FC01A0935B00209323
:10E6E0005700E895DFD007B600FCFDCF298180E018
:10E6F00090E0992493948101080F191FAC014A0DF1
:10E700005B1D60E070E0D8011196EC9130E03E2B8B
:10E710000901FA0160935B0090925700E89511247B
:10E720008E3F910521F00296F8012281E4CFC501C8
:10E73000A0E0B0E025E0FC01A0935B00209357002F
:10E74000E89507B600FCFDCF81E180935700E8957E
:10E7500033C08437E9F493D092D0809322018FD0D4
:10E76000A1D0E0912301F0912401869194D0809171
:10E770002301909124010196909324018093230119
:10E78000809122018150809322018111EACF14C02F
:10E79000853739F487D08EE17ED087E97CD085E05B
:10E7A00045CF813541F47ED06EEE82E090E0C7D453
:10E7B00080E171D051C076D080E16DD0CA5FDE4F6C
:10E7C00028813981C650D1402F3F3F4FF9F08091C9
:10E7D0002501909126010A97C8F082E090E0A7D425
:10E7E0008E3E09F439C080912901813079F483E0AB
:10E7F00020E030E0A901F90140935B0080935700CD
:10E80000E895B0D17BD131D010922901A895A89577
:10E81000809184009091850094FF04C02BB1205812
:10E820002BB901C05F9820912701309128018217F0
:10E83000930750F420912501309126012F5F3F4F1F
:10E84000309326012093250190932801809327017E
:10E8500003CE6DE972EE7ACE46D180E090E0C85FDB
:10E86000DE4FDEBFCDBF0895CBCB10928500109256
:10E8700084001092260110922501A8950895809198
:10E88000C00087FFFCCF8091C00084FD01C0A89527
:10E890008091C60008959091C00095FFFCCF8093B1
:10E8A000C6000895ECDF803239F088E18093600083
:10E8B00088E080936000FFCF84E1EDCFCF93C82F35
:10E8C000DEDFC150E9F7CF91EDCFCF92DF92EF922B
:10E8D000FF92CF93DF93D0E06C01E12CF12C8FEF0E
:10E8E000E81AF80AD701C6018D0F911DA11DB11DAF
:10E8F000ABBFFC01C791CC2311F08C2FCCDFDF5FC5
:10E90000C111F0CFDF91CF91FF90EF90DF90CF90CA
:10E910000895CF92DF92EF92FF92CF936B017C012B
:10E92000C42F8FE890EED1DFCC23D1F08C2F90E074
:10E930000197880F991F880F991FA701960104C09E
:10E9400056954795379527958A95D2F7DA01C901EB
:10E950008F708A3008F0895F805D9DDFC150E4CF01
:10E96000CF91FF90EF90DF90CF9008950F931F937A
:10E97000CF93DF93EC018B018CE890EEA6DFCE0104
:10E98000A4DFC801DF91CF911F910F919ECF20E5A9
:10E990002CBD2C98292F33272EBD0DB407FEFDCF9B
:10E9A0008EBD0DB407FEFDCF1EBC0DB407FEFDCF1E
:10E9B00081E08EBD0DB407FEFDCF1EBC0DB407FE79
:10E9C000FDCF2C9A8EB51CBC08950F931F93CF9347
:10E9D000DF93EC01162FDBDF082F612FCE010196AC
:10E9E000D6DF202F30E0322F2227A901482BCA0181
:10E9F000DF91CF911F910F91089520E52CBD2C98A8
:10EA0000292F33272EBD0DB407FEFDCF8EBD0DB4CB
:10EA100007FEFDCF80E88EBD0DB407FEFDCF81E07F
:10EA20008EBD0DB407FEFDCF4EBD0DB407FEFDCF6C
:10EA30002C9A1CBC08950F931F93CF93DF938C01E6
:10EA4000EB014D2F55276CE6D8DF4C2F6CE6C80143
:10EA50000196DF91CF911F910F91CFCFCF93DF938D
:10EA6000EC0169EF70EE85EB92EE80DFBE0180E095
:10EA700090E044E04EDF40E16CE681E093E4BDDFEE
:10EA800068E681E093E483DF8111FACF4FEF6CE613
:10EA900082E093E4B2DF42E06CE680E093E4ADDF35
:10EAA000BE0184E093E4C7DF41E06CE681E093E4DB
:10EAB000A4DF68E681E093E46ADF8111FACF68E6BB
:10EAC00083E093E464DF823229F040E16CE681E088
:10EAD00093E493DF68E683E093E459DF8232B1F692
:10EAE000DF91CF91089588E10FB6F894809360008C
:10EAF000109260000FBEEE27FF270994CF9385E4A4
:10EB000090E0ACDF87E190E012D38B3B91F489E198
:10EB100090E00DD3C82F88E190E009D32C2F30E08E
:10EB2000322F2227280F311D30931D0120931C0105
:10EB300006C089E797EB90931D0180931C016AE161
:10EB400071EE85EB92EE12DF6EE071EE85EB92EEE8
:10EB50000DDF60911C0170911D0180E090E044E0A8
:10EB6000CF91D7CE0F931F93CF93DF9383E090E0A5
:10EB7000DED28535A9F484E090E0D9D28A3A81F4D6
:10EB800001E011E0C5E0D0E0CE01D1D2F8018193DF
:10EB90008F012196C731D105B9F762EE70EE02C040
:10EBA00060ED70EE82EF90EEE1DE65EC70EE82EFEC
:10EBB00090EEDCDECFE0D1E01FE0699170E080E014
:10EBC00090E042E0A6DE123111F08EE264DE1F5FBB
:10EBD000133199F76AEB70EE82EF90EEC7DEC5E075
:10EBE000D1E015E0699170E080E090E042E091DED4
:10EBF000183011F08EE24FDE1F5F193099F76FEA7F
:10EC000070EE82EF90EEB2DEC1E0D1E001E06991FA
:10EC100070E080E090E042E07CDE043011F08EE2B3
:10EC20003ADE0F5F053099F764EA70EE82EF90EEFE
:10EC30009DDEC9E0D1E0699170E080E090E042E0C3
:10EC400068DE1E3011F08EE226DE1F5F1F3099F75E
:10EC500000E011E0C0E0D0E0F80141918F0160E0F8
:10EC6000CE01CBDE2196CA31D105B1F7CFE1D0E498
:10EC700042E060E0CE01C1DE42E060E0CE010197FB
:10EC8000BCDED395CF31F8E4DF0791F762E970EE8F
:10EC900082EF90EEDF91CF911F910F9167CE3F925F
:10ECA0004F925F926F927F928F929F92AF92BF929C
:10ECB000CF92DF92EF92FF920F931F93CF93DF9348
:10ECC000CDB7DEB7CC50D240DEBFCDBF8C0164E7FC
:10ECD00072EE85EB92EE4ADEB80180E090E044E00F
:10ECE00018DE0115184028F06BE672EE85EB92EE07
:10ECF0003DDE68E688E293E468DE009711F480E088
:10ED000098ED8E010F5F1F4F6E01E3EFCE1AEDEF0E
:10ED1000DE0A0C151D0591F07C01FFEFEF1AFF0ACA
:10ED200060E035DEF80181938F01E114F0EEFF061B
:10ED300019F4E12C78EDF72EC701EBCFBC0188E286
:10ED400093E479DE40E46CE681E093E456DE68E625
:10ED500081E093E41CDE8111FACFCE0101967C01A3
:10ED60000CE013E4F70141917F016CE6C80145DE38
:10ED70000F5F1F4F0231F3E41F07A1F765E572EE45
:10ED800085EB92EEF3DDAF80B12CBA2CAA248885F6
:10ED9000A80EB11C098510E0102F00278A85080FE6
:10EDA000111DEB84F12CFE2CEE248C85E80EF11C59
:10EDB00066E472EE85EB92EED9DDB70180E090E07B
:10EDC00044E0A7DD88E392EE80DDB80180E090E0CA
:10EDD00044E09FDD86E292EE78DD650124E0C21A10
:10EDE000D1082601612C712C44E0C301B20191DDF0
:10EDF0000330110591F489EFE816F10460F4809175
:10EE00001E0190911F01E816F90628F001968E1553
:10EE10009F0508F046C000E010E095E0A91692E0DA
:10EE2000B90608F052C10330110509F440C058F585
:10EE30000130110599F10230110509F048C115DDC5
:10EE40006BE072EE85EB92EE91DD6FEF82E090E089
:10EE500076D100911C0110911D01C801FFDD6AEF00
:10EE600071EE85EB92EE82DDB80180E090E044E047
:10EE700050DD10921F0110921E011092210110927C
:10EE8000200112E034C10430110509F417C1053026
:10EE9000110509F01CC167E871EE12C169E172EE5B
:10EEA0000FC195E0A91692E0B90608F00EC1DDDCAD
:10EEB0006FEE71EE85EB92EE59DDF0922101E0925A
:10EEC0002001E1E0EE1AF1084701A12CB12C99E0F4
:10EED000880C991CAA1CBB1C9A95D1F7AA24BB24A8
:10EEE000EE0CEF2CEE1CFF08F194C701A0E0B0E09F
:10EEF000DC0199278827882A992AAA2ABB2A480C44
:10EF0000591C6A1C7B1CF1E04F16F0EF5F06F1E024
:10EF10006F06710438F061EE71EE85EB92EE26DD3E
:10EF200013E0E5C066EC71EE85EB92EE1FDD46E086
:10EF3000C501B401EEDCC11422E0D20610F414E0E5
:10EF400001C012E0CC2021F08FEFC81AD80AFACF06
:10EF50006BEA71EE85EB92EE09DDC601A0E0B0E050
:10EF600044E0BC01CD01D5DC81149104A104B104BD
:10EF700009F048C0FE013D9600E0F0809CE0F916E3
:10EF8000B9F065E671EE80E791EEF0DC602F70E09D
:10EF900080E090E044E0BDDC8EE591EE96DC6F2DE4
:10EFA00070E080E090E044E0B4DC8DE491EE1EC0BF
:10EFB000F18024E9F216E1F065E671EE80E791EE6A
:10EFC000D5DC602F70E06F5F7F4F882777FD8095DD
:10EFD000982F44E09EDC8EE591EE77DC6F2D70E09B
:10EFE00080E090E044E095DC8CE391EE6EDC0AC0BA
:10EFF0000C5F3496043309F0C0CF60E371EE80E714
:10F0000091EEB4DCDE011D9620E030E03324339431
:10F010002401350181E0581A6108710803E0F5E028
:10F02000FF2E81E1E82E2C153D0508F03BC0C501FF
:10F03000B401620F731F811D911DE1E0F0E0EC0F40
:10F04000FD1FE20FF31F458550E0542F4427EC913C
:10F050004E2B0A01FB0180935B0030925700E8952C
:10F0600011242E5F3F4F21111BC0B301A201420F9B
:10F07000531F611D711DFA0160935B0000935700DF
:10F08000E89507B600FCFDCFFA0160935B00F092B3
:10F090005700E89507B600FCFDCFE0925700E895D1
:10F0A0001296C1CF143019F569E971EE85EB92EE35
:10F0B0005DDC6EEE82E090E042D019C06DE871EE4A
:10F0C00085EB92EE53DC10E012C000E010E067E741
:10F0D00071EE85EB92EE4ADCB80180E090E044E00E
:10F0E00018DC80911C0190911D01B8DC11E0812F8A
:10F0F000C45FDD4FDEBFCDBFDF91CF911F910F9178
:10F10000FF90EF90DF90CF90BF90AF909F908F9047
:10F110007F906F905F904F903F900895FA01DC01CF
:10F1200002C005900D9221503040D8F70895F9990A
:10F13000FECF92BD81BDF89A992780B50895262FFC
:10F14000F999FECF1FBA92BD81BD20BD0FB6F894CC
:0EF15000FA9AF99A0FBE01960895F894FFCF2F
:10F15E0080C0A801FEFFFFFF00DEADBEEFFEEDC0DA
:0CF16E00A801800000000007D00800008D
:040000031000E00009
:00000001FF
