:107000004DC100008BC3000089C3000087C300008E
:1070100085C3000083C3000081C300007FC300005C
:107020007DC300007BC3000079C3000077C300006C
:1070300075C3000073C3000071C300006FC300007C
:107040006DC300006BC3000069C3000067C300008C
:1070500065C3000063C3000061C300005FC300009C
:107060005DC300005BC300000D0A003078004E6570
:1070700074776F726B20696E697420646F6E65003F
:1070800009202020204D41433A20000947617465C2
:107090007761793A200009205375626E65743A2051
:1070A0000009416464726573733A20004275696C2B
:1070B000742D696E2073657474696E67730045453D
:1070C00050524F4D2073657474696E677300204E83
:1070D00065743A2000496E697420736F636B657440
:1070E00020746F20706F72742000094461746150C5
:1070F0006F72743A2000544654502073657276655E
:107100007220696E697420646F6E6500496E7661E5
:107110006C6964206F70636F646520004572726FE4
:10712000720041636B6E6F776C6564676500466CD7
:10713000617368696E6720636F6D706C657465005C
:107140005061636B6574206C656E67746820616460
:107150006A757374656420746F200057726974696E
:107160006E6720646174612066726F6D2061646473
:10717000726573732000466C6173682069732066C2
:10718000756C6C004461746120626C6F636B0043CA
:1071900068616E67656420746F20706F7274200080
:1071A00057726974652072657175657374005265F4
:1071B000616420726571756573740020616E64206E
:1071C00064617461206C656E677468200020776963
:1071D0007468206F70636F64652000546869732061
:1071E000697320626C6F636B200053657420757047
:1071F0002072657475726E206164647265737300C9
:107200004F766572666C6F770050726F636573734B
:10721000696E67207061636B6574206F66207369A7
:107220007A652000526573706F6E73652073656EAA
:10723000740053656E742046696E616C2041434B47
:107240000053656E742041434B00546674703A20BD
:10725000000005000346756C6C00000500044F70CB
:10726000636F64653F00000500004572726F720035
:1072700041726961646E6520666F72204172647547
:10728000696E6F20556E6F2C2056657273696F6E34
:1072900020302E35004D61696E3A200011241FBE4A
:1072A000CFEFD8E0DEBFCDBF11E0A0E0B1E0E6E176
:1072B000FFE702C005900D92AC31B107D9F711E09C
:1072C000ACE1B1E001C01D92AB32B107E1F701D0F2
:1072D00020C6CDB7DEB7C150D140DEBFCDBF11242F
:1072E00084B714BE8D7031F082E090E0FCD58E3E04
:1072F00009F43CD329E288E190E00FB6F894A89510
:10730000809360000FBE209360002FEF83EC99E024
:10731000215080409040E1F700C0000084E080935D
:10732000810080E090E0DFD5882321F060E080E0FC
:1073300090E0E1D581E090E0D6D5843021F064E0A2
:1073400081E090E0D8D582E08093C00088E180930E
:10735000C10086E08093C20080E18093C40060E7B2
:1073600072E785E992E74ED28CE385B98CE284B965
:107370005C9A549A81E08DBD38D303D310922A01D0
:107380001092290144244394FE0131967F0133E099
:10739000532EC12CD12CF601A590B49080912A01D6
:1073A0008111A6C068E686E297E057D2892B09F4DE
:1073B0009FC04092290168E682E097E034D282FFC4
:1073C0000FC044E06CE682E097E05FD2FFEF27E871
:1073D00083E1F15020408040E1F700C00000EBCF96
:1073E00068E686E297E039D28DD3282E60E084E209
:1073F00097E033D28C01185A92E0291641F1921588
:1074000020F0E1E02E1699F007C0F3E02F16B9F056
:1074100024E0221609F477C14AE050E066E672E7FC
:10742000C70158D58AE04701382E3E0C41C04CE0D8
:1074300050E06AE572E7C7014DD58CE0F4CF49E032
:1074400050E061E572E7C70145D589E0ECCF809156
:1074500020019091210120911E0130911F012817D8
:10746000390720F490931F0180931E0161E472E7B5
:107470008AE492E7C7D1198284E08A83809120014F
:10748000909121019B838C8384E0CDCFF4014191C5
:107490004F013801FFEF6F1A7F0A64E7C801F5D189
:1074A000611420E6720619F4612C28E5722E83011E
:1074B0003810ECCFB801785584E297E0FFD140E274
:1074C0006CE681E097E0E1D168E681E097E0ABD13E
:1074D0008111FACF64E272E78AE492E793D184E003
:1074E000281206C040E16CE681E097E0CED10EC1E3
:1074F000809129018111C7C08091C00087FFC3C05E
:107500000ED140922A0115D18134B9F412D1CF5F46
:10751000DE4F8883C150D1401FD1CF5FDE4F8881BD
:10752000C150D140823811F484E003C0813819F48D
:1075300080E00BD1A6C083E0FCCF823411F484E15B
:1075400003C0853419F484E013D19BC0853569F4F8
:10755000F0D0182FEED0212F30E0382B220F331F20
:1075600030932401209323018BC0863519F484E0E5
:10757000FFD0DECF843609F054C0DBD0DAD0809360
:107580002201D7D00091230110912401011590E729
:10759000190710F0470105C0F80150925700E8950F
:1075A000F9CFC7D0F40181934F018091220181501E
:1075B000809322018111F5CF0115F0E71F0720F01C
:1075C000F80150925700E895C7D007B600FCFDCFF0
:1075D000980122583F4FF8018981A701401B510BA8
:1075E000DA01AE0FBF1F11966C91119790E0962BA8
:1075F0000C0140925700E8951124E217F30721F09F
:10760000329612968C91ECCF25E0F801209357002A
:10761000E89507B600FCFDCF81E180935700E8951F
:1076200030C08437D1F485D084D08093220181D0BA
:1076300093D0E0912301F0912401CF010196909322
:10764000240180932301849180D080912201815074
:10765000809322018111EDCF14C0853739F47CD09D
:107660008EE173D085E971D08FE063CF813541F42D
:1076700073D06EEE82E090E03ED480E166D046C0EA
:107680006BD080E162D08FEFA816B806C1F0809170
:107690002501909126010A9790F082E090E023D492
:1076A0008E3EA1F180912901813049F4F60150927A
:1076B0005700E8959AD165D132D010922901A8954A
:1076C000A895809184009091850094FF05C025B114
:1076D00030E2232725B901C02D9820912701309150
:1076E00028018217930750F420912501309126013B
:1076F0002F5F3F4F3093260120932501909328015F
:10770000809327014BCE62E372E7B2CE2FD180E0A7
:1077100090E0CF5FDE4FDEBFCDBF089571CC1092F9
:107720008500109284001092260110922501A895E0
:1077300008958091C00087FFFCCF8091C00084FD38
:1077400001C0A8958091C60008959091C00095FF52
:10775000FCCF8093C6000895ECDF803239F088E1D9
:107760008093600088E080936000FFCF84E1EDCFDC
:10777000CF93C82FDEDFC150E9F7CF91EDCF0F9344
:107780001F93CF93DF93EC0100E0FE01E00FF11DAA
:107790001491112311F0812FD8DF0F5F1111F5CF54
:1077A000DF91CF911F910F910895CF92DF92EF92C9
:1077B000FF92CF936B017C01C42F8BE690E7DFDF54
:1077C000CC23D1F08C2F90E00197880F991F880F60
:1077D000991FA701960104C056954795379527959F
:1077E0008A95D2F7DA01C9018F708A3008F0895F73
:1077F000805DABDFC150E4CFCF91FF90EF90DF9081
:10780000CF9008950F931F93CF93DF93EC018B01DB
:1078100088E690E7B4DFCE01B2DFC801DF91CF91F7
:107820001F910F91ACCF20E52CBD2A982FE02EBDE3
:107830000DB407FEFDCF292F33272EBD0DB407FE53
:10784000FDCF8EBD0DB407FEFDCF1EBC0DB407FEEF
:10785000FDCF2A9A8EB51CBC08950F931F93CF932A
:10786000DF93EC01162FDFDF082F612FCE01019689
:10787000DADF202F30E0322F2227A901482BCA015E
:10788000DF91CF911F910F91089520E52CBD2A988B
:1078900020EF2EBD0DB407FEFDCF292F33272EBDBF
:1078A0000DB407FEFDCF8EBD0DB407FEFDCF4EBD5E
:1078B0000DB407FEFDCF2A9A1CBC08950F931F93A9
:1078C000CF93DF938C01EB014D2F55276CE6DDDF65
:1078D0004C2F6CE6C8010196DF91CF911F910F915B
:1078E000D4CFCF93DF93EC0165ED70E78AE492E7A4
:1078F00089DFBE0180E090E044E057DF40E16CE6C4
:1079000081E097E0C2DF68E681E097E08CDF8111DB
:10791000FACF4FEF6CE682E097E0B7DF42E06CE62B
:1079200080E097E0B2DFBE0184E097E0C7DF41E08E
:107930006CE681E097E0A9DF68E681E097E073DF1D
:107940008111FACF68E683E097E06DDF823229F09B
:1079500040E16CE681E097E098DF68E683E097E03D
:1079600062DF8232B1F6DF91CF91089588E10FB6E0
:10797000F89480936000109260000FBEEE27FF27FE
:107980000994CF9385E490E0ACDF87E190E0ABD23F
:107990008B3B91F489E190E0A6D2C82F88E190E07A
:1079A000A2D22C2F30E0322F2227280F311D309306
:1079B0001D0120931C0106C089E797EB90931D01E0
:1079C00080931C0166EF70E78AE492E71BDF6AEEA2
:1079D00070E78AE492E716DF60911C0170911D0147
:1079E00080E090E044E0CF91E0CE0F931F93CF93DF
:1079F000DF9383E090E077D28535A9F484E090E0CE
:107A000072D28A3A81F401E011E0C5E0D0E0CE0103
:107A10006AD2F80181938F012196C731D105B9F758
:107A20006EEB70E702C06CEA70E78EEC90E7EADE7E
:107A300061EA70E78EEC90E7E5DECFE0D1E01FE091
:107A4000699170E080E090E042E0AFDE123111F029
:107A50008EE27BDE1F5F133199F766E970E78EECEB
:107A600090E7D0DEC5E0D1E015E0699170E080E0FC
:107A700090E042E09ADE183011F08EE266DE1F5F81
:107A8000193099F76BE870E78EEC90E7BBDEC1E048
:107A9000D1E001E0699170E080E090E042E085DEB5
:107AA000043011F08EE251DE0F5F053099F760E887
:107AB00070E78EEC90E7A6DEC9E0D1E0699170E056
:107AC00080E090E042E071DE1E3011F08EE23DDE9B
:107AD0001F5F1F3099F700E011E0C0E0D0E0F8012F
:107AE00041918F0160E0CE01D0DE2196CC31D105ED
:107AF000B1F76EE670E78EEC90E7DF91CF911F91C2
:107B00000F9180CEAF92BF92CF92DF92EF92FF9211
:107B10000F931F93CF93DF93CDB7DEB7CD50D240F5
:107B2000DEBFCDBF8C0169E072E78AE492E76ADECE
:107B3000B80180E090E044E038DE0115184028F0FC
:107B400060E072E78AE492E75DDE68E688E297E04B
:107B500084DE009711F480E098E76E01E3EFCE1A1F
:107B6000EDEFDE0A8E010F5F1F4F0C151D0591F022
:107B70007C01FFEFEF1AFF0A60E055DEF801819308
:107B80008F01E114F0E8FF0619F4E12C88E7F82EE4
:107B9000C701EBCFBC0188E297E090DE40E46CE6E1
:107BA00081E097E072DE68E681E097E03CDE8111DB
:107BB000FACFCE0101967C010CE017E0F70141916C
:107BC0007F016CE6C80161DE0F5F1F4F0231F7E0F5
:107BD0001F07A1F76AEE71E78AE492E713DEAF8030
:107BE000B12CBA2CAA248885A80EB11CC984D12C2A
:107BF000DC2CCC248A85C80ED11CEB84F12CFE2C05
:107C0000EE248C85E80EF11C6BED71E78AE492E7B7
:107C1000F9DDB70180E090E044E0C7DD8DEC91E74D
:107C2000AEDDB60180E090E044E0BFDD8BEB91E794
:107C3000A6DD850104501109B80180E090E044E020
:107C4000B4DD23E0C216D10491F489E3E816F1040F
:107C500060F480911E0190911F01E816F90628F04A
:107C600001968E159F0508F04BC0C12CD12C95E0D4
:107C7000A91692E0B90608F009C1E3E0CE16D104D6
:107C800009F444C068F521E0C216D104B1F182E0E4
:107C9000C816D10409F0FCC042DD60EA71E78AE44D
:107CA00092E7B0DD6FEF82E090E025D100911C01FA
:107CB00010911D01C80115DE6FE871E78AE492E7B3
:107CC000A1DDB80180E090E044E06FDD10921F017B
:107CD00010921E01109221011092200152E0EAC080
:107CE00094E0C916D10409F4CAC0E5E0CE16D10467
:107CF00009F0CEC06CE171E7C4C06EEA71E7C1C0A3
:107D000025E0A21622E0B20608F0C0C008DD64E853
:107D100071E78AE492E776DDF0922101E09220019A
:107D2000F1E0EF1AF108FE2CEE24FF0CC701800FE2
:107D3000911F8130904738F066E771E78AE492E757
:107D400061DD53E0B7C06BE571E78AE492E75ADD85
:107D5000C701A0E0B0E046E0BC01CD0126DD011581
:107D600082E0180710F454E001C052E0C8018F7798
:107D70009927892B19F00F5F1F4FF8CF60E471E747
:107D80008AE492E7C35FDD4F5883CD50D2403ADD9D
:107D9000C801A0E0B0E044E0BC01CD0106DDC35F56
:107DA000DD4F5881CD50D240E114F10451F0DE0195
:107DB0001D9620E030E041E063E075E0F1E1DF2E68
:107DC00044C0FE013D9681E090E08C0F9D1F805CD9
:107DD0009F4F20812C3009F06CC02181243909F09B
:107DE00068C03496E817F907A1F7E1CFE1E0F0E0C9
:107DF000EC0FFD1FE20FF31F858590E0982F882779
:107E0000EC918E2BF7010C0140935700E89511245B
:107E10002E5F3F4FC9018F779927892B91F4F70186
:107E2000EE57F10960935700E89507B600FCFDCFC7
:107E300070935700E89507B600FCFDCFD09257002D
:107E4000E8951296F2E0EF0EF11C2017310708F4C6
:107E5000CDCF543079F56EE271E78AE492E7C35FE3
:107E6000DD4F5883CD50D240CDDC6EEE82E090E005
:107E700042D0C35FDD4F5881CD50D2401BC062E27B
:107E800071E78AE492E7BEDC50E014C0C12CD12C2B
:107E90006CE071E78AE492E7B5DCB60180E090E03F
:107EA00044E083DC80911C0190911D011ADD51E0BA
:107EB00001C055E0852FC35FDD4FDEBFCDBFDF9131
:107EC000CF911F910F91FF90EF90DF90CF90BF90D7
:107ED000AF900895FB01DC0102C005900D92415066
:107EE0005040D8F70895F999FECF92BD81BDF89A18
:107EF000992780B50895262FF999FECF1FBA92BD14
:107F000081BD20BD0FB6F894FA9AF99A0FBE01967A
:067F10000895F894FFCF74
:107F160080C0A801FEFFFFFF00DEADBEEFFEEDC094
:0C7F2600A801800000000007D080555525
:040000030000700089
:00000001FF
