:020000023000CC
:10E000008EC100005BC3000059C3000057C300006D
:10E0100055C3000053C3000051C300004FC30000AC
:10E020004DC300004BC3000049C3000047C30000BC
:10E0300045C3000043C3000041C300003FC30000CC
:10E040003DC300003BC3000039C3000037C30000DC
:10E0500035C3000033C3000031C300002FC30000EC
:10E060002DC300002BC3000029C3000027C30000FC
:10E0700025C3000023C3000021C300001FC300000C
:10E080001DC300001BC3000019C3000017C300001C
:10E0900015C3000013C3000011C300000FC300002C
:10E0A0000DC300000BC3000009C3000007C300003C
:10E0B00005C3000003C3000001C30000FFC200004D
:10E0C000FDC20000FBC20000F9C20000F7C2000060
:10E0D000F5C20000F3C20000F1C20000EFC2000070
:10E0E000EDC200000D0A003078004E6574776F7243
:10E0F0006B20696E697420646F6E650009202020B2
:10E10000204D41433A200009476174657761793AAF
:10E11000200009205375626E65743A20000941643D
:10E1200064726573733A20004275696C742D696E70
:10E130002073657474696E677300454550524F4D86
:10E140002073657474696E677300204E65743A209D
:10E1500000496E697420736F636B657420746F205F
:10E16000706F727420000944617461506F72743A68
:10E170002000544654502073657276657220696E93
:10E18000697420646F6E6500496E76616C69642005
:10E190006F70636F646520004572726F7200416337
:10E1A0006B6E6F776C6564676500466C6173686958
:10E1B0006E6720636F6D706C657465005061636B92
:10E1C0006574206C656E6774682061646A75737429
:10E1D000656420746F200057726974696E672064EB
:10E1E0006174612066726F6D20616464726573731F
:10E1F0002000466C6173682069732066756C6C0042
:10E200004461746120626C6F636B004368616E6788
:10E21000656420746F20706F727420005772697487
:10E220006520726571756573740052656164207252
:10E230006571756573740020616E6420646174613A
:10E24000206C656E67746820002077697468206FA1
:10E2500070636F646520005468697320697320627D
:10E260006C6F636B20005365742075702072657449
:10E2700075726E2061646472657373004F766572A7
:10E28000666C6F770050726F63657373696E672099
:10E290007061636B6574206F662073697A65200016
:10E2A000526573706F6E73652073656E740053658D
:10E2B0006E742046696E616C2041434B0053656E5D
:10E2C000742041434B00546674703A2000000500EE
:10E2D0000346756C6C00000500044F70636F646545
:10E2E0003F00000500004572726F72004172696163
:10E2F000646E6520666F722041726475696E6F206E
:10E300004D656761323536302C2056657273696F02
:10E310006E20302E35004D61696E3A2000001124C8
:10E320001FBECFEFD1E2DEBFCDBF01E00CBF12E0D8
:10E33000A0E0B2E0E8E3F4EF03E00BBF02C0079017
:10E340000D92A032B107D9F712E0A0E2B2E001C00D
:10E350001D92AC32B107E1F702D00D941AFACDB795
:10E36000DEB7CD56D109DEBFCDBF112484B714BEB0
:10E370008D7039F082E090E00F9404FA8E3E09F43B
:10E38000B0D229E288E190E00FB6F894A895809386
:10E3900060000FBE209360002FEF33EC49E0215066
:10E3A00030404040E1F700C0000084E080938100ED
:10E3B00080E090E00F9404FA882329F060E080E088
:10E3C00090E00F940CFA81E090E00F9404FA84300E
:10E3D00029F064E081E090E00F940CFA82E08093F1
:10E3E000C00088E18093C10086E08093C20080E194
:10E3F0008093C4006CEE72EE86E193EEC2D18FE0A2
:10E4000085B987E084B92C9A249AA59A9D9A2F9A67
:10E41000279A81E08DBDA4D26FD210922B02109268
:10E420002A02CE0101961C0182EE92EE2C01612C93
:10E43000712C93E0690E711C8DEC92EE6C01E12C55
:10E44000F12CA3E0EA0EF11C86ED92EE4C01A12C1A
:10E45000B12CB3E0AB0EB11C20E030E0A9014BBF02
:10E46000F90147915691AC965FAF4EAFAC97809152
:10E470002B028111BFC086E290E0ADD1892B09F457
:10E48000B9C081E080932A0268E682E090E08AD1F8
:10E4900082FF0FC044E06CE682E090E0B2D15FEF13
:10E4A00087E893E1515080409040E1F700C00000C0
:10E4B000EBCF86E290E08FD1F3D2A6968FAFA697EE
:10E4C00084E290E088D1A8969FAF8EAFA897A696D9
:10E4D000AFADA697A23089F118F4A13089F008C039
:10E4E000A696BFADA697B33099F0B43009F4DBC05F
:10E4F0002AE030E0B301A201C1017DD72AE00FC0BC
:10E500002CE030E0B501A401C10175D72CE007C0B3
:10E5100029E030E0B701A601C1016DD729E08101F2
:10E52000A896EEADFFADA897E219F309AA96FFAF42
:10E53000EEAFAA97322F320D1FC080912402909126
:10E54000250220912202309123022817390720F456
:10E5500090932302809322026DEB72EE86EC92EE92
:10E5600010D1198284E08A8380912402909125023F
:10E570009B838C8324E0D3CFAA968EAD9FADAA97C0
:10E58000800F911F301791F0D8014D918D0164E7F4
:10E59000AD962FAFAD97AE963FAFAE9732D1AE9658
:10E5A0003FADAE97AD962FADAD97E6CFA8966EADC9
:10E5B0007FADA897620F711D84E290E03AD140E2EE
:10E5C0006CE681E090E01DD168E681E090E0EAD061
:10E5D0008111FACF60EA72EE86EC92EED2D0A69666
:10E5E000BFADA697B43031F440E16CE681E090E035
:10E5F00008D15CC080912A02882339F0AC96EEAD38
:10E60000FFADAC97319669F42BC08091C00087FFB5
:10E61000F5CF55D081E080932B0233D48111EECF1A
:10E6200045C080912602909127020A97C8F082E0A7
:10E6300090E0EAD68E3E09F439C080912A028130FA
:10E6400079F483E020E030E0A901F90140935B0018
:10E6500080935700E89584D14FD131D010922A028F
:10E66000A895A895809184009091850094FF04C09E
:10E6700025B1205825B901C02F982091280230914A
:10E6800029028217930750F4209126023091270225
:10E690002F5F3F4F30932702209326029093290249
:10E6A00080932802E4CE6EEA72EE58CF1AD180E051
:10E6B00090E0C359DF4FDEBFCDBF0895A1CC1092CB
:10E6C0008500109284001092270210922602A895CD
:10E6D00008959091C00095FFFCCF8093C6000895E7
:10E6E000CF92DF92EF92FF92CF93DF93D0E06C0155
:10E6F000E12CF12C83E0E80EF11CD701C6018D0F4F
:10E70000911DA11DB11DABBFFC01C791CC2311F020
:10E710008C2FDFDFDF5FC111F0CFDF91CF91FF9052
:10E72000EF90DF90CF900895CF92DF92EF92FF921B
:10E73000CF936B017C01C42F87EE90EED1DFCC2309
:10E74000D1F08C2F90E00197880F991F880F991FA7
:10E75000A701960104C056954795379527958A9548
:10E76000D2F7DA01C9018F708A3008F0895F805DC5
:10E77000B0DFC150E4CFCF91FF90EF90DF90CF900A
:10E7800008950F931F93CF93DF93EC018B0184EED9
:10E7900090EEA6DFCE01A4DFC801DF91CF911F91DB
:10E7A0000F919ECF20E52CBD2C98292F33272EBD0D
:10E7B0000DB407FEFDCF8EBD0DB407FEFDCF6EBDBF
:10E7C0000DB407FEFDCF1EBC0DB407FEFDCF2C9A85
:10E7D0008EB51CBC08951F93CF93DF93EC0168E6C0
:10E7E000E1DF182F68E6CE010196DCDF212F30E053
:10E7F000322F2227A901482BCA01DF91CF911F9107
:10E80000089520E52CBD2C98292F33272EBD0DB45B
:10E8100007FEFDCF8EBD0DB407FEFDCF6EBD0DB45E
:10E8200007FEFDCF4EBD0DB407FEFDCF2C9A1CBCDC
:10E8300008950F931F93CF93DF938C01EB014D2F1E
:10E8400055276CE6DEDF4C2F6CE6C8010196DF91A0
:10E85000CF911F910F91D5CFCF93DF93EC0161E55D
:10E8600071EE86EC92EE8DDFBE0180E090E044E038
:10E870005BDF40E16CE681E090E0C3DF68E681E0C9
:10E8800090E090DF8111FACF4FEF6CE682E090E0EC
:10E89000B8DF42E06CE680E090E0B3DFBE0184E0E8
:10E8A00090E0C7DF41E06CE681E090E0AADF68E637
:10E8B00081E090E077DF8111FACF68E683E090E0B5
:10E8C00071DF823229F040E16CE681E090E099DF6F
:10E8D00068E683E090E066DF8232B1F6DF91CF91A7
:10E8E000089588E10FB6F89480936000109260005C
:10E8F0000FBEEE27FF270994CF9385E490E0ACDFAD
:10E9000087E190E081D58B3B91F489E190E07CD563
:10E91000C82F88E190E078D52C2F30E0322F2227C5
:10E92000280F311D309321022093200206C089E771
:10E9300097EB909321028093200262E771EE86ECC0
:10E9400092EE1FDF66E671EE86EC92EE1ADF6091C2
:10E9500020027091210280E090E044E0CF91E4CE6B
:10E960000F931F93CF93DF9383E090E04DD58535D0
:10E97000A9F484E090E048D58A3A81F401E012E0FD
:10E98000C5E0D0E0CE0140D5F80181938F012196FA
:10E99000C731D105B9F76AE371EE02C068E271EEE2
:10E9A0008AE491EEEEDE6DE171EE8AE491EEE9DE4D
:10E9B000CFE0D2E01FE0699170E080E090E042E0BB
:10E9C000B3DE123111F08EE284DE1F5F133199F74E
:10E9D00062E171EE8AE491EED4DEC5E0D2E015E0AA
:10E9E000699170E080E090E042E09EDE183011F026
:10E9F0008EE26FDE1F5F193099F767E071EE8AE4EF
:10EA000091EEBFDEC1E0D2E001E0699170E080E00C
:10EA100090E042E089DE043011F08EE25ADE0F5FB2
:10EA2000053099F76CEF70EE8AE491EEAADEC9E04A
:10EA3000D2E0699170E080E090E042E075DE1E3047
:10EA400011F08EE246DE1F5F1F3099F700E012E002
:10EA5000C0E0D0E0F80141918F0164E0CE01D1DE49
:10EA60002196CC31D105B1F7C0E0DC2FD295DD0F76
:10EA7000D07ED45F42E06D2F8EE190E0C2DE42E0B6
:10EA80006D2F8FE190E0BDDECF5FC83071F76AEE89
:10EA900070EE8AE491EEDF91CF911F910F9171CECC
:10EAA0003F924F925F926F927F928F929F92AF921E
:10EAB000BF92CF92DF92EF92FF920F931F93CF936B
:10EAC000DF93CDB7DEB7CE50D240DEBFCDBF8C01D5
:10EAD00065E872EE86EC92EE54DEB80180E090E0DC
:10EAE00044E022DE0115184028F06CE772EE86EC57
:10EAF00092EE47DE88E290E06EDE7C01FE01319608
:10EB0000C35FDD4FF983E883CD50D2406E01F3EF50
:10EB1000CF1AFDEFDF0A8E010F5F1F4F5C01A01AB5
:10EB2000B10AC501800F911F0C151D0531F068E772
:10EB300039DEF80181938F01F4CFB701645F7D4F17
:10EB400088E290E076DE40E46CE681E090E059DE19
:10EB500068E681E090E026DE8111FACFCE010196D1
:10EB60007C010CE010E0F70141917F016CE6C801E7
:10EB700048DE0F5F1F4F02311105A9F766E672EEFE
:10EB800086EC92EEFEDDAF80B12CBA2CAA248885EB
:10EB9000A80EB11C098510E0102F00278A85080FE8
:10EBA000111DEB84F12CFE2CEE248C85E80EF11C5B
:10EBB00067E572EE86EC92EEE4DDB70180E090E06E
:10EBC00044E0B2DD89E492EE8BDDB80180E090E0B4
:10EBD00044E0AADD87E392EE83DD6501F4E0CF1A1D
:10EBE000D1082601612C712C44E0C301B2019CDDE7
:10EBF0000330110599F489EFE81681E0F80660F416
:10EC00008091220290912302E816F90628F00196DD
:10EC10008E159F0508F046C000E010E095E0A916AB
:10EC200092E0B90608F004C10330110509F440C0B0
:10EC300058F50130110599F10230110509F0FAC0BB
:10EC40003EDD6CE172EE86EC92EE9BDD6FEF82E0D2
:10EC500090E0E2D30091200210912102C801FCDD76
:10EC60006BE072EE86EC92EE8CDDB80180E090E015
:10EC700044E05ADD109223021092220210922502E3
:10EC80001092240212E0E6C00430110509F4C9C054
:10EC90000530110509F0CEC068E971EEC4C06AE222
:10ECA00072EEC1C0F5E0AF16F2E0BF0608F0C0C0DA
:10ECB00006DD60E072EE86EC92EE63DDF0922502F6
:10ECC000E0922402E1E0EE1AF1084701A12CB12CF8
:10ECD00099E0880C991CAA1CBB1C9A95D1F7AA2410
:10ECE000BB24EE0CEF2CEE1CFF08F194C701A0E052
:10ECF000B0E0DC0199278827882A992AAA2ABB2A0A
:10ED0000480C591C6A1C7B1CF1E04F16F0EF5F06A3
:10ED1000F3E06F06710438F062EF71EE86EC92EE6C
:10ED200030DD13E097C067ED71EE86EC92EE29DDE1
:10ED300046E0C501B401F8DCC11482E0D80610F445
:10ED400014E001C012E0CC2021F09FEFC91AD90ACB
:10ED5000FACF6CEB71EE86EC92EE13DDC601A0E00B
:10ED6000B0E044E0BC01CD01DFDCDE011D9620E017
:10ED700030E03324339424013501E1E05E1A610868
:10ED8000710803E0F5E0FF2E81E1E82E2C153D052A
:10ED900008F03BC0C501B401620F731F811D911DB6
:10EDA000E1E0F0E0EC0FFD1FE20FF31F458550E0BE
:10EDB000542F4427EC914E2B0A01FB0180935B00FA
:10EDC00030925700E89511242E5F3F4F21111BC050
:10EDD000B301A201420F531F611D711DFA0160931F
:10EDE0005B0000935700E89507B600FCFDCFFA01E1
:10EDF00060935B00F0925700E89507B600FCFDCFEA
:10EE0000E0925700E8951296C1CF143019F56AEADE
:10EE100071EE86EC92EEB5DC6EEE82E090E0FCD214
:10EE200019C06EE971EE86EC92EEABDC10E012C018
:10EE300000E010E068E871EE86EC92EEA2DCB8012A
:10EE400080E090E044E070DC80912002909121020B
:10EE500003DD11E0812FC25FDD4FDEBFCDBFDF914B
:10EE6000CF911F910F91FF90EF90DF90CF90BF90C7
:10EE7000AF909F908F907F906F905F904F903F905A
:10EE800008952F923F924F925F926F927F928F924E
:10EE90009F92AF92BF92CF92DF92EF92FF920F9329
:10EEA0001F93CF93DF93CDB7DEB7C552D140DEBFFE
:10EEB000CDBF312C212CCC5DDE4F19821882C4527B
:10EEC000D140412C512C3201C12CD12C760180E053
:10EED00020E030E09091C00097FFFCCF9091C000FF
:10EEE00094FD01C0A8959091C6008330F1F020F404
:10EEF000813081F040F012C0853031F1D0F08630A1
:10EF000009F442C0E7CF9B3109F04BC04BE1242EFE
:10EF100081E0E0CF2926392E82E0DCCF292F30E0B6
:10EF2000322F2227292683E0D5CF292B292684E0DA
:10EF3000D1CF9E30A1F52926CC5DDE4F19821882F3
:10EF4000C452D14085E0C6CFCC5DDE4F48815981A7
:10EF5000C452D1404F5F5F4FE1E0F0E0EC0FFD1F86
:10EF6000CC5DDE4F88809980C452D140E80DF91DF8
:10EF7000908329264217530751F0CC5DDE4F598309
:10EF80004883C452D140A6CF921109C00DC0CC5DB8
:10EF9000DE4F39832883C452D14086E09BCF80E086
:10EFA00099CF873009F096CF2981233109F4DDC04C
:10EFB00058F5263009F4C6C0F8F42230E9F12330C0
:10EFC00009F467C0213009F0A6C11A8288E08B835A
:10EFD00081E48C8386E58D8382E58E8389E48F834B
:10EFE00083E5888780E589878FE58A8782E38B8739
:10EFF00090E00BE010E094C1213109F457C008F013
:10F0000098C02031C9F087C1283109F46AC048F49A
:10F01000253109F4AAC008F429C1263109F426C112
:10F020007AC12A3109F450C008F471C02B3109F4B7
:10F0300040C02D3119F06FC190E039C08D8180330F
:10F0400039F49F819923B1F09130B1F498E917C058
:10F05000982F907599F0803521F499E0E0E0F0E088
:10F0600005C0883559F4E3E0F0E099E0909357004B
:10F07000949105C09EE103C091E001C090E01A8226
:10F080001B828C831D829E831F8290E007E010E02C
:10F0900047C1EA81E059E33028F4F0E0E45EFD4F37
:10F0A000808101C080E01A828B833FC091E01A8288
:10F0B00035C18D81882321F0813021F488E924C075
:10F0C0008EE122C081E020C01A82E1E0F0E089E018
:10F0D00080935700E491EB831C8290E004E010E001
:10F0E0001FC18B81803551F48C81883019F4E2E0A6
:10F0F000F0E006C089E0E0E0F0E003C0E3E0F0E02B
:10F1000089E08093570084911A828B83E5CF8D81AB
:10F11000836C99E0E1E0F0E0082E90935700E895C9
:10F1200007B600FCFDCF1A821B8290E003E010E0DE
:10F13000F7C080EC8A8390E002E010E0412C512C73
:10F140003201EEC08A81CB80D12CE12CF12C7601EA
:10F15000DD24CC24F82A8D81C82A8C81D82ACC0CB5
:10F16000DD1CEE1CFF1C1A82D8C08A8190E0982F0B
:10F1700088273B81832B233109F045C04114F0ECF3
:10F180005F06F3E06F06710470F423E0F201609211
:10F190005B0020935700E89507B600FCFDCF0FEF0A
:10F1A000501A600A700A9B8497018601AE01455F80
:10F1B0005F4F61E0DA011296AD01FD013197708178
:10F1C000892C912C972A0401F80120935B0060930D
:10F1D0005700E89511240E5F1F4F2F4F3F4F0297A6
:10F1E000009711F09C90E6CF65E0F601E0925B009D
:10F1F00060935700E89507B600FCFDCF81E180934E
:10F200005700E8952FC0FE013B965C01B701A601AF
:10F2100041BD052F162F272F3327C25EDE4F0883EF
:10F2200019832A833B83CE51D14002BD4F5F5F4F8C
:10F230006F4F7F4FA191A0BDFA9AF99AF999FECF2D
:10F2400011E0A11AB108A114B10411F701978C01C2
:10F2500020E030E00F5F1F4F2F4F3F4F0C0D1D1D63
:10F260002E1D3F1D1A826801790157C08A8190E0E6
:10F27000982F88273B81832B8C010D5F1F4F1A82AB
:10F280002431A1F4DE011396EBBEF60127913691ED
:10F290002C931296FD013197308322E0C20ED11CCF
:10F2A000E11CF11C0297009779F732C0FE013396FA
:10F2B0009C01B701A60141BD852E962EA72EBB2429
:10F2C000C25EDE4F88829982AA82BB82CE51D14033
:10F2D00082BC4F5F5F4F6F4F7F4FF89AA0B5A193ED
:10F2E000215031092115310531F7AC014150510947
:10F2F00060E070E04F5F5F4F6F4F7F4FC40ED51ED1
:10F30000E61EF71EA3E0B0E0AC0FBD1FA80FB91FAB
:10F310001C9290E005C080EC8A8390E002E010E04F
:10F320008BE1CD5DDE4F9883C352D140D2D9832D7E
:10F33000D0D9812E9924882DCCD9802FCAD98EE09E
:10F34000C8D9E5E12E2E2324202628249E012F5FF4
:10F350003F4F4901020F131FCD5DDE4F9881C3520D
:10F36000D14080169106B1F0F40121914F01822F16
:10F37000CE5DDE4F2883C252D140CD5DDE4F9883F3
:10F38000C352D140A6D9CE5DDE4F2881C252D140B2
:10F390002226E2CF822DCD5DDE4F9883C352D1402D
:10F3A00098D93394CD5DDE4F9881C352D1409923D3
:10F3B00009F48DCD000081E180935700E8956EEE51
:10F3C00082E090E029D080E0CB5DDE4FDEBFCDBF94
:10F3D000DF91CF911F910F91FF90EF90DF90CF9031
:10F3E000BF90AF909F908F907F906F905F904F9065
:10F3F0003F902F900895FA01DC0102C005900D9214
:10F4000021503040D8F70895F999FECF92BD81BDC3
:10F41000F89A992780B50895262FF999FECF1FBA3B
:10F4200092BD81BD20BD0FB6F894FA9AF99A0FBE2D
:08F4300001960895F894FFCF46
:10F4380080C0A801FEFFFFFF00DEADBEEFFEEDC0FD
:10F44800A8018000000000000007D0080F020A0091
:040000033000E000E9
:00000001FF
