:020000021000EC
:10E0000055C00000EBC20000E9C20000E7C20000FA
:10E01000E5C20000E3C20000E1C20000DFC2000070
:10E02000DDC20000DBC20000D9C20000D7C2000080
:10E03000D5C20000D3C20000D1C20000CFC2000090
:10E04000CDC20000CBC20000C9C20000C7C20000A0
:10E05000C5C20000C3C20000C1C20000BFC20000B0
:10E06000BDC20000BBC20000B9C20000B7C20000C0
:10E07000B5C20000B3C20000B1C20000AFC20000D0
:10E08000ADC20000ABC20000A9C200000005000341
:10E0900046756C6C00000500044F70636F64653F4B
:10E0A00000000500004572726F72000011241FBE4F
:10E0B000CFEFD0E4DEBFCDBF11E0A0E0B1E0E4E5FA
:10E0C000FBEE01E00BBF02C007900D92AC31B1072F
:10E0D000D9F711E0ACE1B1E001C01D92AB32B1075C
:10E0E000E1F701D035C5CDB7DEB7C950D140DEBFAD
:10E0F000CDBF112484B714BE8D7031F082E090E062
:10E1000011D58E3E09F430D329E288E190E00FB6B4
:10E11000F894A895809360000FBE209360002FEFC5
:10E1200033EC49E0215030404040E1F700C00000AE
:10E1300084E08093810080E090E0F4D4882321F093
:10E1400060E080E090E0F6D481E090E0EBD48430B1
:10E1500021F064E081E090E0EDD482E08093C000A3
:10E1600088E18093C10086E08093C20080E18093C3
:10E17000C40080EF85B980EB84B9479A3F9A81E06B
:10E180008DBD20D3FCD210922A01109229018E015C
:10E190000F5F1F4F81EA90EE9C0140E050E04F5F1F
:10E1A0005F4FCE5FDE4F288339834A835B83C25043
:10E1B000D1408CE890EE2C01612C712C3FEF631A5A
:10E1C000730A85E990EE6C01E12CF12C4FEFE41A13
:10E1D000F40A80E090E0DC01ABBFFC0127903690B0
:10E1E00080912A018111C2C086E290E041D2892B40
:10E1F00009F4BCC081E08093290168E682E090E0E8
:10E200001ED282FF0FC044E06CE682E090E046D26E
:10E210009FEFA7E8B3E19150A040B040E1F700C004
:10E220000000EBCF12D3CF5FDE4F8883C150D140C7
:10E2300084E290E01DD24C01CF5FDE4FE881C150F7
:10E24000D140E230B9F118F4E130C1F009C0CF5F3C
:10E25000DE4FF881C150D140F330C1F0F430C9F144
:10E260002AE030E0CE5FDE4F488159816A817B81B0
:10E27000C250D140C8014DD42AE00FC02CE030E09C
:10E28000B701A601C80145D42CE007C029E030E061
:10E29000B301A201C8013DD429E05801A401401BEB
:10E2A000510BCA5FDE4F59834883C650D140322F8D
:10E2B000300F1AC0809120019091210120911E0100
:10E2C00030911F012817390720F490931F01809384
:10E2D0001E01198284E08A8380912001909121019E
:10E2E0009B838C8324E0D9CFCA5FDE4F88819981DC
:10E2F000C650D1408A0D9B1D3A15D1F0D5014D91E4
:10E300005D0164E7C85FDE4F2883C850D140C75F16
:10E31000DE4F3883C950D140C1D1C75FDE4F38814D
:10E32000C950D140C85FDE4F2881C850D140DCCFF2
:10E33000B401620F711D84E290E0C8D140E26CE646
:10E3400081E090E0ABD168E681E090E078D1811186
:10E35000FACFCF5FDE4FB881C150D140B43031F435
:10E3600040E16CE681E090E099D130C180912901D3
:10E370008111E6C08091C00087FFE2C030D181E00A
:10E3800080932A0136D18134B9F433D1C85FDE4F8E
:10E390008883C850D14040D1C85FDE4F8881C850C3
:10E3A000D140823811F484E003C0813819F480E050
:10E3B0002CD1C4C083E0FCCF823411F484E103C0CB
:10E3C000853419F484E034D1B9C0853591F411D184
:10E3D000B82E0FD12B2D30E0382B832F881F8827A4
:10E3E000881F8BBF220F331F3093240120932301FA
:10E3F000A4C0863519F484E01BD1D9CF843609F046
:10E400006AC0F7D0F6D080932201F3D0A090230108
:10E41000B0902401A114E0EEBE0610F048010BC03C
:10E42000C501A0E0B0E023E0FC01A0935B002093D5
:10E430005700E895F3CFDDD0D4018D934D01809145
:10E4400022018150809322018111F5CFA114B0EEF9
:10E45000BB0650F0C501A0E0B0E023E0FC01A093B2
:10E460005B0020935700E895D7D007B600FCFDCF9E
:10E47000298180E090E099249394D801A80FB91FD6
:10E48000AC014A0D5B1D60E070E01196EC911197B4
:10E4900030E03E2B0901FA0160935B009092570037
:10E4A000E89511248E3F910521F0029612962C9149
:10E4B000E4CFC501A0E0B0E025E0FC01A0935B0043
:10E4C00020935700E89507B600FCFDCF81E18093CB
:10E4D0005700E89533C08437E9F48BD08AD0809315
:10E4E000220187D099D0E0912301F09124018691F7
:10E4F0008CD0809123019091240101969093240166
:10E500008093230180912201815080932201811107
:10E51000EACF14C0853739F47FD08EE176D087E911
:10E5200074D085E045CF813541F476D06EEE82E03F
:10E5300090E000D380E169D049C06ED080E165D021
:10E54000EFEF2E163E06F9F08091250190912601FD
:10E550000A97C8F082E090E0E5D28E3E09F436C01A
:10E5600080912901813079F483E020E030E0A90135
:10E57000F90140935B0080935700E89523D1FFD0C9
:10E580002ED010922901A895A89580918400909191
:10E59000850094FF04C02BB120582BB901C05F98AF
:10E5A00020912701309128018217930750F4209180
:10E5B0002501309126012F5F3F4F30932601209394
:10E5C000250190932801809327010ACECDD080E0C9
:10E5D00090E0C75FDE4FDEBFCDBF089511CD109232
:10E5E0008500109284001092260110922501A895B2
:10E5F00008958091C00087FFFCCF8091C00084FD0A
:10E6000001C0A8958091C60008959091C00095FF23
:10E61000FCCF8093C6000895ECDF803239F088E1AA
:10E620008093600088E080936000FFCF84E1EDCFAD
:10E63000CF93C82FDEDFC150E9F7CF91EDCF20E5B2
:10E640002CBD2C98292F33272EBD0DB407FEFDCFEE
:10E650008EBD0DB407FEFDCF6EBD0DB407FEFDCF20
:10E660001EBC0DB407FEFDCF2C9A8EB51CBC0895C0
:10E670001F93CF93DF93EC0168E6E1DF182F68E684
:10E68000CE010196DCDF212F30E0322F2227A901B5
:10E69000482BCA01DF91CF911F91089520E52CBD31
:10E6A0002C98292F33272EBD0DB407FEFDCF8EBD2C
:10E6B0000DB407FEFDCF6EBD0DB407FEFDCF4EBD00
:10E6C0000DB407FEFDCF2C9A1CBC08950F931F9329
:10E6D000CF93DF938C01EB014D2F55276CE6DEDFE6
:10E6E0004C2F6CE6C8010196DF91CF911F910F91DD
:10E6F000D5CFCF93DF93EC0140E16CE681E090E071
:10E70000CDDF68E681E090E09ADF8111FACF4FEF2C
:10E710006CE682E090E0C2DF42E06CE680E090E0F0
:10E72000BDDFBE0184E090E0D1DF41E06CE681E036
:10E7300090E0B4DF68E681E090E081DF8111FACFFC
:10E7400068E683E090E07BDF823229F040E16CE60E
:10E7500081E090E0A3DF68E683E090E070DF823242
:10E76000B1F6DF91CF91089588E10FB6F8948093C8
:10E770006000109260000FBEEE27FF270994CF9330
:10E7800085E490E0B6DF87E190E0CCD18B3B91F45B
:10E7900089E190E0C7D1C82F88E190E0C3D12C2F48
:10E7A00030E0322F2227280F311D30931D01209396
:10E7B0001C0106C089E797EB90931D0180931C0113
:10E7C000CF9108950F931F93CF93DF9383E090E051
:10E7D000A9D1853529F000E011E0C0E0D0E013C0F8
:10E7E00084E090E09FD18A3AB1F701E011E0C5E002
:10E7F000D0E0CE0197D1F80181938F012196C731E6
:10E80000D105B9F7E8CFF80141918F0164E0CE015D
:10E8100045DF2196CC31D105B1F7C0E0DC2FD29590
:10E82000DD0FD07ED45F42E06D2F8EE190E036DFC9
:10E8300042E06D2F8FE190E031DFCF5FC83071F79C
:10E84000DF91CF911F910F9108952F923F924F9298
:10E850005F926F927F928F929F92AF92BF92CF9270
:10E86000DF92EF92FF920F931F93CF93DF93CDB779
:10E87000DEB7CC50D240DEBFCDBF88E290E0F8DEFC
:10E880006C018E010F5F1F4F5E0123EFA21A2DEF67
:10E89000B20A78014C01801A910AC4018E0D9F1DA5
:10E8A000EA14FB0431F068E7CADEF70181937F01C7
:10E8B000F4CFB601645F7D4F88E290E007DF40E46B
:10E8C0006CE681E090E0EADE68E681E090E0B7DEA9
:10E8D0008111FACF68014CE0E42EF12CF601419150
:10E8E0006F016CE6C701DADEFFEFEF1AFF0A22E1E3
:10E8F000E216F10499F7EF80F12CFE2CEE248885C6
:10E90000E80EF11C898590E0982F88272A85820FD0
:10E91000911DCB84D12CDC2CCC242C85C20ED11C97
:10E920008330910581F489EFC816D104B0F5809148
:10E930001E0190911F01C816D90678F101968C1519
:10E940009D0558F125C0E5E0EE16E2E0FE0628F54B
:10E9500084309105D0F48130910539F10297E9F4C2
:10E960003EDE6FEF82E090E0E5D080911C01909157
:10E970001D01BFDE10921F0110921E011092210195
:10E9800010922001A2E07A2EACC0069770F005C06C
:10E9900025E0E21622E0F20650F080911C019091F1
:10E9A0001D01A7DE772473949CC0712C9AC017DEDA
:10E9B000D7011497D0922101C0922001F1E0CF1A23
:10E9C000D108A60160E070E039E0440F551F661FD2
:10E9D000771F3A95D1F766277727CC0CCD2CCC1C26
:10E9E000DD08D194E12CF12C7601DD24CC244C29D6
:10E9F0005D296E297F296A017B01CA0EDB1EE11C9D
:10EA0000F11C21E0C21620EFD20621E0E206F1045B
:10EA100008F065C0A11582E0B80718F424E0722E52
:10EA200002C092E0792EAA2311F01196FCCF7E014C
:10EA3000EDE0EE0EF11C20E030E04A015B01F1E078
:10EA40009F1AA108B10895E081E1682E2A173B07BB
:10EA500008F03DC01A012B01220E331E411C511C2F
:10EA6000F801E20FF31FC584D12CDC2CCC24F70174
:10EA70008081C82A81E00601F10140925B00809309
:10EA80005700E89511242E5F3F4F21111CC014013F
:10EA90002501220E331E411C511C83E0F1014092DE
:10EAA0005B0080935700E89507B600FCFDCFF101AD
:10EAB00040925B0090935700E89507B600FCFDCFAD
:10EAC00060925700E895E2E0EE0EF11CBFCFF4E053
:10EAD0007F1207C06EEE82E090E02CD002C0E3E02F
:10EAE0007E2E872DC45FDD4FDEBFCDBFDF91CF917E
:10EAF0001F910F91FF90EF90DF90CF90BF90AF905C
:10EB00009F908F907F906F905F904F903F902F904D
:10EB10000895FA01DC0102C005900D9221503040A9
:10EB2000D8F70895F999FECF92BD81BDF89A99273B
:10EB300080B50895262FF999FECF1FBA92BD81BDE9
:10EB400020BD0FB6F894FA9AF99A0FBE019608956F
:04EB5000F894FFCF67
:10EB540080C0A801FEFFFFFF00DEADBEEFFEEDC0EA
:0CEB6400A8018000000000000007D0089D
:040000031000E00009
:00000001FF
