:020000021000EC
:10E0000062C100000DC400000BC4000009C4000080
:10E0100007C4000005C4000003C4000001C40000E0
:10E02000FFC30000FDC30000FBC30000F9C30000F4
:10E03000F7C30000F5C30000F3C30000F1C3000004
:10E04000EFC30000EDC30000EBC30000E9C3000014
:10E05000E7C30000E5C30000E3C30000E1C3000024
:10E06000DFC30000DDC30000DBC30000D9C3000034
:10E07000D7C30000D5C30000D3C30000D1C3000044
:10E08000CFC30000CDC30000CBC300000D0A003099
:10E0900078004E6574776F726B20696E69742064C6
:10E0A0006F6E650009202020204D41433A20000971
:10E0B000476174657761793A200009205375626E73
:10E0C00065743A200009416464726573733A2000F4
:10E0D0004275696C742D696E2073657474696E671E
:10E0E0007300454550524F4D2073657474696E67D7
:10E0F0007300204E65743A2000496E697420736F76
:10E10000636B657420746F20706F72742000094413
:10E11000617461506F72743A2000544654502073F9
:10E12000657276657220696E697420646F6E650031
:10E13000496E76616C6964206F70636F646520005E
:10E140004572726F720041636B6E6F776C656467C6
:10E150006500466C617368696E6720636F6D706CF3
:10E16000657465005061636B6574206C656E6774DF
:10E17000682061646A757374656420746F20005749
:10E18000726974696E6720646174612066726F6D74
:10E1900020616464726573732000466C617368204B
:10E1A00069732066756C6C004461746120626C6FE9
:10E1B000636B004368616E67656420746F20706FE5
:10E1C0007274200057726974652072657175657389
:10E1D0007400526561642072657175657374002006
:10E1E000616E642064617461206C656E6774682080
:10E1F000002077697468206F70636F646520005435
:10E2000068697320697320626C6F636B20005365CB
:10E21000742075702072657475726E20616464720A
:10E22000657373004F766572666C6F770050726F1E
:10E2300063657373696E67207061636B6574206FCB
:10E24000662073697A652000526573706F6E73651E
:10E250002073656E740053656E742046696E616C40
:10E260002041434B0053656E742041434B0054667C
:10E2700074703A20000005000346756C6C000005C0
:10E2800000044F70636F64653F0000050000457235
:10E29000726F720041726961646E6520666F7220F0
:10E2A00041726475696E6F204D6567613132383433
:10E2B000502C2056657273696F6E20302E35004DDC
:10E2C00061696E3A200011241FBECFEFD0E4DEBF9B
:10E2D000CDBF11E0A0E0B1E0E8E4F0EF01E00BBF5A
:10E2E00002C007900D92AC31B107D9F711E0ACE153
:10E2F000B1E001C01D92AB32B107E1F701D0A2C677
:10E30000CDB7DEB7C850D140DEBFCDBF112484B732
:10E3100014BE8D7031F082E090E07ED68E3E09F41E
:10E32000B5D329E288E190E00FB6F894A8958093E0
:10E3300060000FBE209360002FEF33EC49E02150C6
:10E3400030404040E1F700C0000084E0809381004D
:10E3500080E090E061D6882321F060E080E090E0EA
:10E3600063D681E090E058D6843021F064E081E00B
:10E3700090E05AD682E08093C00088E18093C1008B
:10E3800086E08093C20080E18093C40064E972EE6D
:10E390008FEB92EEC7D280EF85B980EB84B9479AB4
:10E3A0003F9A81E08DBDB1D37CD310922A011092A7
:10E3B0002901CE0101961C018AE892EE9C0140E001
:10E3C00050E04F5F5F4FCE5FDE4F288339834A8333
:10E3D0005B83C250D14085E792EE6C01E12CF12CB9
:10E3E0003FEFE31AF30A8EE792EE2C01612C712CB9
:10E3F0004FEF641A740A80E090E0DC01ABBFFC01CF
:10E40000A791B691CA5FDE4FB983A883C650D140A9
:10E4100080912A018111C4C068E686E297E0ADD2FE
:10E42000892B09F4BDC081E08093290168E682E070
:10E4300097E089D282FF0FC044E06CE682E097E06B
:10E44000B4D2BFEFE7E8F3E1B150E040F040E1F7CC
:10E4500000C00000EBCF68E686E297E08ED2E2D300
:10E46000CF5FDE4F8883C150D14060E084E297E007
:10E4700084D28C01185ACF5FDE4F2881C150D14021
:10E48000223079F118F42130E1F00AC0CF5FDE4F7D
:10E490003881C150D1403330E1F0343009F4B5C196
:10E4A0002AE030E0CE5FDE4F488159816A817B816E
:10E4B000C250D140C101A7D58AE05101282F220DB9
:10E4C0004BC02CE030E0B301A201C1019CD58CE02F
:10E4D000F4CF29E030E0B701A601C10194D589E06D
:10E4E000ECCF809120019091210120911E0130916B
:10E4F0001F012817390720F490931F0180931E01F4
:10E5000065E672EE8EE692EE0DD2198284E08A8381
:10E5100080912001909121019B838C8384E0CDCF59
:10E52000D5014D915D014801BFEF8B1A9B0A64E74D
:10E53000C801C85FDE4F2883C850D14036D2C85FBB
:10E54000DE4F2881C850D1408114E0E69E0619F4C0
:10E55000812CF8E59F2E84012A11E2CFB80178556D
:10E5600084E297E03BD240E26CE681E097E01DD286
:10E5700068E681E097E0E7D18111FACF68E472EEB6
:10E580008EE692EECFD1CF5FDE4FF881C150D14001
:10E59000F43031F440E16CE681E097E006D238C116
:10E5A000809129018111E6C08091C00087FFE2C0FF
:10E5B00038D181E080932A013ED18134B9F43BD136
:10E5C000C85FDE4F8883C850D14048D1C85FDE4F56
:10E5D0008881C850D140823811F484E003C081386A
:10E5E00019F480E034D1C4C083E0FCCF823411F44C
:10E5F00084E103C0853419F484E03CD1B9C0853589
:10E6000091F419D1182F17D1212F30E0382B832FF7
:10E61000881F8827881F8BBF220F331F3093240148
:10E6200020932301A4C0863519F484E023D1D9CFE7
:10E63000843609F06AC0FFD0FED080932201FBD05F
:10E64000A0902301B0902401A11420EEB20610F096
:10E6500081010BC0C501A0E0B0E023E0FC01A09364
:10E660005B0020935700E895F3CFE5D0D8018D9358
:10E670008D01809122018150809322018111F5CF7B
:10E68000A114B0EEBB0650F0C501A0E0B0E023E05D
:10E69000FC01A0935B0020935700E895DFD007B6FC
:10E6A00000FCFDCF298180E090E0992493948101C2
:10E6B000080F191FAC014A0D5B1D60E070E0D80126
:10E6C0001196EC9130E03E2B0901FA0160935B005A
:10E6D00090925700E89511248E3F910521F0029603
:10E6E000F8012281E4CFC501A0E0B0E025E0FC0103
:10E6F000A0935B0020935700E89507B600FCFDCF80
:10E7000081E180935700E89533C08437E9F493D0D2
:10E7100092D0809322018FD0A1D0E0912301F0917B
:10E720002401869194D08091230190912401019637
:10E730009093240180932301809122018150809342
:10E7400022018111EACF14C0853739F487D08EE1D8
:10E750007ED087E97CD085E045CF813541F47ED0FD
:10E760006EEE82E090E060D480E171D051C076D04E
:10E7700080E16DD0CA5FDE4F28813981C650D1401B
:10E780002F3F3F4FF9F080912501909126010A9784
:10E79000C8F082E090E040D48E3E09F439C0809108
:10E7A0002901813079F483E020E030E0A901F9010A
:10E7B00040935B0080935700E895A7D172D131D088
:10E7C00010922901A895A8958091840090918500C8
:10E7D00094FF04C02BB120582BB901C05F98209141
:10E7E0002701309128018217930750F420912501C9
:10E7F000309126012F5F3F4F309326012093250152
:10E80000909328018093270103CE66E572EE7ACEBD
:10E810003DD180E090E0C85FDE4FDEBFCDBF089500
:10E82000EFCB109285001092840010922601109276
:10E830002501A89508958091C00087FFFCCF8091A5
:10E84000C00084FD01C0A8958091C60008959091F4
:10E85000C00095FFFCCF8093C6000895ECDF8032A6
:10E8600039F088E18093600088E080936000FFCFFA
:10E8700084E1EDCFCF93C82FDEDFC150E9F7CF9110
:10E88000EDCFCF92DF92EF92FF92CF93DF93D0E064
:10E890006C01E12CF12C8FEFE81AF80AD701C601C0
:10E8A0008D0F911DA11DB11DABBFFC01C791CC23E4
:10E8B00011F08C2FCCDFDF5FC111F0CFDF91CF9152
:10E8C000FF90EF90DF90CF900895CF92DF92EF927C
:10E8D000FF92CF936B017C01C42F8FE890EED1DFC4
:10E8E000CC23D1F08C2F90E00197880F991F880FCF
:10E8F000991FA701960104C056954795379527950E
:10E900008A95D2F7DA01C9018F708A3008F0895FE1
:10E91000805D9DDFC150E4CFCF91FF90EF90DF90FD
:10E92000CF9008950F931F93CF93DF93EC018B014A
:10E930008CE890EEA6DFCE01A4DFC801DF91CF9175
:10E940001F910F919ECF20E52CBD2C982FE02EBD5E
:10E950000DB407FEFDCF292F33272EBD0DB407FEC2
:10E96000FDCF8EBD0DB407FEFDCF1EBC0DB407FE5E
:10E97000FDCF2C9A8EB51CBC08950F931F93CF9397
:10E98000DF93EC01162FDFDF082F612FCE010196F8
:10E99000DADF202F30E0322F2227A901482BCA01CD
:10E9A000DF91CF911F910F91089520E52CBD2C98F8
:10E9B00020EF2EBD0DB407FEFDCF292F33272EBD2E
:10E9C0000DB407FEFDCF8EBD0DB407FEFDCF4EBDCD
:10E9D0000DB407FEFDCF2C9A1CBC08950F931F9316
:10E9E000CF93DF938C01EB014D2F55276CE6DDDFD4
:10E9F0004C2F6CE6C8010196DF91CF911F910F91CA
:10EA0000D4CFCF93DF93EC0169EF70EE8EE692EEF8
:10EA100089DFBE0180E090E044E057DF40E16CE632
:10EA200081E097E0C2DF68E681E097E08CDF81114A
:10EA3000FACF4FEF6CE682E097E0B7DF42E06CE69A
:10EA400080E097E0B2DFBE0184E097E0C7DF41E0FD
:10EA50006CE681E097E0A9DF68E681E097E073DF8C
:10EA60008111FACF68E683E097E06DDF823229F00A
:10EA700040E16CE681E097E098DF68E683E097E0AC
:10EA800062DF8232B1F6DF91CF91089588E10FB64F
:10EA9000F89480936000109260000FBEEE27FF276D
:10EAA0000994CF9385E490E0ACDF87E190E0B4D2A5
:10EAB0008B3B91F489E190E0AFD2C82F88E190E0E0
:10EAC000ABD22C2F30E0322F2227280F311D30936C
:10EAD0001D0120931C0106C089E797EB90931D014F
:10EAE00080931C016AE171EE8EE692EE1BDF6EE010
:10EAF00071EE8EE692EE16DF60911C0170911D01A1
:10EB000080E090E044E0CF91E0CE0F931F93CF934D
:10EB1000DF9383E090E080D28535A9F484E090E033
:10EB20007BD28A3A81F401E011E0C5E0D0E0CE0169
:10EB300073D2F80181938F012196C731D105B9F7BE
:10EB400062EE70EE02C060ED70EE82EF90EEEADEF3
:10EB500065EC70EE82EF90EEE5DECFE0D1E01FE0F5
:10EB6000699170E080E090E042E0AFDE123111F098
:10EB70008EE26DDE1F5F133199F76AEB70EE82EF64
:10EB800090EED0DEC5E0D1E015E0699170E080E064
:10EB900090E042E09ADE183011F08EE258DE1F5FFE
:10EBA000193099F76FEA70EE82EF90EEBBDEC1E0AC
:10EBB000D1E001E0699170E080E090E042E085DE24
:10EBC000043011F08EE243DE0F5F053099F764EAFE
:10EBD00070EE82EF90EEA6DEC9E0D1E0699170E0C0
:10EBE00080E090E042E071DE1E3011F08EE22FDE18
:10EBF0001F5F1F3099F700E011E0C0E0D0E0F8019E
:10EC000041918F0160E0CE01D0DE2196CC31D1055B
:10EC1000B1F762E970EE82EF90EEDF91CF911F9134
:10EC20000F9180CE3F924F925F926F927F928F9220
:10EC30009F92AF92BF92CF92DF92EF92FF920F938B
:10EC40001F93CF93DF93CDB7DEB7CC50D240DEBF5A
:10EC5000CDBF8C016DE272EE8EE692EE63DEB801FE
:10EC600080E090E044E031DE0115184028F064E2D5
:10EC700072EE8EE692EE56DE68E688E297E07DDE82
:10EC8000009711F480E098E78E010F5F1F4F6E012F
:10EC9000E3EFCE1AEDEFDE0A0C151D0591F07C01B5
:10ECA000FFEFEF1AFF0A60E04EDEF80181938F015B
:10ECB000E114F0E8FF0619F4E12C78E7F72EC7011C
:10ECC000EBCFBC0188E297E089DE40E46CE681E0AE
:10ECD00097E06BDE68E681E097E035DE8111FACFE0
:10ECE000CE0101967C010CE017E0F70141917F0114
:10ECF0006CE6C8015ADE0F5F1F4F0231F7E01F07B5
:10ED0000A1F76EE072EE8EE692EE0CDEAF80B12CD3
:10ED1000BA2CAA248885A80EB11C098510E0102FF2
:10ED200000278A85080F111DEB84F12CFE2CEE24A0
:10ED30008C85E80EF11C6FEF71EE8EE692EEF2DD3F
:10ED4000B70180E090E044E0C0DD81EF91EE99DD15
:10ED5000B80180E090E044E0B8DD8FED91EE91DD08
:10ED6000650124E0C21AD1082601612C712C44E00F
:10ED7000C301B201AADD0330110591F489EFE81651
:10ED8000F10460F480911E0190911F01E816F906CC
:10ED900028F001968E159F0508F046C000E010E0AF
:10EDA00095E0A91692E0B90608F004C103301105F8
:10EDB00009F440C058F50130110599F102301105F0
:10EDC00009F0FAC02EDD64EC71EE8EE692EEAADD5B
:10EDD0006FEF82E090E028D100911C0110911D019D
:10EDE000C8010FDE63EB71EE8EE692EE9BDDB8019B
:10EDF00080E090E044E069DD10921F0110921E0156
:10EE0000109221011092200112E0E6C00430110599
:10EE100009F4C9C00530110509F0CEC060E471EEF7
:10EE2000C4C062ED71EEC1C0E5E0AE16E2E0BE0620
:10EE300008F0C0C0F6DC68EA71EE8EE692EE72DD94
:10EE4000F0922101E0922001E1E0EE1AF108470181
:10EE5000A12CB12C99E0880C991CAA1CBB1C9A957A
:10EE6000D1F7AA24BB24EE0CEF2CEE1CFF08F19482
:10EE7000C701A0E0B0E0DC0199278827882A992AF9
:10EE8000AA2ABB2A480C591C6A1C7B1CF1E04F16AD
:10EE9000F0EF5F06F1E06F06710438F06AE971EE99
:10EEA0008EE692EE3FDD13E097C06FE771EE8EE6DF
:10EEB00092EE38DD46E0C501B40107DDC11422E061
:10EEC000D20610F414E001C012E0CC2021F08FEF44
:10EED000C81AD80AFACF64E671EE8EE692EE22DD09
:10EEE000C601A0E0B0E044E0BC01CD01EEDCDE01F3
:10EEF0001D9620E030E0332433942401350191E065
:10EF0000591A6108710803E0F5E0FF2E81E1E82E4F
:10EF10002C153D0508F03BC0C501B401620F731FFD
:10EF2000811D911DE1E0F0E0EC0FFD1FE20FF31FEA
:10EF3000458550E0542F4427EC914E2B0A01FB01EC
:10EF400080935B0030925700E89511242E5F3F4F6D
:10EF500021111BC0B301A201420F531F611D711D7E
:10EF6000FA0160935B0000935700E89507B600FC38
:10EF7000FDCFFA0160935B00F0925700E89507B669
:10EF800000FCFDCFE0925700E8951296C1CF1430F7
:10EF900019F562E571EE8EE692EEC4DC6EEE82E06B
:10EFA00090E042D019C066E471EE8EE692EEBADCD3
:10EFB00010E012C000E010E060E371EE8EE692EE29
:10EFC000B1DCB80180E090E044E07FDC80911C017E
:10EFD00090911D0116DD11E0812FC45FDD4FDEBF72
:10EFE000CDBFDF91CF911F910F91FF90EF90DF90F8
:10EFF000CF90BF90AF909F908F907F906F905F90D9
:10F000004F903F900895FA01DC0102C005900D92E7
:10F0100021503040D8F70895F999FECF92BD81BDB7
:10F02000F89A992780B50895262FF999FECF1FBA2F
:10F0300092BD81BD20BD0FB6F894FA9AF99A0FBE21
:08F0400001960895F894FFCF3A
:10F0480080C0A801FEFFFFFF00DEADBEEFFEEDC0F1
:0CF05800A801800000000007D080555582
:040000031000E00009
:00000001FF
