:107000004DC100008BC3000089C3000087C300008E
:1070100085C3000083C3000081C300007FC300005C
:107020007DC300007BC3000079C3000077C300006C
:1070300075C3000073C3000071C300006FC300007C
:107040006DC300006BC3000069C3000067C300008C
:1070500065C3000063C3000061C300005FC300009C
:107060005DC300005BC300000D0A003078004E6570
:1070700074776F726B20696E697420646F6E65003F
:1070800009202020204D41433A20000947617465C2
:107090007761793A200009205375626E65743A2051
:1070A0000009416464726573733A20004275696C2B
:1070B000742D696E2073657474696E67730045453D
:1070C00050524F4D2073657474696E677300204E83
:1070D00065743A2000496E697420736F636B657440
:1070E00020746F20706F72742000094461746150C5
:1070F0006F72743A2000544654502073657276655E
:107100007220696E697420646F6E6500496E7661E5
:107110006C6964206F70636F646520004572726FE4
:10712000720041636B6E6F776C6564676500466CD7
:10713000617368696E6720636F6D706C657465005C
:107140005061636B6574206C656E67746820616460
:107150006A757374656420746F200057726974696E
:107160006E6720646174612066726F6D2061646473
:10717000726573732000466C6173682069732066C2
:10718000756C6C004461746120626C6F636B0043CA
:1071900068616E67656420746F20706F7274200080
:1071A00057726974652072657175657374005265F4
:1071B000616420726571756573740020616E64206E
:1071C00064617461206C656E677468200020776963
:1071D0007468206F70636F64652000546869732061
:1071E000697320626C6F636B200053657420757047
:1071F0002072657475726E206164647265737300C9
:107200004F766572666C6F770050726F636573734B
:10721000696E67207061636B6574206F66207369A7
:107220007A652000526573706F6E73652073656EAA
:10723000740053656E742046696E616C2041434B47
:107240000053656E742041434B00546674703A20BD
:10725000000005000346756C6C00000500044F70CB
:10726000636F64653F00000500004572726F720035
:1072700041726961646E6520666F72204172647547
:10728000696E6F20556E6F2C2056657273696F6E34
:1072900020302E35004D61696E3A200011241FBE4A
:1072A000CFEFD8E0DEBFCDBF11E0A0E0B1E0EAE172
:1072B000FFE702C005900D92AC31B107D9F711E09C
:1072C000ACE1B1E001C01D92AB32B107E1F701D0F2
:1072D00022C6CDB7DEB7C150D140DEBFCDBF11242D
:1072E00084B714BE8D7031F082E090E0FED58E3E02
:1072F00009F438D329E288E190E00FB6F894A89514
:10730000809360000FBE209360002FEF83EC99E024
:10731000215080409040E1F700C0000084E080935D
:10732000810080E090E0E1D5882321F060E080E0FA
:1073300090E0E3D581E090E0D8D5843021F064E09E
:1073400081E090E0DAD582E08093C00088E180930C
:10735000C10086E08093C20080E18093C40060E7B2
:1073600072E785E992E74ED28CE385B98CE284B965
:107370005C9A549A81E08DBD34D3FFD210922A01D9
:1073800010922901662463948E010F5F1F4F93E0D2
:10739000792EC12CD12CF601A590B49080912A01B0
:1073A0008111A6C086E290E057D2892B09F4A0C0D3
:1073B0006092290168E682E090E035D282FF0FC03A
:1073C00044E06CE682E090E05DD2EFEFF7E823E185
:1073D000E150F0402040E1F700C00000EBCF86E232
:1073E00090E03AD29ED3282E84E290E035D24C0130
:1073F00082E0281659F1821520F091E0291681F0DB
:1074000007C0E3E02E16A1F0F4E02F1609F47BC1CB
:107410004AE050E066E672E7C8015ED52AE00FC098
:107420004CE050E06AE572E7C80156D52CE007C091
:1074300049E050E061E572E7C8014ED529E07801E6
:107440002401401A510A322E300E1EC080912001B4
:107450009091210120911E0130911F0128173907B9
:1074600020F490931F0180931E0161E472E78AE487
:1074700092E7C8D1198224E02A838091200190915B
:1074800021019B838C83DBCFC2018E0D9F1D3E1497
:1074900081F0F70141917F0164E7CF5FDE4F2883E0
:1074A000C150D140EFD1CF5FDE4F2881C150D140D4
:1074B000EBCFB401620F711D84E290E0FBD140E29A
:1074C0006CE681E090E0DED168E681E090E0ABD14F
:1074D0008111FACF64E272E78AE492E793D1F4E093
:1074E0002F1206C040E16CE681E090E0CBD10EC1E6
:1074F000809129018111C7C08091C00087FFC3C05E
:107500000ED160922A0115D18134B9F412D1CF5F26
:10751000DE4F8883C150D1401FD1CF5FDE4F8881BD
:10752000C150D140823811F484E003C0813819F48D
:1075300080E00BD1A6C083E0FCCF823411F484E15B
:1075400003C0853419F484E013D19BC0853569F4F8
:10755000F0D0F82EEED02F2D30E0382B220F331F35
:1075600030932401209323018BC0863519F484E0E5
:10757000FFD0DECF843609F054C0DBD0DAD0809360
:107580002201D7D0E0902301F0902401E11420E7FC
:10759000F20610F0480105C0F70170925700E89517
:1075A000F9CFC7D0F40181934F018091220181501E
:1075B000809322018111F5CFE114F0E7FF0620F05E
:1075C000F70170925700E895C7D007B600FCFDCFD1
:1075D000970122583F4FF7018981A8014E195F0991
:1075E000DA01AE0FBF1F11966C91119790E0962BA8
:1075F0000C0160925700E8951124E217F30721F07F
:10760000329612968C91ECCF25E0F701209357002B
:10761000E89507B600FCFDCF81E180935700E8951F
:1076200030C08437D1F485D084D08093220181D0BA
:1076300093D0E0912301F0912401CF010196909322
:10764000240180932301849180D080912201815074
:10765000809322018111EDCF14C0853739F47CD09D
:107660008EE173D085E971D08FE063CF813541F42D
:1076700073D06EEE82E090E040D480E166D046C0E8
:107680006BD080E162D09FEFA916B906C1F080915E
:107690002501909126010A9790F082E090E025D490
:1076A0008E3EA1F180912901813049F4F60170925A
:1076B0005700E89596D161D132D010922901A89552
:1076C000A895809184009091850094FF05C025B114
:1076D00030E2232725B901C02D9820912701309150
:1076E00028018217930750F420912501309126013B
:1076F0002F5F3F4F3093260120932501909328015F
:10770000809327014BCE62E372E7B1CE2BD180E0AC
:1077100090E0CF5FDE4FDEBFCDBF089571CC1092F9
:107720008500109284001092260110922501A895E0
:1077300008958091C00087FFFCCF8091C00084FD38
:1077400001C0A8958091C60008959091C00095FF52
:10775000FCCF8093C6000895ECDF803239F088E1D9
:107760008093600088E080936000FFCF84E1EDCFDC
:10777000CF93C82FDEDFC150E9F7CF91EDCF0F9344
:107780001F93CF93DF93EC0100E0FE01E00FF11DAA
:107790001491112311F0812FD8DF0F5F1111F5CF54
:1077A000DF91CF911F910F910895CF92DF92EF92C9
:1077B000FF92CF936B017C01C42F8BE690E7DFDF54
:1077C000CC23D1F08C2F90E00197880F991F880F60
:1077D000991FA701960104C056954795379527959F
:1077E0008A95D2F7DA01C9018F708A3008F0895F73
:1077F000805DABDFC150E4CFCF91FF90EF90DF9081
:10780000CF9008950F931F93CF93DF93EC018B01DB
:1078100088E690E7B4DFCE01B2DFC801DF91CF91F7
:107820001F910F91ACCF20E52CBD2A98292F33272B
:107830002EBD0DB407FEFDCF8EBD0DB407FEFDCFEE
:107840006EBD0DB407FEFDCF1EBC0DB407FEFDCF0F
:107850002A9A8EB51CBC08951F93CF93DF93EC0139
:1078600068E6E1DF182F68E6CE010196DCDF212F04
:1078700030E0322F2227A901482BCA01DF91CF9196
:107880001F91089520E52CBD2A98292F33272EBD5E
:107890000DB407FEFDCF8EBD0DB407FEFDCF6EBD4E
:1078A0000DB407FEFDCF4EBD0DB407FEFDCF2A9AE5
:1078B0001CBC08950F931F93CF93DF938C01EB01B2
:1078C0004D2F55276CE6DEDF4C2F6CE6C801019684
:1078D000DF91CF911F910F91D5CFCF93DF93EC0123
:1078E00065ED70E78AE492E78DDFBE0180E090E00D
:1078F00044E05BDF40E16CE681E090E0C3DF68E6F6
:1079000081E090E090DF8111FACF4FEF6CE682E0EA
:1079100090E0B8DF42E06CE680E090E0B3DFBE01CB
:1079200084E090E0C7DF41E06CE681E090E0AADF10
:1079300068E681E090E077DF8111FACF68E683E0C6
:1079400090E071DF823229F040E16CE681E090E066
:1079500099DF68E683E090E066DF8232B1F6DF917E
:10796000CF91089588E10FB6F8948093600010924B
:1079700060000FBEEE27FF270994CF9385E490E0C7
:10798000ACDF87E190E0B1D28B3B91F489E190E0EC
:10799000ACD2C82F88E190E0A8D22C2F30E0322F53
:1079A0002227280F311D30931D0120931C0106C092
:1079B00089E797EB90931D0180931C0166EF70E7B8
:1079C0008AE492E71FDF6AEE70E78AE492E71ADF43
:1079D00060911C0170911D0180E090E044E0CF9126
:1079E000E4CE0F931F93CF93DF9383E090E07DD29B
:1079F0008535A9F484E090E078D28A3A81F401E0F8
:107A000011E0C5E0D0E0CE0170D2F80181938F0182
:107A10002196C731D105B9F76EEB70E702C06CEA69
:107A200070E78EEC90E7EEDE61EA70E78EEC90E7AF
:107A3000E9DECFE0D1E01FE0699170E080E090E006
:107A400042E0B3DE123111F08EE27FDE1F5F1331B0
:107A500099F766E970E78EEC90E7D4DEC5E0D1E0F7
:107A600015E0699170E080E090E042E09EDE183021
:107A700011F08EE26ADE1F5F193099F76BE870E74C
:107A80008EEC90E7BFDEC1E0D1E001E0699170E0EB
:107A900080E090E042E089DE043011F08EE255DEB5
:107AA0000F5F053099F760E870E78EEC90E7AADE8B
:107AB000C9E0D1E0699170E080E090E042E075DEDD
:107AC0001E3011F08EE241DE1F5F1F3099F700E09B
:107AD00011E0C0E0D0E0F80141918F0164E0CE01F7
:107AE000D1DE2196CC31D105B1F7C0E0DC2FD295A3
:107AF000DD0FD07ED45F42E06D2F8EE190E0C2DEDC
:107B000042E06D2F8FE190E0BDDECF5FC83071F7AE
:107B10006EE670E78EEC90E7DF91CF911F910F91A9
:107B200071CE8F929F92AF92BF92CF92DF92EF92DF
:107B3000FF920F931F93CF93DF93CDB7DEB7CD5056
:107B4000D240DEBFCDBF8C0169E072E78AE492E7E4
:107B500059DEB80180E090E044E027DE01151840CE
:107B600028F060E072E78AE492E74CDE88E290E079
:107B700073DE7C01CE0101966C015E0193EFA91AC0
:107B80009DEFB90A860147018C189D08C401800F3A
:107B9000911F0A151B0531F068E745DEF801819356
:107BA0008F01F4CFB701645F7D4F88E290E082DE01
:107BB00040E46CE681E090E065DE68E681E090E01C
:107BC00032DE8111FACF76010CE010E0F70141912D
:107BD0007F016CE6C80156DE0F5F1F4F02311105B1
:107BE000A9F76AEE71E78AE492E70CDE8F80912CA8
:107BF000982C88248885880E911CA984B12CBA2CD5
:107C0000AA248A85A80EB11CEB84F12CFE2CEE244C
:107C10008C85E80EF11C6BED71E78AE492E7F2DDEA
:107C2000B70180E090E044E0C0DD8DEC91E7A7DD96
:107C3000B50180E090E044E0B8DD8BEB91E79FDD9B
:107C4000840104501109B80180E090E044E0ADDD0A
:107C5000F3E0AF16B10491F429E3E216F10460F405
:107C600080911E0190911F01E816F90628F00196F7
:107C70008E159F0508F04BC0A12CB12C85E088160D
:107C800082E0980608F002C193E0A916B10409F455
:107C900044C068F5F1E0AF16B104B1F122E0A216DC
:107CA000B10409F0F5C03BDD60EA71E78AE492E7D0
:107CB000A9DD6FEF82E090E020D100911C011091CE
:107CC0001D01C8010ADE6FE871E78AE492E79ADDD8
:107CD000B80180E090E044E068DD10921F0110924E
:107CE0001E01109221011092200152E0E3C084E0B5
:107CF000A816B10409F4C3C095E0A916B10409F0AF
:107D0000C7C06CE171E7BDC06EEA71E7BAC025E09B
:107D1000821622E0920608F0B9C001DD64E871E73E
:107D20008AE492E76FDDF0922101E0922001E1E028
:107D3000EE1AF108FE2CEE24FF0CC701800F911FF4
:107D40008130904738F066E771E78AE492E75ADDC0
:107D500053E0B0C06BE571E78AE492E753DDC701F9
:107D6000A0E0B0E046E0BC01CD011FDD011522E03E
:107D7000120710F454E001C052E0C8018F77992730
:107D8000892B19F00F5F1F4FF8CF60E471E78AE489
:107D900092E7C35FDD4F5883CD50D24033DDC80139
:107DA000A0E0B0E044E0BC01CD01FFDCC35FDD4FEB
:107DB0005881CD50D240E114F10451F0DE011D96FE
:107DC00020E030E041E063E075E0F1E1BF2E3EC02D
:107DD000FE013D96C601805C9F4F20812C3009F04A
:107DE00068C02181243909F064C03496E817F90786
:107DF000A1F7E4CFF601E20FF31F858590E0982FFD
:107E00008827EC918E2BF7010C0140935700E895E1
:107E100011242E5F3F4FC9018F779927892B91F449
:107E2000F701EE57F10960935700E89507B600FC9B
:107E3000FDCF70935700E89507B600FCFDCFB092D8
:107E40005700E8951296F2E0EF0EF11C201731076B
:107E500088F2543079F56EE271E78AE492E7C35F05
:107E6000DD4F5883CD50D240CDDC6EEE82E090E005
:107E700044D0C35FDD4F5881CD50D2401BC062E279
:107E800071E78AE492E7BEDC50E014C0A12CB12C6B
:107E90006CE071E78AE492E7B5DCB50180E090E040
:107EA00044E083DC80911C0190911D0116DD51E0BE
:107EB00001C055E0852FC35FDD4FDEBFCDBFDF9131
:107EC000CF911F910F91FF90EF90DF90CF90BF90D7
:107ED000AF909F908F900895FB01DC0102C0059048
:107EE0000D9241505040D8F70895F999FECF92BDB8
:107EF00081BDF89A992780B50895262FF999FECF6C
:107F00001FBA92BD81BD20BD0FB6F894FA9AF99AB6
:0A7F10000FBE01960895F894FFCF0C
:107F1A0080C0A801FEFFFFFF00DEADBEEFFEEDC090
:0C7F2A00A8018000000000000007D00843
:040000030000700089
:00000001FF
