:020000021000EC
:10E0000086C1000032C4000030C400002EC40000ED
:10E010002CC400002AC4000028C4000026C400004C
:10E0200024C4000022C4000020C400001EC400005C
:10E030001CC400001AC4000018C4000016C400006C
:10E0400014C4000012C4000010C400000EC400007C
:10E050000CC400000AC4000008C4000006C400008C
:10E0600004C4000002C4000000C40000FEC300009D
:10E07000FCC30000FAC30000F8C30000F6C30000B0
:10E08000F4C30000F2C30000F0C300000D0A00302A
:10E0900078004E6574776F726B20696E69742064C6
:10E0A0006F6E650009202020204D41433A20000971
:10E0B000476174657761793A200009205375626E73
:10E0C00065743A200009416464726573733A2000F4
:10E0D0004275696C742D696E2073657474696E671E
:10E0E0007300454550524F4D2073657474696E67D7
:10E0F0007300204E65743A2000496E697420736F76
:10E10000636B657420746F20706F72742000094413
:10E11000617461506F72743A2000544654502073F9
:10E12000657276657220696E697420646F6E650031
:10E1300056616C696420696D6167650020696E7362
:10E1400074656164206F6620307839340020696E10
:10E150007374656164206F662030783043002077E7
:10E1600069746820004661696C65642061742000F0
:10E1700056616C643A2000496E76616C6964206F68
:10E1800070636F646520004572726F720041636B4B
:10E190006E6F776C6564676500466C617368696E65
:10E1A0006720636F6D706C657465005061636B65AB
:10E1B00074206C656E6774682061646A7573746539
:10E1C0006420746F200057726974696E67206461FF
:10E1D00074612066726F6D20616464726573732070
:10E1E00000466C6173682069732066756C6C00442E
:10E1F00061746120626C6F636B004368616E676578
:10E200006420746F20706F72742000577269746597
:10E210002072657175657374005265616420726562
:10E2200071756573740020616E642064617461208F
:10E230006C656E67746820002077697468206F7061
:10E24000636F646520005468697320697320626C91
:10E250006F636B2000536574207570207265747550
:10E26000726E2061646472657373004F76657266C6
:10E270006C6F770050726F63657373696E6720709F
:10E2800061636B6574206F662073697A6520005244
:10E290006573706F6E73652073656E740053656E81
:10E2A000742046696E616C2041434B0053656E7467
:10E2B0002041434B00546674703A2000000500036F
:10E2C00046756C6C00000500044F70636F64653F19
:10E2D00000000500004572726F720041726961644E
:10E2E0006E6520666F722041726475696E6F204D95
:10E2F00065676131323834502C2056657273696F0E
:10E300006E20302E35004D61696E3A2000001124D8
:10E310001FBECFEFD0E4DEBFCDBF11E0A0E0B1E083
:10E32000EAE4F1EF01E00BBF02C007900D92AC31BF
:10E33000B107D9F711E0ACE1B1E001C01D92AB32F9
:10E34000B107E1F701D0FFC6CDB7DEB7C950D14064
:10E35000DEBFCDBF112484B714BE8D7031F082E0D2
:10E3600090E0DBD68E3E09F4B2D329E288E190E05A
:10E370000FB6F894A895809360000FBE20936000BC
:10E380002FEF33EC49E0215030404040E1F700C02E
:10E39000000084E08093810080E090E0BED6882376
:10E3A00021F060E080E090E0C0D681E090E0B5D65A
:10E3B000843021F064E081E090E0B7D682E0809381
:10E3C000C00088E18093C10086E08093C20080E1B4
:10E3D0008093C4006BED72EE86E093EEC8D280EFBE
:10E3E00085B980EB84B9479A3F9A81E08DBDAED361
:10E3F00079D310922A01109229018E010F5F1F4FCD
:10E4000081ED92EE9C0140E050E04F5F5F4FCE5FA8
:10E41000DE4F288339834A835B83C250D1408CEB23
:10E4200092EE2C01612C712C3FEF631A730A85EC7C
:10E4300092EE6C01E12CF12C4FEFE41AF40A80E02B
:10E4400090E0DC01ABBFFC012790369080912A015F
:10E450008111D0C086E290E0B4D2892B09F4CAC001
:10E4600081E08093290168E682E090E091D282FF0A
:10E470000FC044E06CE682E090E0B9D29FEFA7E8DD
:10E48000B3E19150A040B040E1F700C00000EBCFF5
:10E4900086E290E096D2FAD3CF5FDE4F8883C150F8
:10E4A000D14084E290E08DD24C01CF5FDE4FE88115
:10E4B000C150D140E230C1F118F4E130C9F00AC0D6
:10E4C000CF5FDE4FF881C150D140F330C9F0F43056
:10E4D00009F4C0C12AE030E0CE5FDE4F48815981A7
:10E4E0006A817B81C250D140C8010ED62AE00FC09C
:10E4F0002CE030E0B701A601C80106D62CE007C029
:10E5000029E030E0B301A201C801FED529E058019D
:10E51000A401401B510BCA5FDE4F59834883C6508C
:10E52000D140322F300F1FC08091200190912101E6
:10E5300020911E0130911F012817390720F4909374
:10E540001F0180931E016CEA72EE85EB92EE0FD2F2
:10E55000198284E08A8380912001909121019B831C
:10E560008C8324E0D4CFCA5FDE4F88819981C65066
:10E57000D1408A0D9B1D3A15D1F0D5014D915D0119
:10E5800064E7C85FDE4F2883C850D140C75FDE4FC5
:10E590003883C950D1402BD2C75FDE4F3881C95074
:10E5A000D140C85FDE4F2881C850D140DCCFB401D4
:10E5B000620F711D84E290E032D240E26CE681E0AD
:10E5C00090E015D268E681E090E0E2D18111FACFC7
:10E5D0006FE872EE85EB92EECAD1CF5FDE4FB88165
:10E5E000C150D140B43031F440E16CE681E090E0BC
:10E5F000FED133C1809129018111E6C08091C00014
:10E6000087FFE2C033D181E080932A0139D1813480
:10E61000B9F436D1C85FDE4F8883C850D14043D1AA
:10E62000C85FDE4F8881C850D140823811F484E041
:10E6300003C0813819F480E02FD1C4C083E0FCCF3F
:10E64000823411F484E103C0853419F484E037D1B5
:10E65000B9C0853591F414D1B82E12D12B2D30E0EC
:10E66000382B832F881F8827881F8BBF220F331FCB
:10E670003093240120932301A4C0863519F484E04B
:10E680001ED1D9CF843609F06AC0FAD0F9D0809370
:10E690002201F6D0A0902301B0902401A114E0EE55
:10E6A000BE0610F048010BC0C501A0E0B0E023E0B9
:10E6B000FC01A0935B0020935700E895F3CFE0D0D6
:10E6C000D4018D934D0180912201815080932201CC
:10E6D0008111F5CFA114B0EEBB0650F0C501A0E04A
:10E6E000B0E023E0FC01A0935B0020935700E89585
:10E6F000DAD007B600FCFDCF298180E090E09924B4
:10E700009394D801A80FB91FAC014A0D5B1D60E0BE
:10E7100070E01196EC91119730E03E2B0901FA015F
:10E7200060935B0090925700E89511248E3F91050D
:10E7300021F0029612962C91E4CFC501A0E0B0E042
:10E7400025E0FC01A0935B0020935700E89507B6F5
:10E7500000FCFDCF81E180935700E89533C08437FA
:10E76000E9F48ED08DD0809322018AD09CD0E091A4
:10E770002301F091240186918FD080912301909103
:10E78000240101969093240180932301809122011A
:10E790008150809322018111EACF14C0853739F46A
:10E7A00082D08EE179D087E977D085E045CF813579
:10E7B00041F479D06EEE82E090E0B7D480E16CD085
:10E7C0004CC071D080E168D0EFEF2E163E06F9F014
:10E7D00080912501909126010A97C8F082E090E08F
:10E7E0009CD48E3E09F439C080912901813079F49E
:10E7F00083E020E030E0A901F90140935B008093C1
:10E800005700E895A3D16ED131D010922901A89577
:10E81000A895809184009091850094FF04C02BB14D
:10E8200020582BB901C05F98209127013091280111
:10E830008217930750F420912501309126012F5F14
:10E840003F4F309326012093250190932801809318
:10E850002701FCCD6DE972EE78CE39D180E090E0F1
:10E86000C75FDE4FDEBFCDBF0895CACB10928500D3
:10E87000109284001092260110922501A895089507
:10E880008091C00087FFFCCF8091C00084FD01C053
:10E89000A8958091C60008959091C00095FFFCCF87
:10E8A0008093C6000895ECDF803239F088E18093D0
:10E8B000600088E080936000FFCF84E1EDCFCF93CC
:10E8C000C82FDEDFC150E9F7CF91EDCFCF92DF92B5
:10E8D000EF92FF92CF93DF93D0E06C01E12CF12C0B
:10E8E0008FEFE81AF80AD701C6018D0F911DA11DFF
:10E8F000B11DABBFFC01C791CC2311F08C2FCCDF35
:10E90000DF5FC111F0CFDF91CF91FF90EF90DF90EB
:10E91000CF900895CF92DF92EF92FF92CF936B0149
:10E920007C01C42F8FE890EED1DFCC23D1F08C2F67
:10E9300090E00197880F991F880F991FA7019601F2
:10E9400004C056954795379527958A95D2F7DA01F1
:10E95000C9018F708A3008F0895F805D9DDFC150EA
:10E96000E4CFCF91FF90EF90DF90CF9008950F9379
:10E970001F93CF93DF93EC018B018CE890EEA6DF21
:10E98000CE01A4DFC801DF91CF911F910F919ECFDF
:10E9900020E52CBD2C98292F33272EBD0DB407FE62
:10E9A000FDCF8EBD0DB407FEFDCF6EBD0DB407FECD
:10E9B000FDCF1EBC0DB407FEFDCF2C9A8EB51CBC3E
:10E9C00008951F93CF93DF93EC0168E6E1DF182FE2
:10E9D00068E6CE010196DCDF212F30E0322F2227BE
:10E9E000A901482BCA01DF91CF911F91089520E51D
:10E9F0002CBD2C98292F33272EBD0DB407FEFDCF3B
:10EA00008EBD0DB407FEFDCF6EBD0DB407FEFDCF6C
:10EA10004EBD0DB407FEFDCF2C9A1CBC08950F937C
:10EA20001F93CF93DF938C01EB014D2F55276CE69D
:10EA3000DEDF4C2F6CE6C8010196DF91CF911F916C
:10EA40000F91D5CFCF93DF93EC0169EF70EE85EB9B
:10EA500092EE8DDFBE0180E090E044E05BDF40E1BC
:10EA60006CE681E090E0C3DF68E681E090E090DF53
:10EA70008111FACF4FEF6CE682E090E0B8DF42E020
:10EA80006CE680E090E0B3DFBE0184E090E0C7DF99
:10EA900041E06CE681E090E0AADF68E681E090E08A
:10EAA00077DF8111FACF68E683E090E071DF823290
:10EAB00029F040E16CE681E090E099DF68E683E0D0
:10EAC00090E066DF8232B1F6DF91CF91089588E160
:10EAD0000FB6F89480936000109260000FBEEE278E
:10EAE000FF270994CF9385E490E0ACDF87E190E0C5
:10EAF00014D38B3B91F489E190E00FD3C82F88E1C8
:10EB000090E00BD32C2F30E0322F2227280F311D1D
:10EB100030931D0120931C0106C089E797EB909369
:10EB20001D0180931C016AE171EE85EB92EE1FDFFF
:10EB30006EE071EE85EB92EE1ADF60911C01709130
:10EB40001D0180E090E044E0CF91E4CE0F931F934D
:10EB5000CF93DF9383E090E0E0D28535A9F484E0A1
:10EB600090E0DBD28A3A81F401E011E0C5E0D0E028
:10EB7000CE01D3D2F80181938F012196C731D105FF
:10EB8000B9F762EE70EE02C060ED70EE82EF90EECB
:10EB9000EEDE65EC70EE82EF90EEE9DECFE0D1E0E4
:10EBA0001FE0699170E080E090E042E0B3DE123156
:10EBB00011F08EE271DE1F5F133199F76AEB70EE90
:10EBC00082EF90EED4DEC5E0D1E015E0699170E00F
:10EBD00080E090E042E09EDE183011F08EE25CDED4
:10EBE0001F5F193099F76FEA70EE82EF90EEBFDE8B
:10EBF000C1E0D1E001E0699170E080E090E042E0A6
:10EC000089DE043011F08EE247DE0F5F053099F7A0
:10EC100064EA70EE82EF90EEAADEC9E0D1E069917D
:10EC200070E080E090E042E075DE1E3011F08EE290
:10EC300033DE1F5F1F3099F700E011E0C0E0D0E045
:10EC4000F80141918F0164E0CE01D1DE2196CC31F3
:10EC5000D105B1F7C0E0DC2FD295DD0FD07ED45FB7
:10EC600042E06D2F8EE190E0C2DE42E06D2F8FE139
:10EC700090E0BDDECF5FC83071F762E970EE82EFE1
:10EC800090EEDF91CF911F910F9171CE3F924F92F5
:10EC90005F926F927F928F929F92AF92BF92CF922C
:10ECA000DF92EF92FF920F931F93CF93DF93CDB735
:10ECB000DEB7CE50D240DEBFCDBF8C0164E772EE2E
:10ECC00085EB92EE54DEB80180E090E044E022DE75
:10ECD0000115184028F06BE672EE85EB92EE47DEE8
:10ECE00088E290E06EDE7C01FE013196C35FDD4F6D
:10ECF000F983E883CD50D2406E01F3EFCF1AFDEFD8
:10ED0000DF0A8E010F5F1F4F5C01A01AB10AC50117
:10ED1000800F911F0C151D0531F068E739DEF801F1
:10ED200081938F01F4CFB701645F7D4F88E290E05B
:10ED300076DE40E46CE681E090E059DE68E681E052
:10ED400090E026DE8111FACFCE0101967C010CE025
:10ED500010E0F70141917F016CE6C80148DE0F5FCA
:10ED60001F4F02311105A9F765E572EE85EB92EEB2
:10ED7000FEDDAF80B12CBA2CAA248885A80EB11C68
:10ED8000098510E0102F00278A85080F111DEB84DC
:10ED9000F12CFE2CEE248C85E80EF11C66E472EE5C
:10EDA00085EB92EEE4DDB70180E090E044E0B2DD77
:10EDB00088E392EE8BDDB80180E090E044E0AADDCC
:10EDC00086E292EE83DD6501F4E0CF1AD1082601D8
:10EDD000612C712C44E0C301B2019CDD03301105AC
:10EDE00091F489EFE816F10460F480911E0190918E
:10EDF0001F01E816F90628F001968E159F0508F008
:10EE000046C000E010E095E0A91692E0B90608F0CF
:10EE100052C10330110509F440C058F50130110505
:10EE200099F10230110509F048C120DD6BE072EE66
:10EE300085EB92EE9CDD6FEF82E090E076D1009161
:10EE40001C0110911D01C801FDDD6AEF71EE85EB1B
:10EE500092EE8DDDB80180E090E044E05BDD109241
:10EE60001F0110921E01109221011092200112E048
:10EE700034C10430110509F417C10530110509F03A
:10EE80001CC167E871EE12C169E172EE0FC1F5E0D5
:10EE9000AF16F2E0BF0608F00EC1E8DC6FEE71EECF
:10EEA00085EB92EE64DDF0922101E0922001E1E039
:10EEB000EE1AF1084701A12CB12C99E0880C991C9D
:10EEC000AA1CBB1C9A95D1F7AA24BB24EE0CEF2CEC
:10EED000EE1CFF08F194C701A0E0B0E0DC01992727
:10EEE0008827882A992AAA2ABB2A480C591C6A1CF6
:10EEF0007B1CF1E04F16F0EF5F06F1E06F06710446
:10EF000038F061EE71EE85EB92EE31DD13E0E5C095
:10EF100066EC71EE85EB92EE2ADD46E0C501B401A8
:10EF2000F9DCC11482E0D80610F414E001C012E04C
:10EF3000CC2021F09FEFC91AD90AFACF6BEA71EE03
:10EF400085EB92EE14DDC601A0E0B0E044E0BC0128
:10EF5000CD01E0DC81149104A104B10409F048C0A2
:10EF6000FE013D9600E0F0808CE0F816B9F065E611
:10EF700071EE80E791EEFBDC602F70E080E090E0C6
:10EF800044E0C8DC8EE591EEA1DC6F2D70E080E0FE
:10EF900090E044E0BFDC8DE491EE1EC0F18094E986
:10EFA000F916E1F065E671EE80E791EEE0DC602FA6
:10EFB00070E06F5F7F4F882777FD8095982F44E042
:10EFC000A9DC8EE591EE82DC6F2D70E080E090E0B0
:10EFD00044E0A0DC8CE391EE79DC0AC00C5F34964F
:10EFE000043309F0C0CF60E371EE80E791EEBFDC3F
:10EFF000DE011D9620E030E03324339424013501F6
:10F00000E1E05E1A6108710803E0F5E0FF2E81E19E
:10F01000E82E2C153D0508F03BC0C501B401620F78
:10F02000731F811D911DE1E0F0E0EC0FFD1FE20F69
:10F03000F31F458550E0542F4427EC914E2B0A01D5
:10F04000FB0180935B0030925700E89511242E5FFE
:10F050003F4F21111BC0B301A201420F531F611D7D
:10F06000711DFA0160935B0000935700E89507B6A5
:10F0700000FCFDCFFA0160935B00F0925700E89529
:10F0800007B600FCFDCFE0925700E8951296C1CF7D
:10F09000143019F569E971EE85EB92EE68DC6EEEDD
:10F0A00082E090E042D019C06DE871EE85EB92EEFF
:10F0B0005EDC10E012C000E010E067E771EE85EB67
:10F0C00092EE55DCB80180E090E044E023DC8091D2
:10F0D0001C0190911D01B6DC11E0812FC25FDD4F54
:10F0E000DEBFCDBFDF91CF911F910F91FF90EF90C9
:10F0F000DF90CF90BF90AF909F908F907F906F9058
:10F100005F904F903F900895FA01DC0102C0059096
:10F110000D9221503040D8F70895F999FECF92BD55
:10F1200081BDF89A992780B50895262FF999FECFC9
:10F130001FBA92BD81BD20BD0FB6F894FA9AF99A14
:0AF140000FBE01960895F894FFCF6A
:10F14A0080C0A801FEFFFFFF00DEADBEEFFEEDC0EE
:0CF15A00A8018000000000000007D008A1
:040000031000E00009
:00000001FF
