:020000023000CC
:10E000008EC1000053C3000051C300004FC3000085
:10E010004DC300004BC3000049C3000047C30000CC
:10E0200045C3000043C3000041C300003FC30000DC
:10E030003DC300003BC3000039C3000037C30000EC
:10E0400035C3000033C3000031C300002FC30000FC
:10E050002DC300002BC3000029C3000027C300000C
:10E0600025C3000023C3000021C300001FC300001C
:10E070001DC300001BC3000019C3000017C300002C
:10E0800015C3000013C3000011C300000FC300003C
:10E090000DC300000BC3000009C3000007C300004C
:10E0A00005C3000003C3000001C30000FFC200005D
:10E0B000FDC20000FBC20000F9C20000F7C2000070
:10E0C000F5C20000F3C20000F1C20000EFC2000080
:10E0D000EDC20000EBC20000E9C20000E7C2000090
:10E0E000E5C200000D0A003078004E6574776F724B
:10E0F0006B20696E697420646F6E650009202020B2
:10E10000204D41433A200009476174657761793AAF
:10E11000200009205375626E65743A20000941643D
:10E1200064726573733A20004275696C742D696E70
:10E130002073657474696E677300454550524F4D86
:10E140002073657474696E677300204E65743A209D
:10E1500000496E697420736F636B657420746F205F
:10E16000706F727420000944617461506F72743A68
:10E170002000544654502073657276657220696E93
:10E18000697420646F6E6500496E76616C69642005
:10E190006F70636F646520004572726F7200416337
:10E1A0006B6E6F776C6564676500466C6173686958
:10E1B0006E6720636F6D706C657465005061636B92
:10E1C0006574206C656E6774682061646A75737429
:10E1D000656420746F200057726974696E672064EB
:10E1E0006174612066726F6D20616464726573731F
:10E1F0002000466C6173682069732066756C6C0042
:10E200004461746120626C6F636B004368616E6788
:10E21000656420746F20706F727420005772697487
:10E220006520726571756573740052656164207252
:10E230006571756573740020616E6420646174613A
:10E24000206C656E67746820002077697468206FA1
:10E2500070636F646520005468697320697320627D
:10E260006C6F636B20005365742075702072657449
:10E2700075726E2061646472657373004F766572A7
:10E28000666C6F770050726F63657373696E672099
:10E290007061636B6574206F662073697A65200016
:10E2A000526573706F6E73652073656E740053658D
:10E2B0006E742046696E616C2041434B0053656E5D
:10E2C000742041434B00546674703A2000000500EE
:10E2D0000346756C6C00000500044F70636F646545
:10E2E0003F00000500004572726F72004172696163
:10E2F000646E6520666F722041726475696E6F206E
:10E300004D656761323536302C2056657273696F02
:10E310006E20302E35004D61696E3A2000001124C8
:10E320001FBECFEFD1E2DEBFCDBF01E00CBF12E0D8
:10E33000A0E0B2E0EEE3F4EF03E00BBF02C0079011
:10E340000D92A032B107D9F712E0A0E2B2E001C00D
:10E350001D92AC32B107E1F702D00D941DFACDB792
:10E36000DEB7CC56D109DEBFCDBF112484B714BEB1
:10E370008D7039F082E090E00F9407FA8E3E09F438
:10E38000B5D229E288E190E00FB6F894A895809381
:10E3900060000FBE209360002FEF33EC49E0215066
:10E3A00030404040E1F700C0000084E080938100ED
:10E3B00080E090E00F9407FA882329F060E080E085
:10E3C00090E00F940FFA81E090E00F9407FA843008
:10E3D00029F064E081E090E00F940FFA82E08093EE
:10E3E000C00088E18093C10086E08093C20080E194
:10E3F0008093C4006CEE72EE86E193EEBAD18FE0AA
:10E4000085B987E084B92C9A249AA59A9D9A2F9A67
:10E41000279A81E08DBDA9D274D210922B0210925E
:10E420002A02CE0101962C0182EE92EE9C0140E080
:10E4300050E04D5F5F4FA9962CAF3DAF4EAF5FAF41
:10E44000A9978DEC92EE6C01E12CF12C33E0E30EF8
:10E45000F11C86ED92EE4C01A12CB12C43E0A40EF0
:10E46000B11C80E090E0DC01ABBFFC01A791B6914C
:10E47000AB96BFAFAEAFAB9780912B028111B1C00D
:10E4800068E686E293E4A4D1892B09F4AAC081E06E
:10E4900080932A0268E682E093E47CD182FF0FC079
:10E4A00044E06CE682E093E4ABD1BFEFE7E8F3E150
:10E4B000B150E040F040E1F700C00000EBCF68E66B
:10E4C00086E293E485D1EED2182F60E084E293E4F3
:10E4D0007FD198561C01123041F118F41130A9F087
:10E4E00005C01330D1F0143009F4D5C02AE030E073
:10E4F000A9964CAD5DAD6EAD7FADA997C2017ED73B
:10E500008AE09201082F040D4DC02CE030E0B501E7
:10E51000A401C20173D78CE0F4CF29E030E0B70149
:10E52000A601C2016BD789E0ECCF809124029091C3
:10E53000250220912202309123022817390720F466
:10E5400090932302809322026DEB72EE86EC92EEA2
:10E5500010D1198284E08A8380912402909125024F
:10E560009B838C8384E0CDCFD9014D919D013101F6
:10E57000BFEF6B1A7B0A64E7C101AC962FAFAC9773
:10E58000AD963FAFAD973CD1AC962FADAC97AD9665
:10E590003FADAD976114E0EA7E0619F4612C68E99D
:10E5A000762E13010213E0CFB101785984E293E48F
:10E5B00045D140E26CE681E093E422D168E681E057
:10E5C00093E4E8D08111FACF60EA72EE86EC92EE25
:10E5D000D0D0143031F440E16CE681E093E410D106
:10E5E0005DC080912A02882341F0AB962EAD3FADED
:10E5F000AB972F3F3F4F69F42BC08091C00087FF3E
:10E60000F4CF55D081E080932B023ED48111EDCF21
:10E6100045C080912602909127020A97C8F082E0B7
:10E6200090E0F5D68E3E09F439C080912A028130FF
:10E6300079F483E020E030E0A901F90140935B0028
:10E6400080935700E89591D15CD131D010922A0285
:10E65000A895A895809184009091850094FF04C0AE
:10E6600025B1205825B901C02F982091280230915A
:10E6700029028217930750F4209126023091270235
:10E680002F5F3F4F30932702209326029093290259
:10E6900080932802F1CE6EEA72EE58CF27D180E047
:10E6A00090E0C459DF4FDEBFCDBF0895A9CC1092D2
:10E6B0008500109284001092270210922602A895DD
:10E6C00008959091C00095FFFCCF8093C6000895F7
:10E6D000CF92DF92EF92FF92CF93DF93D0E06C0165
:10E6E000E12CF12C83E0E80EF11CD701C6018D0F5F
:10E6F000911DA11DB11DABBFFC01C791CC2311F031
:10E700008C2FDFDFDF5FC111F0CFDF91CF91FF9062
:10E71000EF90DF90CF900895CF92DF92EF92FF922B
:10E72000CF936B017C01C42F87EE90EED1DFCC2319
:10E73000D1F08C2F90E00197880F991F880F991FB7
:10E74000A701960104C056954795379527958A9558
:10E75000D2F7DA01C9018F708A3008F0895F805DD5
:10E76000B0DFC150E4CFCF91FF90EF90DF90CF901A
:10E7700008950F931F93CF93DF93EC018B0184EEE9
:10E7800090EEA6DFCE01A4DFC801DF91CF911F91EB
:10E790000F919ECF20E52CBD2C98292F33272EBD1D
:10E7A0000DB407FEFDCF8EBD0DB407FEFDCF1EBC20
:10E7B0000DB407FEFDCF81E08EBD0DB407FEFDCF89
:10E7C0001EBC0DB407FEFDCF2C9A8EB51CBC08955F
:10E7D0000F931F93CF93DF93EC01162FDBDF082FEE
:10E7E000612FCE010196D6DF202F30E0322F222775
:10E7F000A901482BCA01DF91CF911F910F91089574
:10E8000020E52CBD2C98292F33272EBD0DB407FEF3
:10E81000FDCF8EBD0DB407FEFDCF80E88EBD0DB4DB
:10E8200007FEFDCF81E08EBD0DB407FEFDCF4EBDCE
:10E830000DB407FEFDCF2C9A1CBC08950F931F93B7
:10E84000CF93DF938C01EB014D2F55276CE6D8DF7A
:10E850004C2F6CE6C8010196DF91CF911F910F916B
:10E86000CFCFCF93DF93EC0161E571EE86EC92EEB2
:10E8700080DFBE0180E090E044E04EDF40E16CE6E6
:10E8800081E093E4BDDF68E681E093E483DF8111FA
:10E89000FACF4FEF6CE682E093E4B2DF42E06CE641
:10E8A00080E093E4ADDFBE0184E093E4C7DF41E0A4
:10E8B0006CE681E093E4A4DF68E681E093E46ADF3C
:10E8C0008111FACF68E683E093E464DF823229F0B5
:10E8D00040E16CE681E093E493DF68E683E093E453
:10E8E00059DF8232B1F6DF91CF91089588E10FB6FA
:10E8F000F89480936000109260000FBEEE27FF270F
:10E900000994CF9385E490E0ACDF87E190E07FD578
:10E910008B3B91F489E190E07AD5C82F88E190E0B3
:10E9200076D52C2F30E0322F2227280F311D30933F
:10E9300021022093200206C089E797EB90932102E1
:10E940008093200262E771EE86EC92EE12DF66E6BB
:10E9500071EE86EC92EE0DDF609120027091210243
:10E9600080E090E044E0CF91D7CE0F931F93CF93F8
:10E97000DF9383E090E04BD58535A9F484E090E007
:10E9800046D58A3A81F401E012E0C5E0D0E0CE013C
:10E990003ED5F80181938F012196C731D105B9F792
:10E9A0006AE371EE02C068E271EE8AE491EEE1DEA4
:10E9B0006DE171EE8AE491EEDCDECFE0D2E01FE0A3
:10E9C000699170E080E090E042E0A6DE123111F043
:10E9D0008EE277DE1F5F133199F762E171EE8AE410
:10E9E00091EEC7DEC5E0D2E015E0699170E080E00D
:10E9F00090E042E091DE183011F08EE262DE1F5F9F
:10EA0000193099F767E071EE8AE491EEB2DEC1E069
:10EA1000D2E001E0699170E080E090E042E07CDECD
:10EA2000043011F08EE24DDE0F5F053099F76CEF88
:10EA300070EE8AE491EE9DDEC9E0D2E0699170E06B
:10EA400080E090E042E068DE1E3011F08EE239DEB8
:10EA50001F5F1F3099F700E012E0C0E0D0E0F8013E
:10EA600041918F0160E0CE01CBDE2196CA31D10504
:10EA7000B1F7CFE1D0E442E060E0CE01C1DE42E098
:10EA800060E0CE010197BCDED395CF31F8E4DF071B
:10EA900091F76AEE70EE8AE491EEDF91CF911F91CB
:10EAA0000F9167CE3F924F925F926F927F928F92BB
:10EAB0009F92AF92BF92CF92DF92EF92FF920F930D
:10EAC0001F93CF93DF93CDB7DEB7CC50D240DEBFDC
:10EAD000CDBF8C0165E872EE86EC92EE4ADEB8019D
:10EAE00080E090E044E018DE0115184028F06CE763
:10EAF00072EE86EC92EE3DDE68E688E293E468DE34
:10EB0000009711F480E098ED8E010F5F1F4F6E01AA
:10EB1000E3EFCE1AEDEFDE0A0C151D0591F07C0136
:10EB2000FFEFEF1AFF0A60E035DEF80181938F01F5
:10EB3000E114F0EEFF0619F4E12C78EDF72EC70191
:10EB4000EBCFBC0188E293E479DE40E46CE681E03F
:10EB500093E456DE68E681E093E41CDE8111FACF8F
:10EB6000CE0101967C010CE013E4F70141917F0195
:10EB70006CE6C80145DE0F5F1F4F0231F3E41F074B
:10EB8000A1F766E672EE86EC92EEF3DDAF80B12C73
:10EB9000BA2CAA248885A80EB11C098510E0102F74
:10EBA00000278A85080F111DEB84F12CFE2CEE2422
:10EBB0008C85E80EF11C67E572EE86EC92EED9DDED
:10EBC000B70180E090E044E0A7DD89E492EE80DDCB
:10EBD000B80180E090E044E09FDD87E392EE78DDCD
:10EBE000650124E0C21AD1082601612C712C44E091
:10EBF000C301B20191DD0330110599F489EFE816E4
:10EC000081E0F80660F48091220290912302E816D8
:10EC1000F90628F001968E159F0508F046C000E021
:10EC200010E095E0A91692E0B90608F004C103309F
:10EC3000110509F440C058F50130110599F1023071
:10EC4000110509F0FAC033DD6CE172EE86EC92EE4C
:10EC500090DD6FEF82E090E0E2D30091200210910E
:10EC60002102C801FEDD6BE072EE86EC92EE81DDE2
:10EC7000B80180E090E044E04FDD10922302109252
:10EC80002202109225021092240212E0E6C0043003
:10EC9000110509F4C9C00530110509F0CEC068E9B5
:10ECA00071EEC4C06AE272EEC1C0E5E0AE16E2E009
:10ECB000BE0608F0C0C0FBDC60E072EE86EC92EEAF
:10ECC00058DDF0922502E0922402E1E0EE1AF1080C
:10ECD0004701A12CB12C99E0880C991CAA1CBB1CE3
:10ECE0009A95D1F7AA24BB24EE0CEF2CEE1CFF085A
:10ECF000F194C701A0E0B0E0DC0199278827882AB9
:10ED0000992AAA2ABB2A480C591C6A1C7B1CF1E0D0
:10ED10004F16F0EF5F06F3E06F06710438F062EF14
:10ED200071EE86EC92EE25DD13E097C067ED71EE93
:10ED300086EC92EE1EDD46E0C501B401EDDCC114A7
:10ED400022E0D20610F414E001C012E0CC2021F041
:10ED50008FEFC81AD80AFACF6CEB71EE86EC92EE00
:10ED600008DDC601A0E0B0E044E0BC01CD01D4DC88
:10ED7000DE011D9620E030E0332433942401350178
:10ED800091E0591A6108710803E0F5E0FF2E81E176
:10ED9000E82E2C153D0508F03BC0C501B401620FFB
:10EDA000731F811D911DE1E0F0E0EC0FFD1FE20FEC
:10EDB000F31F458550E0542F4427EC914E2B0A0158
:10EDC000FB0180935B0030925700E89511242E5F81
:10EDD0003F4F21111BC0B301A201420F531F611D00
:10EDE000711DFA0160935B0000935700E89507B628
:10EDF00000FCFDCFFA0160935B00F0925700E895AC
:10EE000007B600FCFDCFE0925700E8951296C1CFFF
:10EE1000143019F56AEA71EE86EC92EEAADC6EEE19
:10EE200082E090E0FCD219C06EE971EE86EC92EEC1
:10EE3000A0DC10E012C000E010E068E871EE86ECA3
:10EE400092EE97DCB80180E090E044E065DC8091D0
:10EE500020029091210205DD11E0812FC45FDD4F7A
:10EE6000DEBFCDBFDF91CF911F910F91FF90EF904B
:10EE7000DF90CF90BF90AF909F908F907F906F90DA
:10EE80005F904F903F9008952F923F924F925F92E4
:10EE90006F927F928F929F92AF92BF92CF92DF92AA
:10EEA000EF92FF920F931F93CF93DF93CDB7DEB70F
:10EEB000C552D140DEBFCDBF312C212CCC5DDE4F01
:10EEC00019821882C452D140412C512C3201C12CDC
:10EED000D12C760180E020E030E09091C00097FFD7
:10EEE000FCCF9091C00094FD01C0A8959091C60000
:10EEF0008330F1F020F4813081F040F012C0853091
:10EF000031F1D0F0863009F442C0E7CF9B3109F0EF
:10EF10004BC04BE1242E81E0E0CF2926392E82E040
:10EF2000DCCF292F30E0322F2227292683E0D5CFCE
:10EF3000292B292684E0D1CF9E30A1F52926CC5D4E
:10EF4000DE4F19821882C452D14085E0C6CFCC5D15
:10EF5000DE4F48815981C452D1404F5F5F4FE1E09D
:10EF6000F0E0EC0FFD1FCC5DDE4F88809980C4522D
:10EF7000D140E80DF91D908329264217530751F01F
:10EF8000CC5DDE4F59834883C452D140A6CF921145
:10EF900009C00DC0CC5DDE4F39832883C452D140F7
:10EFA00086E09BCF80E099CF873009F096CF29810A
:10EFB000233109F4DDC058F5263009F4C6C0F8F451
:10EFC0002230E9F1233009F467C0213009F0A6C1ED
:10EFD0001A8288E08B8381E48C8386E58D8382E5C9
:10EFE0008E8389E48F8383E5888780E589878FE531
:10EFF0008A8782E38B8790E00BE010E094C1213197
:10F0000009F457C008F098C02031C9F087C12831F1
:10F0100009F46AC048F4253109F4AAC008F429C1EA
:10F02000263109F426C17AC12A3109F450C008F406
:10F0300071C02B3109F440C02D3119F06FC190E03F
:10F0400039C08D81803339F49F819923B1F091309B
:10F05000B1F498E917C0982F907599F0803521F494
:10F0600099E0E0E0F0E005C0883559F4E3E0F0E035
:10F0700099E090935700949105C09EE103C091E000
:10F0800001C090E01A821B828C831D829E831F82A6
:10F0900090E007E010E047C1EA81E059E33028F44E
:10F0A000F0E0E45EFD4F808101C080E01A828B8336
:10F0B0003FC091E01A8235C18D81882321F08130D3
:10F0C00021F488E924C08EE122C081E020C01A82A8
:10F0D000E1E0F0E089E080935700E491EB831C824B
:10F0E00090E004E010E01FC18B81803551F48C81E9
:10F0F000883019F4E2E0F0E006C089E0E0E0F0E0FA
:10F1000003C0E3E0F0E089E08093570084911A8225
:10F110008B83E5CF8D81836C99E0E1E0F0E0082EF0
:10F1200090935700E89507B600FCFDCF1A821B822A
:10F1300090E003E010E0F7C080EC8A8390E002E00A
:10F1400010E0412C512C3201EEC08A81CB80D12CB1
:10F15000E12CF12C7601DD24CC24F82A8D81C82AFB
:10F160008C81D82ACC0CDD1CEE1CFF1C1A82D8C066
:10F170008A8190E0982F88273B81832B233109F0E7
:10F1800045C04114F0EC5F06F3E06F06710470F4C3
:10F1900023E0F20160925B0020935700E89507B6E8
:10F1A00000FCFDCF0FEF501A600A700A9B84970194
:10F1B0008601AE01455F5F4F61E0DA011296AD0155
:10F1C000FD0131977081892C912C972A0401F80157
:10F1D00020935B0060935700E89511240E5F1F4F4A
:10F1E0002F4F3F4F0297009711F09C90E6CF65E0BC
:10F1F000F601E0925B0060935700E89507B600FCCB
:10F20000FDCF81E180935700E8952FC0FE013B962A
:10F210005C01B701A60141BD052F162F272F33270B
:10F22000C25EDE4F088319832A833B83CE51D140CF
:10F2300002BD4F5F5F4F6F4F7F4FA191A0BDFA9A04
:10F24000F99AF999FECF11E0A11AB108A114B104FD
:10F2500011F701978C0120E030E00F5F1F4F2F4F17
:10F260003F4F0C0D1D1D2E1D3F1D1A826801790197
:10F2700057C08A8190E0982F88273B81832B8C018F
:10F280000D5F1F4F1A822431A1F4DE011396EBBEED
:10F29000F601279136912C931296FD013197308318
:10F2A00022E0C20ED11CE11CF11C0297009779F7F5
:10F2B00032C0FE0133969C01B701A60141BD852EE7
:10F2C000962EA72EBB24C25EDE4F88829982AA8228
:10F2D000BB82CE51D14082BC4F5F5F4F6F4F7F4F9B
:10F2E000F89AA0B5A193215031092115310531F7C4
:10F2F000AC014150510960E070E04F5F5F4F6F4FCC
:10F300007F4FC40ED51EE61EF71EA3E0B0E0AC0F83
:10F31000BD1FA80FB91F1C9290E005C080EC8A8326
:10F3200090E002E010E08BE1CD5DDE4F9883C352A8
:10F33000D140C7D9832DC5D9812E9924882DC1D913
:10F34000802FBFD98EE0BDD9F5E12F2E23242026B2
:10F3500028249E012F5F3F4F4901020F131FCD5DEF
:10F36000DE4F9881C352D14080169106B1F0F4016E
:10F3700021914F01822FCE5DDE4F2883C252D140B2
:10F38000CD5DDE4F9883C352D1409BD9CE5DDE4F19
:10F390002881C252D1402226E2CF822DCD5DDE4FA0
:10F3A0009883C352D1408DD93394CD5DDE4F98817F
:10F3B000C352D140992309F48DCD000081E180939F
:10F3C0005700E8956EEE82E090E029D080E0CB5DBA
:10F3D000DE4FDEBFCDBFDF91CF911F910F91FF9028
:10F3E000EF90DF90CF90BF90AF909F908F907F90E5
:10F3F0006F905F904F903F902F900895FA01DC013D
:10F4000002C005900D9221503040D8F70895F99927
:10F41000FECF92BD81BDF89A992780B50895262F19
:10F42000F999FECF1FBA92BD81BD20BD0FB6F894E9
:0EF43000FA9AF99A0FBE01960895F894FFCF4C
:10F43E0080C0A801FEFFFFFF00DEADBEEFFEEDC0F7
:10F44E00A801800000000007D00800000F020A008B
:040000033000E000E9
:00000001FF
