:020000023000CC
:10E0000081C0000032C2000030C200002EC20000F9
:10E010002CC200002AC2000028C2000026C2000054
:10E0200024C2000022C2000020C200001EC2000064
:10E030001CC200001AC2000018C2000016C2000074
:10E0400014C2000012C2000010C200000EC2000084
:10E050000CC200000AC2000008C2000006C2000094
:10E0600004C2000002C2000000C20000FEC10000A5
:10E07000FCC10000FAC10000F8C10000F6C10000B8
:10E08000F4C10000F2C10000F0C10000EEC10000C8
:10E09000ECC10000EAC10000E8C10000E6C10000D8
:10E0A000E4C10000E2C10000E0C10000DEC10000E8
:10E0B000DCC10000DAC10000D8C10000D6C10000F8
:10E0C000D4C10000D2C10000D0C10000CEC1000008
:10E0D000CCC10000CAC10000C8C10000C6C1000018
:10E0E000C4C100000005000346756C6C000005000B
:10E0F000044F70636F64653F000005000045727255
:10E100006F72000011241FBECFEFD1E2DEBFCDBF82
:10E1100001E00CBF12E0A0E0B2E0EAE1FFEE03E0B4
:10E120000BBF02C007900D92A032B107D9F712E0E1
:10E13000A0E2B2E001C01D92AC32B107E1F701D01C
:10E14000EAC6CDB7DEB7CD56D109DEBFCDBF1124AB
:10E1500084B714BE8D7031F082E090E0C6D68E3E5A
:10E1600009F42AD229E288E190E00FB6F894A89544
:10E17000809360000FBE209360002FEF33EC49E0E6
:10E18000215030404040E1F700C0000084E080931F
:10E19000810080E090E0A9D6882321F060E080E053
:10E1A00090E0ABD681E090E0A0D6843021F064E02E
:10E1B00081E090E0A2D682E08093C00088E1809365
:10E1C000C10086E08093C20080E18093C4008FE0AC
:10E1D00085B987E084B92C9A249AA59A9D9A2F9A9A
:10E1E000279A81E08DBD16D2F2D110922B021092A7
:10E1F0002A02CE0101961C0189EF90EE2C01612CC0
:10E20000712C93E0690E711C84EE90EE6C01E12C90
:10E21000F12CA3E0EA0EF11C8DEE90EE4C01A12C46
:10E22000B12CB3E0AB0EB11C20E030E0A9014BBF34
:10E23000F90147915691AC965FAF4EAFAC97809184
:10E240002B028111B1C086E290E03AD1892B09F40A
:10E25000ABC081E080932A0268E682E090E017D1AB
:10E2600082FF0FC044E06CE682E090E03FD15FEFB8
:10E2700087E893E1515080409040E1F700C00000F2
:10E28000EBCF0BD2A6968FAFA69784E290E018D181
:10E29000A8969FAF8EAFA897A696AFADA697A230CF
:10E2A00081F118F4A13081F007C0A696BFADA69702
:10E2B000B33091F0B430A1F12AE030E0B301A20113
:10E2C000C1010AD62AE00FC02CE030E0B501A4015C
:10E2D000C10102D62CE007C029E030E0B701A60159
:10E2E000C101FAD529E08101A896EEADFFADA8974E
:10E2F000E219F309AA96FFAFEEAFAA97322F320DBB
:10E300001AC080912402909125022091220230911E
:10E3100023022817390720F49093230280932202C6
:10E32000198284E08A8380912402909125029B8344
:10E330008C8324E0D8CFAA968EAD9FADAA97800F8C
:10E34000911F301791F0D8014D918D0164E7AD9682
:10E350002FAFAD97AE963FAFAE97C8D0AE963FAD5C
:10E36000AE97AD962FADAD97E6CFA8966EAD7FADCB
:10E37000A897620F711D84E290E0D0D040E26CE675
:10E3800081E090E0B3D068E681E090E080D0811138
:10E39000FACFA696BFADA697B43031F440E16CE653
:10E3A00081E090E0A3D059C080912A02882339F0FF
:10E3B000AC96EEADFFADAC97319669F42BC0809171
:10E3C000C00087FFF5CF52D081E080932B02CAD2E4
:10E3D0008111EECF42C080912602909127020A97C8
:10E3E000C8F082E090E081D58E3E09F436C080917D
:10E3F0002A02813079F483E020E030E0A901F901BC
:10E4000040935B0080935700E89504D1E0D02ED074
:10E4100010922A02A895A895809184009091850079
:10E4200094FF04C025B1205825B901C02F98209130
:10E430002802309129028217930750F42091260276
:10E44000309127022F5F3F4F3093270220932602FF
:10E450009093290280932802F2CEAED080E090E023
:10E46000C359DF4FDEBFCDBF0895CACD10928500DE
:10E47000109284001092270210922602A895089507
:10E480009091C00095FFFCCF8093C600089520E5D1
:10E490002CBD2C98292F33272EBD0DB407FEFDCFA0
:10E4A0008EBD0DB407FEFDCF6EBD0DB407FEFDCFD2
:10E4B0001EBC0DB407FEFDCF2C9A8EB51CBC089572
:10E4C0001F93CF93DF93EC0168E6E1DF182F68E636
:10E4D000CE010196DCDF212F30E0322F2227A90167
:10E4E000482BCA01DF91CF911F91089520E52CBDE3
:10E4F0002C98292F33272EBD0DB407FEFDCF8EBDDE
:10E500000DB407FEFDCF6EBD0DB407FEFDCF4EBDB1
:10E510000DB407FEFDCF2C9A1CBC08950F931F93DA
:10E52000CF93DF938C01EB014D2F55276CE6DEDF97
:10E530004C2F6CE6C8010196DF91CF911F910F918E
:10E54000D5CFCF93DF93EC0140E16CE681E090E022
:10E55000CDDF68E681E090E09ADF8111FACF4FEFDE
:10E560006CE682E090E0C2DF42E06CE680E090E0A2
:10E57000BDDFBE0184E090E0D1DF41E06CE681E0E8
:10E5800090E0B4DF68E681E090E081DF8111FACFAE
:10E5900068E683E090E07BDF823229F040E16CE6C0
:10E5A00081E090E0A3DF68E683E090E070DF8232F4
:10E5B000B1F6DF91CF91089588E10FB6F89480937A
:10E5C0006000109260000FBEEE27FF270994CF93E2
:10E5D00085E490E0B6DF87E190E087D48B3B91F44F
:10E5E00089E190E082D4C82F88E190E07ED42C2F7E
:10E5F00030E0322F2227280F311D30932102209343
:10E60000200206C089E797EB9093210280932002B5
:10E61000CF9108950F931F93CF93DF9383E090E002
:10E6200064D4853529F000E012E0C0E0D0E013C0EA
:10E6300084E090E05AD48A3AB1F701E012E0C5E0F4
:10E64000D0E0CE0152D4F80181938F012196C731D9
:10E65000D105B9F7E8CFF80141918F0164E0CE010F
:10E6600045DF2196CC31D105B1F7C0E0DC2FD29542
:10E67000DD0FD07ED45F42E06D2F8EE190E036DF7B
:10E6800042E06D2F8FE190E031DFCF5FC83071F74E
:10E69000DF91CF911F910F9108952F923F924F924A
:10E6A0005F926F927F928F929F92AF92BF92CF9222
:10E6B000DF92EF92FF920F931F93CF93DF93CDB72B
:10E6C000DEB7CC50D240DEBFCDBF88E290E0F8DEAE
:10E6D0006C018E010F5F1F4F5E0123EFA21A2DEF19
:10E6E000B20A78014C01801A910AC4018E0D9F1D57
:10E6F000EA14FB0431F068E7CADEF70181937F0179
:10E70000F4CFB601645F7D4F88E290E007DF40E41C
:10E710006CE681E090E0EADE68E681E090E0B7DE5A
:10E720008111FACF68014CE0E42EF12CF601419101
:10E730006F016CE6C701DADEFFEFEF1AFF0A22E194
:10E74000E216F10499F7EF80F12CFE2CEE24888577
:10E75000E80EF11C898590E0982F88272A85820F82
:10E76000911DCB84D12CDC2CCC242C85C20ED11C49
:10E770008330910589F489EFC81681E0D806B0F599
:10E780008091220290912302C816D90678F1019651
:10E790008C159D0558F125C0E5E0EE16E2E0FE0679
:10E7A00028F584309105D0F48130910539F1029734
:10E7B000E9F45CDE6FEF82E090E09FD3809120026D
:10E7C00090912102BEDE109223021092220210923A
:10E7D000250210922402A2E07A2EACC0069770F0B7
:10E7E00005C025E0E21622E0F20650F080912002FA
:10E7F00090912102A6DE772473949CC0712C9AC05C
:10E8000035DED7011497D0922502C0922402F1E0A0
:10E81000CF1AD108A60160E070E039E0440F551F1F
:10E82000661F771F3A95D1F766277727CC0CCD2C3A
:10E83000CC1CDD08D194E12CF12C7601DD24CC2414
:10E840004C295D296E297F296A017B01CA0EDB1ED6
:10E85000E11CF11C21E0C21620EFD20623E0E20603
:10E86000F10408F065C0A11582E0B80718F424E0AF
:10E87000722E02C092E0792EAA2311F01196FCCFDD
:10E880007E01EDE0EE0EF11C20E030E04A015B017C
:10E89000F1E09F1AA108B10895E081E1682E2A17DE
:10E8A0003B0708F03DC01A012B01220E331E411C0C
:10E8B000511CF801E20FF31FC584D12CDC2CCC24B1
:10E8C000F7018081C82A81E00601F10140925B00D6
:10E8D00080935700E89511242E5F3F4F21111CC0F3
:10E8E00014012501220E331E411C511C83E0F1014D
:10E8F00040925B0080935700E89507B600FCFDCF7F
:10E90000F10140925B0090935700E89507B600FC38
:10E91000FDCF60925700E895E2E0EE0EF11CBFCF0C
:10E92000F4E07F1207C06EEE82E090E0E6D202C013
:10E93000E3E07E2E872DC45FDD4FDEBFCDBFDF91CC
:10E94000CF911F910F91FF90EF90DF90CF90BF90EC
:10E95000AF909F908F907F906F905F904F903F907F
:10E960002F9008952F923F924F925F926F927F92D5
:10E970008F929F92AF92BF92CF92DF92EF92FF92CF
:10E980000F931F93CF93DF93CDB7DEB7C552D1401E
:10E99000DEBFCDBF312C212CCC5DDE4F1982188219
:10E9A000C452D140412C512C3201C12CD12C7601C2
:10E9B00080E020E030E09091C00097FFFCCF909184
:10E9C000C00094FD01C0A8959091C6008330F1F07D
:10E9D00020F4813081F040F012C0853031F1D0F068
:10E9E000863009F442C0E7CF9B3109F04BC04BE1C0
:10E9F000242E81E0E0CF2926392E82E0DCCF292F9A
:10EA000030E0322F2227292683E0D5CF292B292653
:10EA100084E0D1CF9E30A1F52926CC5DDE4F19824E
:10EA20001882C452D14085E0C6CFCC5DDE4F48810C
:10EA30005981C452D1404F5F5F4FE1E0F0E0EC0FED
:10EA4000FD1FCC5DDE4F88809980C452D140E80D17
:10EA5000F91D908329264217530751F0CC5DDE4FF4
:10EA600059834883C452D140A6CF921109C00DC02A
:10EA7000CC5DDE4F39832883C452D14086E09BCFE2
:10EA800080E099CF873009F096CF2981233109F4AE
:10EA9000DDC058F5263009F4C6C0F8F42230E9F19B
:10EAA000233009F467C0213009F0A6C11A8288E03A
:10EAB0008B8381E48C8386E58D8382E58E8389E474
:10EAC0008F8383E5888780E589878FE58A8782E35E
:10EAD0008B8790E00BE010E094C1213109F457C01E
:10EAE00008F098C02031C9F087C1283109F46AC004
:10EAF00048F4253109F4AAC008F429C1263109F4E3
:10EB000026C17AC12A3109F450C008F471C02B31F2
:10EB100009F440C02D3119F06FC190E039C08D81EA
:10EB2000803339F49F819923B1F09130B1F498E9A1
:10EB300017C0982F907599F0803521F499E0E0E0A6
:10EB4000F0E005C0883559F4E3E0F0E099E09093F7
:10EB50005700949105C09EE103C091E001C090E090
:10EB60001A821B828C831D829E831F8290E007E0A5
:10EB700010E047C1EA81E059E33028F4F0E0E45EB8
:10EB8000FD4F808101C080E01A828B833FC091E0FD
:10EB90001A8235C18D81882321F0813021F488E9E2
:10EBA00024C08EE122C081E020C01A82E1E0F0E0C2
:10EBB00089E080935700E491EB831C8290E004E0AD
:10EBC00010E01FC18B81803551F48C81883019F49D
:10EBD000E2E0F0E006C089E0E0E0F0E003C0E3E05E
:10EBE000F0E089E08093570084911A828B83E5CF0F
:10EBF0008D81836C99E0E1E0F0E0082E909357005E
:10EC0000E89507B600FCFDCF1A821B8290E003E076
:10EC100010E0F7C080EC8A8390E002E010E0412C25
:10EC2000512C3201EEC08A81CB80D12CE12CF12C09
:10EC30007601DD24CC24F82A8D81C82A8C81D82A3B
:10EC4000CC0CDD1CEE1CFF1C1A82D8C08A8190E01F
:10EC5000982F88273B81832B233109F045C041142D
:10EC6000F0EC5F06F3E06F06710470F423E0F2014C
:10EC700060925B0020935700E89507B600FCFDCF3B
:10EC80000FEF501A600A700A9B8497018601AE014B
:10EC9000455F5F4F61E0DA011296AD01FD013197EA
:10ECA0007081892C912C972A0401F80120935B0034
:10ECB00060935700E89511240E5F1F4F2F4F3F4F71
:10ECC0000297009711F09C90E6CF65E0F601E09284
:10ECD0005B0060935700E89507B600FCFDCF81E12B
:10ECE00080935700E8952FC0FE013B965C01B70169
:10ECF000A60141BD052F162F272F3327C25EDE4FF9
:10ED0000088319832A833B83CE51D14002BD4F5FD4
:10ED10005F4F6F4F7F4FA191A0BDFA9AF99AF99971
:10ED2000FECF11E0A11AB108A114B10411F70197A7
:10ED30008C0120E030E00F5F1F4F2F4F3F4F0C0D35
:10ED40001D1D2E1D3F1D1A826801790157C08A8141
:10ED500090E0982F88273B81832B8C010D5F1F4FFC
:10ED60001A822431A1F4DE011396EBBEF60127913D
:10ED700036912C931296FD013197308322E0C20E1A
:10ED8000D11CE11CF11C0297009779F732C0FE01FB
:10ED900033969C01B701A60141BD852E962EA72E64
:10EDA000BB24C25EDE4F88829982AA82BB82CE518A
:10EDB000D14082BC4F5F5F4F6F4F7F4FF89AA0B535
:10EDC000A193215031092115310531F7AC01415092
:10EDD000510960E070E04F5F5F4F6F4F7F4FC40E8F
:10EDE000D51EE61EF71EA3E0B0E0AC0FBD1FA80FB6
:10EDF000B91F1C9290E005C080EC8A8390E002E08D
:10EE000010E08BE1CD5DDE4F9883C352D14038DBFB
:10EE1000832D36DB812E9924882D32DB802F30DB49
:10EE20008EE02EDB65E1262E2324202628249E0159
:10EE30002F5F3F4F4901020F131FCD5DDE4F9881B9
:10EE4000C352D14080169106B1F0F40121914F01D7
:10EE5000822FCE5DDE4F2883C252D140CD5DDE4F82
:10EE60009883C352D1400CDBCE5DDE4F2881C25265
:10EE7000D1402226E2CF822DCD5DDE4F9883C35252
:10EE8000D140FEDA3394CD5DDE4F9881C352D1403C
:10EE9000992309F48DCD000081E180935700E89516
:10EEA0006EEE82E090E029D080E0CB5DDE4FDEBFE9
:10EEB000CDBFDF91CF911F910F91FF90EF90DF9029
:10EEC000CF90BF90AF909F908F907F906F905F900A
:10EED0004F903F902F900895FA01DC0102C00590F9
:10EEE0000D9221503040D8F70895F999FECF92BD88
:10EEF00081BDF89A992780B50895262FF999FECFFC
:10EF00001FBA92BD81BD20BD0FB6F894FA9AF99A46
:0AEF10000FBE01960895F894FFCF9C
:10EF1A0080C0A801FEFFFFFF00DEADBEEFFEEDC020
:10EF2A00A8018000000000000007D0080F020A00B4
:040000033000E000E9
:00000001FF
