:020000023000CC
:10E0000081C0000029C2000027C2000025C2000014
:10E0100023C2000021C200001FC200001DC2000078
:10E020001BC2000019C2000017C2000015C2000088
:10E0300013C2000011C200000FC200000DC2000098
:10E040000BC2000009C2000007C2000005C20000A8
:10E0500003C2000001C20000FFC10000FDC10000BA
:10E06000FBC10000F9C10000F7C10000F5C10000CC
:10E07000F3C10000F1C10000EFC10000EDC10000DC
:10E08000EBC10000E9C10000E7C10000E5C10000EC
:10E09000E3C10000E1C10000DFC10000DDC10000FC
:10E0A000DBC10000D9C10000D7C10000D5C100000C
:10E0B000D3C10000D1C10000CFC10000CDC100001C
:10E0C000CBC10000C9C10000C7C10000C5C100002C
:10E0D000C3C10000C1C10000BFC10000BDC100003C
:10E0E000BBC100000005000346756C6C0000050014
:10E0F000044F70636F64653F000005000045727255
:10E100006F72000011241FBECFEFD1E2DEBFCDBF82
:10E1100001E00CBF12E0A0E0B2E0E0E0FFEE03E0BF
:10E120000BBF02C007900D92A032B107D9F712E0E1
:10E13000A0E2B2E001C01D92AC32B107E1F701D01C
:10E14000DDC6CDB7DEB7CC56D109DEBFCDBF1124B9
:10E1500084B714BE8D7031F082E090E0B9D68E3E67
:10E1600009F425D229E288E190E00FB6F894A89549
:10E17000809360000FBE209360002FEF33EC49E0E6
:10E18000215030404040E1F700C0000084E080931F
:10E19000810080E090E09CD6882321F060E080E060
:10E1A00090E09ED681E090E093D6843021F064E048
:10E1B00081E090E095D682E08093C00088E1809372
:10E1C000C10086E08093C20080E18093C4008FE0AC
:10E1D00085B987E084B92C9A249AA59A9D9A2F9A9A
:10E1E000279A81E08DBD11D2EDD110922B021092B1
:10E1F0002A02CE0101962C0189EF90EE9C0140E0AD
:10E2000050E04D5F5F4FA9962CAF3DAF4EAF5FAF73
:10E21000A99784EE90EE6C01E12CF12C33E0E30E33
:10E22000F11C8DEE90EE4C01A12CB12C43E0A40E1C
:10E23000B11C80E090E0DC01ABBFFC01A791B6917E
:10E24000AB96BFAFAEAFAB9780912B028111A2C04E
:10E2500068E686E297E02CD1892B09F49BC081E027
:10E2600080932A0268E682E097E008D182FF0FC01F
:10E2700044E06CE682E097E033D1BFEFE7E8F3E1FA
:10E28000B150E040F040E1F700C00000EBCFEDD12D
:10E29000182F60E084E297E00BD1985A1C011230ED
:10E2A00039F118F41130A1F004C01330C9F0143062
:10E2B00071F12AE030E0A9964CAD5DAD6EAD7FAD59
:10E2C000A997C201FCD58AE09201082F040D48C02D
:10E2D0002CE030E0B501A401C201F1D58CE0F4CF0F
:10E2E00029E030E0B701A601C201E9D589E0ECCF11
:10E2F00080912402909125022091220230912302E4
:10E300002817390720F49093230280932202198260
:10E3100084E08A8380912402909125029B838C83E0
:10E3200084E0D2CFD9014D919D013101BFEF6B1A2D
:10E330007B0A64E7C101AC962FAFAC97AD963FAFB7
:10E34000AD97CED0AC962FADAC97AD963FADAD9717
:10E350006114E0E67E0619F4612C68E5762E13015F
:10E360000213E0CFB101785584E297E0D2D040E2C9
:10E370006CE681E097E0B4D068E681E097E07ED07B
:10E380008111FACF143031F440E16CE681E097E07E
:10E39000A7D05AC080912A02882341F0AB962EADB7
:10E3A0003FADAB972F3F3F4F69F42BC08091C0002A
:10E3B00087FFF4CF52D081E080932B02C6D2811127
:10E3C000EDCF42C080912602909127020A97C8F0B3
:10E3D00082E090E07DD58E3E09F436C080912A021D
:10E3E000813079F483E020E030E0A901F901409325
:10E3F0005B0080935700E89508D1E4D02ED01092AE
:10E400002A02A895A895809184009091850094FF98
:10E4100004C025B1205825B901C02F9820912802A9
:10E42000309129028217930750F4209126023091EF
:10E4300027022F5F3F4F30932702209326029093AD
:10E4400029028093280200CFB2D080E090E0C45926
:10E45000DF4FDEBFCDBF0895D3CD1092850010925F
:10E4600084001092270210922602A8950895909198
:10E47000C00095FFFCCF8093C600089520E52CBD19
:10E480002C982FE02EBD0DB407FEFDCF292F33278A
:10E490002EBD0DB407FEFDCF8EBD0DB407FEFDCF22
:10E4A0001EBC0DB407FEFDCF2C9A8EB51CBC089582
:10E4B0000F931F93CF93DF93EC01162FDFDF082F0D
:10E4C000612FCE010196DADF202F30E0322F222794
:10E4D000A901482BCA01DF91CF911F910F91089597
:10E4E00020E52CBD2C9820EF2EBD0DB407FEFDCFEE
:10E4F000292F33272EBD0DB407FEFDCF8EBD0DB4E1
:10E5000007FEFDCF4EBD0DB407FEFDCF2C9A1CBCFF
:10E5100008950F931F93CF93DF938C01EB014D2F41
:10E5200055276CE6DDDF4C2F6CE6C8010196DF91C4
:10E53000CF911F910F91D4CFCF93DF93EC0140E1A6
:10E540006CE681E097E0CCDF68E681E097E096DF5B
:10E550008111FACF4FEF6CE682E097E0C1DF42E035
:10E560006CE680E097E0BCDFBE0184E097E0D1DF9D
:10E5700041E06CE681E097E0B3DF68E681E097E098
:10E580007DDF8111FACF68E683E097E077DF8232A2
:10E5900029F040E16CE681E097E0A2DF68E683E0E5
:10E5A00097E06CDF8232B1F6DF91CF91089588E178
:10E5B0000FB6F89480936000109260000FBEEE27B3
:10E5C000FF270994CF9385E490E0B6DF87E190E0E0
:10E5D0007FD48B3B91F489E190E07AD4C82F88E115
:10E5E00090E076D42C2F30E0322F2227280F311DD7
:10E5F000309321022093200206C089E797EB909385
:10E60000210280932002CF9108950F931F93CF93FF
:10E61000DF9383E090E05CD4853529F000E012E0E0
:10E62000C0E0D0E013C084E090E052D48A3AB1F761
:10E6300001E012E0C5E0D0E0CE014AD4F8018193B8
:10E640008F012196C731D105B9F7E8CFF801419183
:10E650008F0160E0CE0144DF2196CC31D105B1F7C6
:10E66000DF91CF911F910F9108952F923F924F927A
:10E670005F926F927F928F929F92AF92BF92CF9252
:10E68000DF92EF92FF920F931F93CF93DF93CDB75B
:10E69000DEB7CC50D240DEBFCDBF68E688E297E05F
:10E6A00007DF009711F480E098E79E012F5F3F4F4E
:10E6B00079015E0133EFA31A3DEFB30A8701EA1433
:10E6C000FB0491F06C01EFEFCE1ADE0A60E0D6DEBB
:10E6D000F70181937F01C114F0E8DF0619F4C12C22
:10E6E00058E7D52EC601EBCFBC0188E297E011DFD9
:10E6F00040E46CE681E097E0F3DE68E681E097E0D5
:10E70000BDDE8111FACF68014CE0E42E47E0F42E23
:10E71000F60141916F016CE6C701E2DEFFEFEF1AEF
:10E72000FF0A22E1E21627E0F20691F7EF80F12CD2
:10E73000FE2CEE248885E80EF11C898590E0982F48
:10E7400088272A85820F911DCB84D12CDC2CCC24E8
:10E750002C85C20ED11C8330910589F439EFC31684
:10E7600031E0D306B0F58091220290912302C816C1
:10E77000D90678F101968C159D0558F125C0E5E084
:10E78000EE16E2E0FE0628F584309105D0F48130E3
:10E79000910539F10297E9F460DE6FEF82E090E0D5
:10E7A0009FD38091200290912102C6DE1092230215
:10E7B000109222021092250210922402A2E07A2ED8
:10E7C000ACC0069770F005C025E0E21622E0F20624
:10E7D00050F08091200290912102AEDE7724739454
:10E7E0009CC0712C9AC039DED7011497D0922502B3
:10E7F000C0922402F1E0CF1AD108A60160E070E0D7
:10E8000039E0440F551F661F771F3A95D1F76627E9
:10E810007727CC0CCD2CCC1CDD08D194E12CF12C2D
:10E820007601DD24CC244C295D296E297F296A01DB
:10E830007B01CA0EDB1EE11CF11C21E0C21620EF99
:10E84000D20623E0E206F10408F065C0A11532E02B
:10E85000B30718F424E0722E02C092E0792EAA23A6
:10E8600011F01196FCCF7E018DE0E80EF11C20E046
:10E8700030E04A015B01E1E09E1AA108B10895E091
:10E8800081E1682E2A173B0708F03DC01A012B01D1
:10E89000220E331E411C511CF801E20FF31FC584E8
:10E8A000D12CDC2CCC24F7018081C82A81E0060120
:10E8B000F10140925B0080935700E89511242E5F90
:10E8C0003F4F21111CC014012501220E331E411C93
:10E8D000511C83E0F10140925B0080935700E89562
:10E8E00007B600FCFDCFF10140925B00909357000A
:10E8F000E89507B600FCFDCF60925700E895E2E08E
:10E90000EE0EF11CBFCFF4E07F1207C06EEE82E086
:10E9100090E0E6D202C0E3E07E2E872DC45FDD4F9B
:10E92000DEBFCDBFDF91CF911F910F91FF90EF9090
:10E93000DF90CF90BF90AF909F908F907F906F901F
:10E940005F904F903F902F9008952F923F924F925B
:10E950005F926F927F928F929F92AF92BF92CF926F
:10E96000DF92EF92FF920F931F93CF93DF93CDB778
:10E97000DEB7C552D140DEBFCDBF312C212CCC5DDE
:10E98000DE4F19821882C452D140412C512C3201E1
:10E99000C12CD12C760180E020E030E09091C000C5
:10E9A00097FFFCCF9091C00094FD01C0A895909175
:10E9B000C6008330F1F020F4813081F040F012C0C5
:10E9C000853031F1D0F0863009F442C0E7CF9B3179
:10E9D00009F04BC04BE1242E81E0E0CF2926392EEF
:10E9E00082E0DCCF292F30E0322F2227292683E056
:10E9F000D5CF292B292684E0D1CF9E30A1F5292619
:10EA0000CC5DDE4F19821882C452D14085E0C6CF5A
:10EA1000CC5DDE4F48815981C452D1404F5F5F4F7A
:10EA2000E1E0F0E0EC0FFD1FCC5DDE4F88809980C7
:10EA3000C452D140E80DF91D90832926421753078F
:10EA400051F0CC5DDE4F59834883C452D140A6CFEC
:10EA5000921109C00DC0CC5DDE4F39832883C452AA
:10EA6000D14086E09BCF80E099CF873009F096CFE8
:10EA70002981233109F4DDC058F5263009F4C6C0D8
:10EA8000F8F42230E9F1233009F467C0213009F0AD
:10EA9000A6C11A8288E08B8381E48C8386E58D830E
:10EAA00082E58E8389E48F8383E5888780E5898783
:10EAB0008FE58A8782E38B8790E00BE010E094C1BA
:10EAC000213109F457C008F098C02031C9F087C13E
:10EAD000283109F46AC048F4253109F4AAC008F4C1
:10EAE00029C1263109F426C17AC12A3109F450C05E
:10EAF00008F471C02B3109F440C02D3119F06FC1F9
:10EB000090E039C08D81803339F49F819923B1F031
:10EB10009130B1F498E917C0982F907599F080352D
:10EB200021F499E0E0E0F0E005C0883559F4E3E035
:10EB3000F0E099E090935700949105C09EE103C0E6
:10EB400091E001C090E01A821B828C831D829E831B
:10EB50001F8290E007E010E047C1EA81E059E3300E
:10EB600028F4F0E0E45EFD4F808101C080E01A826D
:10EB70008B833FC091E01A8235C18D81882321F0BB
:10EB8000813021F488E924C08EE122C081E020C0D8
:10EB90001A82E1E0F0E089E080935700E491EB8392
:10EBA0001C8290E004E010E01FC18B81803551F49D
:10EBB0008C81883019F4E2E0F0E006C089E0E0E002
:10EBC000F0E003C0E3E0F0E089E080935700849137
:10EBD0001A828B83E5CF8D81836C99E0E1E0F0E0D0
:10EBE000082E90935700E89507B600FCFDCF1A82D7
:10EBF0001B8290E003E010E0F7C080EC8A8390E095
:10EC000002E010E0412C512C3201EEC08A81CB8011
:10EC1000D12CE12CF12C7601DD24CC24F82A8D8135
:10EC2000C82A8C81D82ACC0CDD1CEE1CFF1C1A8251
:10EC3000D8C08A8190E0982F88273B81832B23318D
:10EC400009F045C04114F0EC5F06F3E06F06710473
:10EC500070F423E0F20160925B0020935700E89586
:10EC600007B600FCFDCF0FEF501A600A700A9B84B4
:10EC700097018601AE01455F5F4F61E0DA011296B0
:10EC8000AD01FD0131977081892C912C972A0401E7
:10EC9000F80120935B0060935700E89511240E5F04
:10ECA0001F4F2F4F3F4F0297009711F09C90E6CFD8
:10ECB00065E0F601E0925B0060935700E89507B6C7
:10ECC00000FCFDCF81E180935700E8952FC0FE0145
:10ECD0003B965C01B701A60141BD052F162F272FDA
:10ECE0003327C25EDE4F088319832A833B83CE51CC
:10ECF000D14002BD4F5F5F4F6F4F7F4FA191A0BDCD
:10ED0000FA9AF99AF999FECF11E0A11AB108A11463
:10ED1000B10411F701978C0120E030E00F5F1F4F25
:10ED20002F4F3F4F0C0D1D1D2E1D3F1D1A826801D8
:10ED3000790157C08A8190E0982F88273B81832BE7
:10ED40008C010D5F1F4F1A822431A1F4DE0113964E
:10ED5000EBBEF601279136912C931296FD01319767
:10ED6000308322E0C20ED11CE11CF11C02970097F7
:10ED700079F732C0FE0133969C01B701A60141BD6F
:10ED8000852E962EA72EBB24C25EDE4F88829982E6
:10ED9000AA82BB82CE51D14082BC4F5F5F4F6F4F82
:10EDA0007F4FF89AA0B5A193215031092115310563
:10EDB00031F7AC014150510960E070E04F5F5F4FA7
:10EDC0006F4F7F4FC40ED51EE61EF71EA3E0B0E0C6
:10EDD000AC0FBD1FA80FB91F1C9290E005C080ECBE
:10EDE0008A8390E002E010E08BE1CD5DDE4F9883F6
:10EDF000C352D1403CDB832D3ADB812E9924882DF0
:10EE000036DB802F34DB8EE032DB75E1272E2324C6
:10EE1000202628249E012F5F3F4F4901020F131F18
:10EE2000CD5DDE4F9881C352D14080169106B1F07E
:10EE3000F40121914F01822FCE5DDE4F2883C25213
:10EE4000D140CD5DDE4F9883C352D14010DBCE5D03
:10EE5000DE4F2881C252D1402226E2CF822DCD5DE5
:10EE6000DE4F9883C352D14002DB3394CD5DDE4F39
:10EE70009881C352D140992309F48DCD000081E1DE
:10EE800080935700E8956EEE82E090E029D080E014
:10EE9000CB5DDE4FDEBFCDBFDF91CF911F910F91D4
:10EEA000FF90EF90DF90CF90BF90AF909F908F90AA
:10EEB0007F906F905F904F903F902F900895FA0150
:10EEC000DC0102C005900D9221503040D8F7089522
:10EED000F999FECF92BD81BDF89A992780B5089522
:10EEE000262FF999FECF1FBA92BD81BD20BD0FB666
:10EEF000F894FA9AF99A0FBE01960895F894FFCF04
:10EF000080C0A801FEFFFFFF00DEADBEEFFEEDC03A
:10EF1000A801800000000007D08055550F020A00AC
:040000033000E000E9
:00000001FF
