:1070000043C000006CC200006AC2000068C20000F9
:1070100066C2000064C2000062C2000060C20000DC
:107020005EC200005CC200005AC2000058C20000EC
:1070300056C2000054C2000052C2000050C20000FC
:107040004EC200004CC200004AC2000048C200000C
:1070500046C2000044C2000042C2000040C200001C
:107060003EC200003CC200000005000346756C6C87
:1070700000000500044F70636F64653F0000050069
:10708000004572726F72000011241FBECFEFD8E06E
:10709000DEBFCDBF11E0A0E0B1E0E4EFF9E702C050
:1070A00005900D92AC31B107D9F711E0ACE1B1E038
:1070B00001C01D92AB32B107E1F701D099C4CDB741
:1070C000DEB7C150D140DEBFCDBF112484B714BE9E
:1070D0008D7031F082E090E075D48E3E09F4C9D213
:1070E00029E288E190E00FB6F894A89580936000BB
:1070F0000FBE209360002FEF83EC99E02150804079
:107100009040E1F700C0000084E08093810080E0BF
:1071100090E058D4882321F060E080E090E05AD4D9
:1071200081E090E04FD4843021F064E081E090E091
:1071300051D482E08093C00088E18093C10086E052
:107140008093C20080E18093C4008CE385B98CE217
:1071500084B95C9A549A299A219A81E08DBDB7D25C
:1071600093D210922A011092290144244394FE01E3
:1071700031967F0163E0562EC12CD12CF601A590EB
:10718000B49080912A01811197C068E686E297E069
:10719000F1D1892B09F490C04092290168E682E080
:1071A00097E0CED182FF0FC044E06CE682E097E02A
:1071B000F9D1FFEF27E883E1F15020408040E1F76B
:1071C00000C00000EBCFB3D2282E60E084E297E04D
:1071D000D1D18C01185A92E0291639F1921520F07C
:1071E000E1E02E1691F006C0F3E02F16B1F024E096
:1071F000221651F14AE050E06DE770E7C701D9D39C
:107200008AE04701382E3E0C3CC04CE050E061E77C
:1072100070E7C701CED38CE0F4CF49E050E068E6D8
:1072200070E7C701C6D389E0ECCF8091200190912F
:10723000210120911E0130911F012817390720F4E8
:1072400090931F0180931E01198284E08A838091AC
:107250002001909121019B838C8384E0D2CFF401A3
:1072600041914F013801FFEF6F1A7F0A64E7C801AF
:1072700099D1611420E6720619F4612C58E5752E37
:1072800083013810ECCFB801785584E297E0A3D1A0
:1072900040E26CE681E097E085D168E681E097E026
:1072A0004FD18111FACF84E0281206C040E16CE68C
:1072B00081E097E077D10BC1809129018111C7C08E
:1072C0008091C00087FFC3C00BD140922A0112D128
:1072D0008134B9F40FD1CF5FDE4F8883C150D140E4
:1072E0001CD1CF5FDE4F8881C150D140823811F46C
:1072F00084E003C0813819F480E008D1A6C083E09F
:10730000FCCF823411F484E103C0853419F484E0A5
:1073100010D19BC0853569F4EDD0182FEBD0212F0B
:1073200030E0382B220F331F3093240120932301A8
:107330008BC0863519F484E0FCD0DECF843609F0AA
:1073400054C0D8D0D7D080932201D4D0009123014B
:1073500010912401011590E7190710F0470105C0AD
:10736000F80150925700E895F9CFC4D0F401819309
:107370004F01809122018150809322018111F5CF2C
:107380000115F0E71F0720F0F80150925700E8952B
:10739000C4D007B600FCFDCF980122583F4FF8013A
:1073A0008981A701401B510BDA01AE0FBF1F119657
:1073B0006C91119790E0962B0C0140925700E89544
:1073C0001124E217F30721F0329612968C91ECCF3C
:1073D00025E0F80120935700E89507B600FCFDCFA3
:1073E00081E180935700E89530C08437D1F482D092
:1073F00081D0809322017ED090D0E0912301F09142
:107400002401CF010196909324018093230184915C
:107410007DD0809122018150809322018111EDCF96
:1074200014C0853739F479D08EE170D085E96ED0FB
:107430008FE063CF813541F470D06EEE82E090E052
:10744000C9D280E163D043C068D080E15FD08FEFC4
:10745000A816B806C1F080912501909126010A97DF
:1074600090F082E090E0AED28E3E89F180912901C9
:10747000813049F4F60150925700E89528D104D1A3
:107480002FD010922901A895A89580918400909101
:10749000850094FF05C025B132E0232725B901C03E
:1074A000299820912701309128018217930750F4E1
:1074B00020912501309126012F5F3F4F3093260107
:1074C0002093250190932801809327015ACED1D093
:1074D00080E090E0CF5FDE4FDEBFCDBF089590CD5E
:1074E00010928500109284001092260110922501BE
:1074F000A89508958091C00087FFFCCF8091C000BF
:1075000084FD01C0A8958091C60008959091C000A7
:1075100095FFFCCF8093C6000895ECDF803239F0F0
:1075200088E18093600088E080936000FFCF84E171
:10753000EDCFCF93C82FDEDFC150E9F7CF91EDCF6C
:1075400020E52CBD2A982FE02EBD0DB407FEFDCFFF
:10755000292F33272EBD0DB407FEFDCF8EBD0DB4F0
:1075600007FEFDCF1EBC0DB407FEFDCF2A9A8EB5D7
:107570001CBC08950F931F93CF93DF93EC01162F3C
:10758000DFDF082F612FCE010196DADF202F30E0F8
:10759000322F2227A901482BCA01DF91CF911F91D9
:1075A0000F91089520E52CBD2A9820EF2EBD0DB433
:1075B00007FEFDCF292F33272EBD0DB407FEFDCFCB
:1075C0008EBD0DB407FEFDCF4EBD0DB407FEFDCF41
:1075D0002A9A1CBC08950F931F93CF93DF938C01BD
:1075E000EB014D2F55276CE6DDDF4C2F6CE6C80113
:1075F0000196DF91CF911F910F91D4CFCF93DF935D
:10760000EC0140E16CE681E097E0CCDF68E681E0E8
:1076100097E096DF8111FACF4FEF6CE682E097E0BA
:10762000C1DF42E06CE680E097E0BCDFBE0184E0B1
:1076300097E0D1DF41E06CE681E097E0B3DF68E6F8
:1076400081E097E07DDF8111FACF68E683E097E083
:1076500077DF823229F040E16CE681E097E0A2DF3B
:1076600068E683E097E06CDF8232B1F6DF91CF917C
:10767000089588E10FB6F89480936000109260003E
:107680000FBEEE27FF270994CF9385E490E0B6DF85
:1076900087E190E097D18B3B91F489E190E092D122
:1076A000C82F88E190E08ED12C2F30E0322F222796
:1076B000280F311D30931D0120931C0106C089E75E
:1076C00097EB90931D0180931C01CF9108950F9328
:1076D0001F93CF93DF9383E090E074D1853529F039
:1076E00000E011E0C0E0D0E013C084E090E06AD197
:1076F0008A3AB1F701E011E0C5E0D0E0CE0162D1F5
:10770000F80181938F012196C731D105B9F7E8CFF0
:10771000F80141918F0160E0CE0144DF2196CC3128
:10772000D105B1F7DF91CF911F910F910895CF92BD
:10773000DF92EF92FF920F931F93CF93DF93CDB71A
:10774000DEB7CC50D240DEBFCDBF68E688E297E01E
:1077500011DF009711F480E098E76E0123EFC21A61
:107760002DEFD20A8E010F5F1F4F0C151D0591F0F2
:107770007C014FEFE41AF40A60E0E2DEF801819345
:107780008F01E114F0E8FF0619F4E12C38E7F32E3D
:10779000C701EBCFBC0188E297E01DDF40E46CE657
:1077A00081E097E0FFDE68E681E097E0C9DE8111C5
:1077B000FACFCE0101967C010CE017E0F701419170
:1077C0007F016CE6C801EEDE0F5F1F4F0231F7E06C
:1077D0001F07A1F7EF80F12CFE2CEE248885E80E20
:1077E000F11C898590E0982F88272A85820F911DAA
:1077F0000B8510E0102F00272C85020F111D833000
:10780000910579F409331105B0F580911E0190912D
:107810001F010817190778F101968017910758F191
:1078200025C025E0E21622E0F20628F58430910515
:10783000D0F48130910539F10297E9F451DE6FEF10
:1078400082E090E0C7D080911C0190911D01D6DEAE
:1078500010921F0110921E0110922101109220011E
:10786000A2E0FA2E98C0069770F005C025E0E21657
:1078700022E0F20650F080911C0190911D01BEDEC5
:10788000FF24F39488C0F12C86C02ADE970124508F
:107890003109109321010093200101501109102F8B
:1078A0000027110FC801820F931F8130904708F005
:1078B0006DC0211582E0380718F4E4E0FE2E02C006
:1078C00072E0F72EC9018F779927892B19F02F5F66
:1078D0003F4FF8CF0115110559F0DE011D9640E02C
:1078E00050E081E093E0F5E0EF2E61E1D62E43C059
:1078F000FE013D9681E090E08C0F9D1F805C9F4FC4
:1079000040814C3009F045C04181443909F041C003
:107910003496E817F907A1F7E0CFE1E0F0E0EC0FCB
:10792000FD1FE40FF51F658570E0762F6627EC914B
:107930006E2BF8010B0180935700E89511244E5FE0
:107940005F4FBA016F777727672B91F4F801EE57F5
:10795000F10990935700E89507B600FCFDCFE0923F
:107960005700E89507B600FCFDCFD0925700E89588
:1079700012960E5F1F4F4217530778F2F4E0FF1282
:107980000AC06EEE82E090E025D005C0F3E0FF2E45
:1079900002C0E5E0FE2E8F2DC45FDD4FDEBFCDBF00
:1079A000DF91CF911F910F91FF90EF90DF90CF90DB
:1079B0000895FB01DC0102C005900D92415050403A
:1079C000D8F70895F999FECF92BD81BDF89A99270D
:1079D00080B50895262FF999FECF1FBA92BD81BDBB
:1079E00020BD0FB6F894FA9AF99A0FBE0196089541
:0479F000F894FFCF39
:1079F40080C0A801FEFFFFFF00DEADBEEFFEEDC0BC
:0C7A0400A801800000000007D08055554C
:040000030000700089
:00000001FF
