:1070000043C000006BC2000069C2000067C20000FC
:1070100065C2000063C2000061C200005FC20000E0
:107020005DC200005BC2000059C2000057C20000F0
:1070300055C2000053C2000051C200004FC2000000
:107040004DC200004BC2000049C2000047C2000010
:1070500045C2000043C2000041C200003FC2000020
:107060003DC200003BC200000005000346756C6C89
:1070700000000500044F70636F64653F0000050069
:10708000004572726F72000011241FBECFEFD8E06E
:10709000DEBFCDBF11E0A0E0B1E0E0E0FAE702C062
:1070A00005900D92AC31B107D9F711E0ACE1B1E038
:1070B00001C01D92AB32B107E1F701D09FC4CDB73B
:1070C000DEB7C150D140DEBFCDBF112484B714BE9E
:1070D0008D7031F082E090E07BD48E3E09F4C4D212
:1070E00029E288E190E00FB6F894A89580936000BB
:1070F0000FBE209360002FEF83EC99E02150804079
:107100009040E1F700C0000084E08093810080E0BF
:1071100090E05ED4882321F060E080E090E060D4CD
:1071200081E090E055D4843021F064E081E090E08B
:1071300057D482E08093C00088E18093C10086E04C
:107140008093C20080E18093C4008CE385B98CE217
:1071500084B95C9A549A81E08DBDB4D290D21092D9
:107160002A0110922901662463948E010F5F1F4F3C
:1071700053E0752EC12CD12CF601A590B4908091CE
:107180002A01811198C086E290E0F2D1892B09F49E
:1071900092C06092290168E682E090E0D0D182FF3F
:1071A0000FC044E06CE682E090E0F8D1EFEFF7E842
:1071B00023E1E150F0402040E1F700C00000EBCFB8
:1071C000C4D2282E84E290E0D3D14C0182E028166C
:1071D00051F1821520F091E0291679F006C0E3E024
:1071E0002E1699F0F4E02F1669F14AE050E06DE7B1
:1071F00070E7C801E4D32AE00FC04CE050E061E73B
:1072000070E7C801DCD32CE007C049E050E068E635
:1072100070E7C801D4D329E078012401401A510A4B
:10722000322E300E19C080912001909121012091C1
:107230001E0130911F012817390720F490931F0178
:1072400080931E01198224E02A838091200190916D
:1072500021019B838C83E0CFC2018E0D9F1D3E14C4
:1072600081F0F70141917F0164E7CF5FDE4F288312
:10727000C150D14093D1CF5FDE4F2881C150D14062
:10728000EBCFB401620F711D84E290E09FD140E228
:107290006CE681E090E082D168E681E090E04FD139
:1072A0008111FACFF4E02F1206C040E16CE681E0D4
:1072B00090E074D10BC1809129018111C7C08091E8
:1072C000C00087FFC3C00BD160922A0112D1813464
:1072D000B9F40FD1CF5FDE4F8883C150D1401CD1AC
:1072E000CF5FDE4F8881C150D140823811F484E0F5
:1072F00003C0813819F480E008D1A6C083E0FCCF38
:10730000823411F484E103C0853419F484E010D18F
:107310009BC0853569F4EDD0F82EEBD02F2D30E0F1
:10732000382B220F331F30932401209323018BC06D
:10733000863519F484E0FCD0DECF843609F054C0E1
:10734000D8D0D7D080932201D4D0E0902301F09000
:107350002401E11420E7F20610F0480105C0F7010E
:1073600070925700E895F9CFC4D0F40181934F0192
:10737000809122018150809322018111F5CFE11487
:10738000F0E7FF0620F0F70170925700E895C4D0AF
:1073900007B600FCFDCF970122583F4FF7018981C6
:1073A000A8014E195F09DA01AE0FBF1F11966C914B
:1073B000119790E0962B0C0160925700E8951124EC
:1073C000E217F30721F0329612968C91ECCF25E06C
:1073D000F70120935700E89507B600FCFDCF81E147
:1073E00080935700E89530C08437D1F482D081D0A3
:1073F000809322017ED090D0E0912301F09124016E
:10740000CF010196909324018093230184917DD034
:10741000809122018150809322018111EDCF14C00F
:10742000853739F479D08EE170D085E96ED08FE060
:1074300063CF813541F470D06EEE82E090E0D0D21F
:1074400080E163D043C068D080E15FD09FEFA91690
:10745000B906C1F080912501909126010A9790F01C
:1074600082E090E0B5D28E3E89F180912901813091
:1074700049F4F60170925700E89524D100D12FD03D
:1074800010922901A895A89580918400909185007B
:1074900094FF05C025B130E2232725B901C02D98FE
:1074A00020912701309128018217930750F42091F1
:1074B0002501309126012F5F3F4F30932601209305
:1074C0002501909328018093270159CECDD080E0EB
:1074D00090E0CF5FDE4FDEBFCDBF089591CD10921B
:1074E0008500109284001092260110922501A89523
:1074F00008958091C00087FFFCCF8091C00084FD7B
:1075000001C0A8958091C60008959091C00095FF94
:10751000FCCF8093C6000895ECDF803239F088E11B
:107520008093600088E080936000FFCF84E1EDCF1E
:10753000CF93C82FDEDFC150E9F7CF91EDCF20E523
:107540002CBD2A98292F33272EBD0DB407FEFDCF61
:107550008EBD0DB407FEFDCF6EBD0DB407FEFDCF91
:107560001EBC0DB407FEFDCF2A9A8EB51CBC089533
:107570001F93CF93DF93EC0168E6E1DF182F68E6F5
:10758000CE010196DCDF212F30E0322F2227A90126
:10759000482BCA01DF91CF911F91089520E52CBDA2
:1075A0002A98292F33272EBD0DB407FEFDCF8EBD9F
:1075B0000DB407FEFDCF6EBD0DB407FEFDCF4EBD71
:1075C0000DB407FEFDCF2A9A1CBC08950F931F939C
:1075D000CF93DF938C01EB014D2F55276CE6DEDF57
:1075E0004C2F6CE6C8010196DF91CF911F910F914E
:1075F000D5CFCF93DF93EC0140E16CE681E090E0E2
:10760000CDDF68E681E090E09ADF8111FACF4FEF9D
:107610006CE682E090E0C2DF42E06CE680E090E061
:10762000BDDFBE0184E090E0D1DF41E06CE681E0A7
:1076300090E0B4DF68E681E090E081DF8111FACF6D
:1076400068E683E090E07BDF823229F040E16CE67F
:1076500081E090E0A3DF68E683E090E070DF8232B3
:10766000B1F6DF91CF91089588E10FB6F894809339
:107670006000109260000FBEEE27FF270994CF93A1
:1076800085E490E0B6DF87E190E0A2D18B3B91F4F6
:1076900089E190E09DD1C82F88E190E099D12C2F0D
:1076A00030E0322F2227280F311D30931D01209307
:1076B0001C0106C089E797EB90931D0180931C0184
:1076C000CF9108950F931F93CF93DF9383E090E0C2
:1076D0007FD1853529F000E011E0C0E0D0E013C093
:1076E00084E090E075D18A3AB1F701E011E0C5E09D
:1076F000D0E0CE016DD1F80181938F012196C73181
:10770000D105B9F7E8CFF80141918F0164E0CE01CE
:1077100045DF2196CC31D105B1F7C0E0DC2FD29501
:10772000DD0FD07ED45F42E06D2F8EE190E036DF3A
:1077300042E06D2F8FE190E031DFCF5FC83071F70D
:10774000DF91CF911F910F9108958F929F92AF92E9
:10775000BF92CF92DF92EF92FF920F931F93CF933E
:10776000DF93CDB7DEB7CC50D240DEBFCDBF88E2CD
:1077700090E0FEDE6C01CE0101967C015E0193EF8C
:10778000A91A9DEFB90A870146018E189F08C40106
:10779000800F911F0A151B0531F068E7D0DEF80154
:1077A00081938F01F4CFB601645F7D4F88E290E052
:1077B0000DDF40E46CE681E090E0F0DE68E681E019
:1077C00090E0BDDE8111FACF67010CE010E0F60118
:1077D00041916F016CE6C801E1DE0F5F1F4F02317E
:1077E0001105A9F7CF80D12CDC2CCC248885C80EBC
:1077F000D11C898590E0982F88272A85820F911DBA
:107800000B8510E0102F00272C85020F111D8330EF
:10781000910579F409331105B0F580911E0190911D
:107820001F010817190778F101968017910758F181
:1078300025C0F5E0CF16F2E0DF0628F5843091058B
:10784000D0F48130910539F10297E9F448DE6FEF09
:1078500082E090E0C5D080911C0190911D01C9DEAD
:1078600010921F0110921E0110922101109220010E
:10787000A2E0DA2E92C0069770F005C025E0C2168D
:1078800022E0D20650F080911C0190911D01B1DEE2
:10789000DD24D39482C0D12C80C021DE96012450F7
:1078A0003109109321010093200101501109102F7B
:1078B0000027110FC801820F931F8130904708F0F5
:1078C00067C0211582E0380718F4E4E0DE2E02C01C
:1078D00072E0D72EC9018F779927892B19F02F5F76
:1078E0003F4FF8CF0115110559F0DE011D9640E01C
:1078F00050E081E093E0F5E0CF2E61E1B62E3DC08F
:10790000FE013D96C701805C9F4F40814C3009F0DD
:1079100042C04181443909F03EC03496E817F90766
:10792000A1F7E3CFF701E40FF51F658570E0762F2F
:107930006627EC916E2BF8010B0180935700E895B8
:1079400011244E5F5F4FBA016F777727672B91F451
:10795000F801EE57F10990935700E89507B600FC3F
:10796000FDCFC0925700E89507B600FCFDCFB0925E
:107970005700E89512960E5F1F4F4217530790F27B
:10798000F4E0DF120AC06EEE82E090E029D005C07C
:10799000F3E0DF2E02C0E5E0DE2E8D2DC45FDD4F6B
:1079A000DEBFCDBFDF91CF911F910F91FF90EF9080
:1079B000DF90CF90BF90AF909F908F900895FB0184
:1079C000DC0102C005900D9241505040D8F7089557
:1079D000F999FECF92BD81BDF89A992780B5089597
:1079E000262FF999FECF1FBA92BD81BD20BD0FB6DB
:1079F000F894FA9AF99A0FBE01960895F894FFCF79
:107A000080C0A801FEFFFFFF00DEADBEEFFEEDC0AF
:0C7A1000A8018000000000000007D00862
:040000030000700089
:00000001FF
