:020000021000EC
:10E0000055C00000E9C20000E7C20000E5C2000000
:10E01000E3C20000E1C20000DFC20000DDC2000078
:10E02000DBC20000D9C20000D7C20000D5C2000088
:10E03000D3C20000D1C20000CFC20000CDC2000098
:10E04000CBC20000C9C20000C7C20000C5C20000A8
:10E05000C3C20000C1C20000BFC20000BDC20000B8
:10E06000BBC20000B9C20000B7C20000B5C20000C8
:10E07000B3C20000B1C20000AFC20000ADC20000D8
:10E08000ABC20000A9C20000A7C200000005000347
:10E0900046756C6C00000500044F70636F64653F4B
:10E0A00000000500004572726F72000011241FBE4F
:10E0B000CFEFD0E4DEBFCDBF11E0A0E0B1E0EAE7F2
:10E0C000FBEE01E00BBF02C007900D92AC31B1072F
:10E0D000D9F711E0ACE1B1E001C01D92AB32B1075C
:10E0E000E1F701D048C5CDB7DEB7C850D140DEBF9B
:10E0F000CDBF112484B714BE8D7031F082E090E062
:10E1000024D58E3E09F43BD329E288E190E00FB696
:10E11000F894A895809360000FBE209360002FEFC5
:10E1200033EC49E0215030404040E1F700C00000AE
:10E1300084E08093810080E090E007D5882321F07F
:10E1400060E080E090E009D581E090E0FED484308A
:10E1500021F064E081E090E000D582E08093C0008F
:10E1600088E18093C10086E08093C20080E18093C3
:10E17000C40080EF85B980EB84B9479A3F9A81E06B
:10E180008DBD2BD307D310922A0110922901CE0105
:10E1900001961C0181EA90EE9C0140E050E04F5F47
:10E1A0005F4FCE5FDE4F288339834A835B83C25043
:10E1B000D1408CE890EE6C01E12CF12C3FEFE31A9A
:10E1C000F30A85E990EE2C01612C712C4FEF641A53
:10E1D000740A80E090E0DC01ABBFFC01A791B6912E
:10E1E000CA5FDE4FB983A883C650D14080912A010F
:10E1F0008111B5C068E686E293E43DD2892B09F42B
:10E20000AEC081E08093290168E682E093E415D2F4
:10E2100082FF0FC044E06CE682E093E444D2BFEF9B
:10E22000E7E8F3E1B150E040F040E1F700C0000062
:10E23000EBCF13D3CF5FDE4F8883C150D14060E076
:10E2400084E293E418D28C011856CF5FDE4F288108
:10E25000C150D140223071F118F42130D9F009C0F9
:10E26000CF5FDE4F3881C150D1403330D9F03430E8
:10E2700081F12AE030E0CE5FDE4F488159816A812A
:10E280007B81C250D140C10157D48AE05101282F6F
:10E29000220D46C02CE030E0B301A201C1014CD4F4
:10E2A0008CE0F4CF29E030E0B701A601C10144D4ED
:10E2B00089E0ECCF809120019091210120911E01F5
:10E2C00030911F012817390720F490931F01809384
:10E2D0001E01198284E08A8380912001909121019E
:10E2E0009B838C8384E0D2CFD5014D915D014801A1
:10E2F000BFEF8B1A9B0A64E7C801C85FDE4F288313
:10E30000C850D140D0D1C85FDE4F2881C850D1401D
:10E310008114E0EA9E0619F4812C78E9972E840195
:10E320002A11E2CFB801785984E293E4DAD140E2CD
:10E330006CE681E093E4B7D168E681E093E47DD1B7
:10E340008111FACFCF5FDE4FF881C150D140F43058
:10E3500031F440E16CE681E093E4A5D135C18091D0
:10E3600029018111E6C08091C00087FFE2C035D14C
:10E3700081E080932A013BD18134B9F438D1C85F60
:10E38000DE4F8883C850D14045D1C85FDE4F8881B9
:10E39000C850D140823811F484E003C0813819F4A8
:10E3A00080E031D1C4C083E0FCCF823411F484E139
:10E3B00003C0853419F484E039D1B9C0853591F4AE
:10E3C00016D1182F14D1212F30E0382B832F881F1E
:10E3D0008827881F8BBF220F331F3093240120937F
:10E3E0002301A4C0863519F484E020D1D9CF843626
:10E3F00009F06AC0FCD0FBD080932201F8D0A09035
:10E400002301B0902401A11420EEB20610F0810186
:10E410000BC0C501A0E0B0E023E0FC01A0935B00CD
:10E4200020935700E895F3CFE2D0D8018D938D016A
:10E43000809122018150809322018111F5CFA11496
:10E44000B0EEBB0650F0C501A0E0B0E023E0FC0157
:10E45000A0935B0020935700E895DCD007B600FC42
:10E46000FDCF298180E090E0992493948101080FE9
:10E47000191FAC014A0D5B1D60E070E0D8011196D8
:10E48000EC9130E03E2B0901FA0160935B00909221
:10E490005700E89511248E3F910521F00296F8016E
:10E4A0002281E4CFC501A0E0B0E025E0FC01A0930B
:10E4B0005B0020935700E89507B600FCFDCF81E193
:10E4C00080935700E89533C08437E9F490D08FD01B
:10E4D000809322018CD09ED0E0912301F091240101
:10E4E000869191D08091230190912401019690937F
:10E4F0002401809323018091220181508093220185
:10E500008111EACF14C0853739F484D08EE17BD0F5
:10E5100087E979D085E045CF813541F47BD06EEE37
:10E5200082E090E01AD380E16ED04EC073D080E1DB
:10E530006AD0CA5FDE4F28813981C650D1402F3F53
:10E540003F4FF9F080912501909126010A97C8F07C
:10E5500082E090E0FAD28E3E09F436C08091290123
:10E56000813079F483E020E030E0A901F9014093A3
:10E570005B0080935700E89530D10CD12ED01092DB
:10E580002901A895A895809184009091850094FF19
:10E5900004C02BB120582BB901C05F9820912701EE
:10E5A000309128018217930750F420912501309172
:10E5B00026012F5F3F4F3093260120932501909332
:10E5C00028018093270112CEDAD080E090E0C85F66
:10E5D000DE4FDEBFCDBF089513CD1092850010929F
:10E5E00084001092260110922501A895089580912B
:10E5F000C00087FFFCCF8091C00084FD01C0A895BA
:10E600008091C60008959091C00095FFFCCF809343
:10E61000C6000895ECDF803239F088E18093600015
:10E6200088E080936000FFCF84E1EDCFCF93C82FC7
:10E63000DEDFC150E9F7CF91EDCF20E52CBD2C985E
:10E64000292F33272EBD0DB407FEFDCF8EBD0DB48F
:10E6500007FEFDCF1EBC0DB407FEFDCF81E08EBDD1
:10E660000DB407FEFDCF1EBC0DB407FEFDCF2C9AE6
:10E670008EB51CBC08950F931F93CF93DF93EC01CD
:10E68000162FDBDF082F612FCE010196D6DF202F5A
:10E6900030E0322F2227A901482BCA01DF91CF9108
:10E6A0001F910F91089520E52CBD2C98292F332719
:10E6B0002EBD0DB407FEFDCF8EBD0DB407FEFDCF00
:10E6C00080E88EBD0DB407FEFDCF81E08EBD0DB498
:10E6D00007FEFDCF4EBD0DB407FEFDCF2C9A1CBC2E
:10E6E00008950F931F93CF93DF938C01EB014D2F70
:10E6F00055276CE6D8DF4C2F6CE6C8010196DF91F8
:10E70000CF911F910F91CFCFCF93DF93EC0140E1D9
:10E710006CE681E093E4C7DF68E681E093E48DDF97
:10E720008111FACF4FEF6CE682E093E4BCDF42E068
:10E730006CE680E093E4B7DFBE0184E093E4D1DFD0
:10E7400041E06CE681E093E4AEDF68E681E093E4CB
:10E7500074DF8111FACF68E683E093E46EDF8232E2
:10E7600029F040E16CE681E093E49DDF68E683E018
:10E7700093E463DF8232B1F6DF91CF91089588E1AF
:10E780000FB6F89480936000109260000FBEEE27E1
:10E79000FF270994CF9385E490E0B6DF87E190E00E
:10E7A000D4D18B3B91F489E190E0CFD1C82F88E19F
:10E7B00090E0CBD12C2F30E0322F2227280F311DB3
:10E7C00030931D0120931C0106C089E797EB9093BD
:10E7D0001D0180931C01CF9108950F931F93CF9338
:10E7E000DF9383E090E0B1D1853529F000E011E0BE
:10E7F000C0E0D0E013C084E090E0A7D18A3AB1F73E
:10E8000001E011E0C5E0D0E0CE019FD1F801819395
:10E810008F012196C731D105B9F7E8CFF8014191B1
:10E820008F0160E0CE013FDF2196CA31D105B1F7FB
:10E83000CFE1D0E442E060E0CE0135DF42E060E0CD
:10E84000CE01019730DFD395CF31F8E4DF0791F7A0
:10E85000DF91CF911F910F9108952F923F924F9288
:10E860005F926F927F928F929F92AF92BF92CF9260
:10E87000DF92EF92FF920F931F93CF93DF93CDB769
:10E88000DEB7CC50D240DEBFCDBF68E688E293E46D
:10E89000F2DE009711F480E098ED9E012F5F3F4F6C
:10E8A00079015E0133EFA31A3DEFB30A8701EA1441
:10E8B000FB0491F06C01EFEFCE1ADE0A60E0BDDEE2
:10E8C000F70181937F01C114F0EEDF0619F4C12C2A
:10E8D00058EDD52EC601EBCFBC0188E293E401DFF1
:10E8E00040E46CE681E093E4DEDE68E681E093E4F8
:10E8F000A4DE8111FACF68014CE0E42E43E4F42E4B
:10E90000F60141916F016CE6C701CDDEFFEFEF1A12
:10E91000FF0A22E1E21623E4F20691F7EF80F12CE0
:10E92000FE2CEE248885E80EF11C898590E0982F56
:10E9300088272A85820F911DCB84D12CDC2CCC24F6
:10E940002C85C20ED11C8330910581F439EFC3169A
:10E95000D104B0F580911E0190911F01C816D9060F
:10E9600078F101968C159D0558F125C0E5E0EE166D
:10E97000E2E0FE0628F584309105D0F4813091055F
:10E9800039F10297E9F429DE6FEF82E090E0E5D0FB
:10E9900080911C0190911D01B7DE10921F01109211
:10E9A0001E011092210110922001A2E07A2EACC02B
:10E9B000069770F005C025E0E21622E0F20650F05E
:10E9C00080911C0190911D019FDE772473949CC05F
:10E9D000712C9AC002DED7011497D0922101C09207
:10E9E0002001F1E0CF1AD108A60160E070E039E023
:10E9F000440F551F661F771F3A95D1F76627772773
:10EA0000CC0CCD2CCC1CDD08D194E12CF12C760162
:10EA1000DD24CC244C295D296E297F296A017B01E4
:10EA2000CA0EDB1EE11CF11C21E0C21620EFD2064B
:10EA300021E0E206F10408F065C0A11532E0B30759
:10EA400018F424E0722E02C092E0792EAA2311F06D
:10EA50001196FCCF7E018DE0E80EF11C20E030E045
:10EA60004A015B01E1E09E1AA108B10895E081E14D
:10EA7000682E2A173B0708F03DC01A012B01220E11
:10EA8000331E411C511CF801E20FF31FC584D12C29
:10EA9000DC2CCC24F7018081C82A81E00601F10139
:10EAA00040925B0080935700E89511242E5F3F4F02
:10EAB00021111CC014012501220E331E411C511CC2
:10EAC00083E0F10140925B0080935700E89507B620
:10EAD00000FCFDCFF10140925B0090935700E89558
:10EAE00007B600FCFDCF60925700E895E2E0EE0E1D
:10EAF000F11CBFCFF4E07F1207C06EEE82E090E021
:10EB00002CD002C0E3E07E2E872DC45FDD4FDEBF38
:10EB1000CDBFDF91CF911F910F91FF90EF90DF90CC
:10EB2000CF90BF90AF909F908F907F906F905F90AD
:10EB30004F903F902F900895FA01DC0102C005909C
:10EB40000D9221503040D8F70895F999FECF92BD2B
:10EB500081BDF89A992780B50895262FF999FECF9F
:10EB60001FBA92BD81BD20BD0FB6F894FA9AF99AEA
:0AEB70000FBE01960895F894FFCF40
:10EB7A0080C0A801FEFFFFFF00DEADBEEFFEEDC0C4
:0CEB8A00A801800000000007D008000077
:040000031000E00009
:00000001FF
